:100000000C9427010C94E9040C94C2040C9450073E
:100010000C942C070C9408070C9474070C944F0153
:100020000C944F010C944F010C944F010C944F0110
:100030000C944F010C944F010C944F010C944F0100
:100040000C9478040C944F010C94FB020C94D50290
:100050000C944F010C944F010C944F010C944F01E0
:100060000C944F010C944F01010402000302048A16
:10007000050506C30B2019421E2C25802E902FAAA1
:10008000302D370038003C8F3D106F2000000000FD
:1000900000250028002B0000C20100010011001102
:1000A000000C0000E100000A0025002500210000EE
:1000B0009600001900390039003600127A00001F3E
:1000C000004600460044008070000022004D004DB4
:1000D000004A00004B0000360075007500720040B9
:1000E0003800004A009C009C0099008025000072A6
:1000F00000EC00EC00E900C0120000E900DA01DACF
:1001000001D70160090000D701B603B603B303B0FD
:10011000040000B3036E076E076B07580200006E01
:1001200007DC0EDC0ED80E2C010000DC0EC11DC158
:100130001DBE1D2C50756C7365495244413A002C0C
:100140004B53666C6F77726174653A002C4B536841
:100150006561743A002C4B5364656C7461543A00C9
:100160002C4B5372657475726E543A002C4B536667
:100170006C6F77543A002C4B536B57683A003A0037
:100180002C54002C564653666C6F773A002C56461A
:100190005374656D703A002C4F454D637432576847
:1001A0003A002C4F454D63743157683A002C4F4547
:1001B0004D6374323A002C4F454D6374313A004D13
:1001C00073673A002C544870756C73653A002C5470
:1001D00048626174746572793A002C544868756D90
:1001E00069646974793A002C544865787474656D53
:1001F000703A00544874656D703A000000000024A5
:100200000027002A0000000008000201000003048B
:10021000070000000000000000000000002300268E
:10022000002900040404040404040402020202027B
:1002300002030303030303010204081020408001AA
:100240000204081020010204081020005C18112488
:100250001FBECFEFD8E0DEBFCDBF11E0A0E0B1E020
:10026000E6E1F0E402C005900D92AE36B107D9F791
:1002700027E0AEE6B1E001C01D92A632B207E1F779
:1002800011E0C7E2D1E004C02197FE010E94EA1B01
:10029000C632D107C9F70E949F0D0C9409200C9417
:1002A0000000CF92DF92EF92FF920F931F93CF93B4
:1002B000DF936C017A018B01C0E0D0E0CE15DF0541
:1002C00089F0D8016D918D01D601ED91FC910190DD
:1002D000F081E02DC6010995892B11F47E0102C041
:1002E0002196ECCFC701DF91CF911F910F91FF9025
:1002F000EF90DF90CF900895FC01538D448D252F12
:1003000030E0842F90E0821B930B541710F0CF96AF
:10031000089501970895FC01918D828D981761F0E1
:10032000828DDF01A80FB11D5D968C91928D9F5F2C
:100330009F73928F90E008958FEF9FEF0895FC01D7
:10034000918D828D981731F0828DE80FF11D858D8A
:1003500090E008958FEF9FEF0895FC01918D228D1D
:10036000892F90E0805C9F4F821B91098F739927A2
:10037000089583EF93E00E94AD0121E0892B09F4F9
:1003800020E0822F0895FC01848DDF01A80FB11DAC
:10039000A35ABF4F2C91848D90E001968F739927BB
:1003A000848FA689B7892C93A089B1898C918064A8
:1003B0008C93938D848D981306C00288F389E02D69
:1003C00080818F7D80830895EF92FF920F931F931A
:1003D000CF93DF93EC0181E0888F9B8D8C8D9813F8
:1003E00005C0E889F989808185FD24C0F62E0B8D32
:1003F00010E00F5F1F4F0F731127E02E8C8DE81256
:100400000CC00FB607FCFACFE889F989808185FF17
:10041000F5CFCE010E94C301F1CF8B8DFE01E80F15
:10042000F11DE35AFF4FF0820B8FEA89FB8980812F
:10043000806207C0EE89FF896083E889F98980813D
:100440008064808381E090E0DF91CF911F910F91D4
:10045000FF90EF900895CF93DF93EC01888D882370
:10046000C9F0EA89FB89808185FD05C0A889B98921
:100470008C9186FD0FC00FB607FCF5CF808185FFFC
:10048000F2CFA889B9898C9185FFEDCFCE010E946A
:10049000C301E7CFDF91CF91089580E090E0892BF1
:1004A00029F00E94B90181110C940000089508956B
:1004B000DC015196ED91FC915297908150968C9170
:1004C0008095892380830895209170013091710176
:1004D0002817390781F490916E0180916F01981768
:1004E00051F0E0916E01F0E0EF55FC4F8081082E55
:1004F000000C990B08958FEF9FEF089520917001E4
:10050000309171012817390739F48FB7F894109298
:100510006F0110926E018FBF08952091700130918C
:1005200071012817390771F480916F0120916E01D4
:1005300090E0805C9F4F821B910960E470E00E9414
:100540006F1B089580E090E0089520917001309134
:10055000710128173907B9F490916E0180916F01EC
:10056000981789F0E0916E01F0E0EF55FC4F808123
:1005700020916E0130E02F5F3F4F2F733327209380
:100580006E0190E008958FEF9FEF0895089580E049
:1005900090E00895609381017093820180938301BC
:1005A0009093840108950E942C1D1F920F920FB604
:1005B0000F9211242F933F934F935F936F937F93E9
:1005C0008F939F93AF93BF93EF93FF9383EF93E04A
:1005D0000E94C301FF91EF91BF91AF919F918F91C5
:1005E0007F916F915F914F913F912F910F900FBE2F
:1005F0000F901F9018951F920F920FB60F92112413
:100600002F938F939F93EF93FF93E0910304F091C7
:1006100004048081E0910904F0910A0482FD12C073
:10062000908180910C048F5F8F7320910D0482174D
:1006300051F0E0910C04F0E0ED50FC4F958F809369
:100640000C0401C08081FF91EF919F918F912F91B8
:100650000F900FBE0F901F90189590E0FC01EB5F7C
:10066000FD4F3491FC01E95CFD4F2491FC01ED5DEF
:10067000FD4FE491EE2309F43BC0332339F13330CD
:1006800091F038F43130A9F0323001F584B58F7D26
:1006900012C0373091F03830A1F03430B9F4809185
:1006A00080008F7D03C0809180008F7780938000D1
:1006B0000DC084B58F7784BD09C08091B0008F775D
:1006C00003C08091B0008F7D8093B000F0E0EE0F0A
:1006D000FF1FE357FF4FA591B4918FB7F894EC91AA
:1006E000611103C020952E2301C02E2B2C938FBFA8
:1006F0000895CF93DF9390E0FC01E95CFD4F2491D6
:10070000FC01ED5DFD4F8491882361F190E0880F3D
:10071000991FFC01E550FE4FC591D491FC01E357B0
:10072000FF4FA591B491611109C09FB7F8948881DA
:10073000209582238883EC912E230BC0623061F4D4
:100740009FB7F8943881822F809583238883EC911A
:100750002E2B2C939FBF06C08FB7F894E8812E2BC9
:1007600028838FBFDF91CF9108958E3008F08E508F
:100770008770806480937C0080917A00806480938D
:100780007A0080917A0086FDFCCF809178002091DC
:10079000790090E0922B08953FB7F8948091E70399
:1007A0009091E803A091E903B091EA0326B5A89BD4
:1007B00005C02F3F19F00196A11DB11D3FBFBA2FF3
:1007C000A92F982F8827820F911DA11DB11DBC0153
:1007D000CD0142E0660F771F881F991F4A95D1F718
:1007E00008958F929F92AF92BF92CF92DF92EF9235
:1007F000FF926B017C010E94CC034B015C01C11490
:10080000D104E104F104F1F00E94CC03DC01CB013E
:1008100088199909AA09BB09883E9340A105B10529
:1008200070F321E0C21AD108E108F10888EE880EC1
:1008300083E0981EA11CB11CC114D104E104F10491
:1008400019F7DDCFFF90EF90DF90CF90BF90AF9082
:100850009F908F900895CF93DF93C0917401D091B2
:1008600075012097B1F10E94CC032091760130915F
:100870007701AB01421B530B6093760170937701B4
:100880008093780190937901CA0180539F4F60EA69
:1008900071E00E946F1BDE01B3958D919C911197C1
:1008A0009C012F5F3F4F2038310514F020E030E0ED
:1008B000FE01EE5FFE4F408151812417350749F05C
:1008C000880F991FFE01E80FF91F718360832D9334
:1008D0003C93DF91CF9108952FB7F8946091E30393
:1008E0007091E4038091E5039091E6032FBF089592
:1008F0001F920F920FB60F9211242F933F938F9355
:100900009F93AF93BF938091E3039091E403A091F1
:10091000E503B091E6033091E20323E0230F2D3786
:1009200020F40196A11DB11D05C026E8230F0296F3
:10093000A11DB11D2093E2038093E3039093E40390
:10094000A093E503B093E6038091E7039091E80359
:10095000A091E903B091EA030196A11DB11D809316
:10096000E7039093E803A093E903B093EA03BF91F0
:10097000AF919F918F913F912F910F900FBE0F904C
:100980001F9018951F920F920FB60F9211242F935C
:100990003F934F935F936F937F938F939F93AF9307
:1009A000BF93EF93FF93E0910201F091030109954A
:1009B000FF91EF91BF91AF919F918F917F916F9137
:1009C0005F914F913F912F910F900FBE0F901F900D
:1009D00018951F920F920FB60F9211242F933F93E9
:1009E0004F935F936F937F938F939F93AF93BF9337
:1009F000EF93FF93E0910001F09101010995FF91C0
:100A0000EF91BF91AF919F918F917F916F915F9186
:100A10004F913F912F910F900FBE0F901F901895FF
:100A2000E8982A988EBD0DB407FEFDCF8EB56EBD39
:100A30000DB407FEFDCF8EB52A9AE89A089560E0BE
:100A40000C941005CF93C82F81E00E941F05837E70
:100A5000682F6C2B81E8CF910C9410058627682FA6
:100A600062956827062E669566956025062E669522
:100A700060256770082E892F669507946795902DDD
:100A8000862706946795902586270895CF938091B1
:100A90008001853009F054C060E485EA0E941005A9
:100AA00084E20E941F058093E1037894C8E488E201
:100AB0000E941F058075D9F380917F0181110FC0BD
:100AC000E0917A01F0917B0180917F0191E0980F94
:100AD00090937F0190917E01E80FF11D908380E05B
:100AE0000E941F05E0917A01F0917B0190917F01B6
:100AF00021E0290F20937F01E90FF11D8083682FEA
:100B000080917C0190917D010E942E0590937D0142
:100B100080937C0180918901833410F0C0937F0120
:100B20008091890120917F0190E0049630E0821746
:100B30009307ACF080917F01883408F4B8CF0FC0E0
:100B400088E20E941F0583FF0AC084E08093800131
:100B50000E94220560E885EACF910C941005CF91A0
:100B6000089520E001972FEF8F3F9207D9F708955E
:100B7000CF92DF92EF92FF920F931F93CF93DF9369
:100B8000EC01298D3A8D2115310529F481E090E0A1
:100B90009B838A83BEC0062FEFB6F8948B8D81FDB0
:100BA000B1C0CE010E945802898D9A8D05960E948F
:100BB000B10588E090E010E020E8322F302309F002
:100BC0001F5F26950197C9F78B8D98E0C92ED12C10
:100BD000FF24F39481FF30C08D8D8F15B0F08F2DE1
:100BE000802321F0CE010E94580206C0E989FA89CB
:100BF00090818889892B8083898D9A8D0E94B10587
:100C0000FF0C81E0C81AD10839F78E8D9F8D0097AF
:100C1000D9F45AC08F2D802399F0E989FA899081FF
:100C20008889892B8083898D9A8D0E94B105FF0C5C
:100C300081E0C81AD10849F38D8D8F1558F7E5CF9B
:100C4000CE010E945802EFCF8230910521F48B8DA6
:100C500010FF06C008C0019771F48B8D10FF03C010
:100C600081FD03C008C081FD06C0E989FA89908131
:100C70008889892B80838E8D9F8D8130910521F409
:100C80008B8D10FF06C008C0029759F48B8D10FFA2
:100C900003C081FD03C005C081FD03C0CE010E94D9
:100CA00058028E8D9F8D019779F410FF0DC08B8DAA
:100CB00081FD04C0CE010E94580206C0E989FA896C
:100CC00090818889892B8083898D9A8D0E94B105B6
:100CD00012E08B8D81FF04C0CE010E94580206C035
:100CE000E989FA8990818889892B8083113011F0F4
:100CF00011E0EFCFEFBE898D9A8D0E94B10521E002
:100D000030E007C0E989FA8990818889892B80833E
:100D10004BCFC901DF91CF911F910F91FF90EF90C1
:100D2000DF90CF900895EF92FF920F931F93CF9390
:100D3000DF93C0917001D0917101209709F461C0D7
:100D40009B8DEE85FF858D8591FF04C09081892361
:100D500029F457C09081892309F053C08B899C895D
:100D60000E94B10588E0E82EF12C10E001E08D8DA5
:100D70008017A0F08D899E890E94B105EE85FF85C0
:100D800090818D85892311F0102B03C0802F8095D1
:100D90001823000F81E0E81AF10849F78E8D9F8D26
:100DA000892B21F08F89988D0E94B10500E088A1E0
:100DB000081730F48F89988D0E94B1050F5FF7CF27
:100DC0008B8D81FD109580916F0120916E0190E0D7
:100DD00001968F73992730E08217930779F0E0919D
:100DE0006F01F0E0EF55FC4F108380916F0190E0B0
:100DF00001968F73992780936F0103C08B8D81605B
:100E00008B8FDF91CF911F910F91FF90EF900895FD
:100E10001F920F920FB60F9211242F933F934F936F
:100E20005F936F937F938F939F93AF93BF93EF9352
:100E3000FF930E949306FF91EF91BF91AF919F9115
:100E40008F917F916F915F914F913F912F910F9073
:100E50000FBE0F901F9018951F920F920FB60F9212
:100E600011242F933F934F935F936F937F938F93AF
:100E70009F93AF93BF93EF93FF930E949306FF91CD
:100E8000EF91BF91AF919F918F917F916F915F9102
:100E90004F913F912F910F900FBE0F901F9018957B
:100EA0001F920F920FB60F9211242F933F934F93DF
:100EB0005F936F937F938F939F93AF93BF93EF93C2
:100EC000FF930E949306FF91EF91BF91AF919F9185
:100ED0008F917F916F915F914F913F912F910F90E3
:100EE0000FBE0F901F9018951F920F920FB60F9282
:100EF00011248F938091A0038F5F8093A0038F9123
:100F00000F900FBE0F901F9018956115710579F025
:100F1000FB0101900020E9F73197AF01461B570B09
:100F2000DC01ED91FC910280F381E02D099480E0D9
:100F300090E008954F925F926F927F92BF92CF920E
:100F4000DF92EF92FF920F931F93CF93DF9300D026
:100F500000D01F92CDB7DEB7A89500E010E080E189
:100F6000D82E90E4C92E26E1B22ED982CA820B83F4
:100F700080E4800F8C83BD82BE016F5F7F4F8091C4
:100F80008501909186010E9485070E946C042B01C7
:100F90003C01E12CF12C0E946C04DC01CB01841992
:100FA0009509A609B7090A97A105B10508F5809129
:100FB000850190918601DC01ED91FC910084F18521
:100FC000E02D0995892B39F3809185019091860157
:100FD000DC01ED91FC910284F385E02D0995E1148B
:100FE000F10411F4853EE1F0BFEFEB1AFB0AD3CF19
:100FF0000233110549F00436110531F006391105A7
:1010000019F0083C110509F4A8950F5F1F4F011551
:1010100081E0180709F0A9CFA8958FEF9FEF01C0D5
:10102000C8010F900F900F900F900F90DF91CF910C
:101030001F910F91FF90EF90DF90CF90BF907F9026
:101040006F905F904F900895E091F303F091F40357
:101050000190F081E02D682F83EF93E00994809157
:101060000E07E0910F07F0911007F8949181982BEB
:1010700091832281982F909529232283A7E0B0E0C5
:101080001197F1F7218192239183A3E2B0E01197A8
:10109000F1F790817894EFECF0E03197F1F7982335
:1010A00081E009F480E0089590910E07E0910F0728
:1010B000F0911007392F309580FF13C0F8942281EA
:1010C000832F822382838181892B8183A3E2B0E0F5
:1010D0001197F1F78281982B9283789487ED90E0B5
:1010E00012C0F8942281832F822382838181892BED
:1010F0008183AFEFB0E01197F1F78281982B928353
:1011000078948FE090E00197F1F708950F931F9383
:10111000CF93DF93082FC8E0D0E011E081E0912F5A
:10112000902309F480E00E945408110F2197B1F731
:10113000F894E0910F07F0911007918180910E07CC
:10114000809598239183E0910F07F0911007928189
:10115000892382837894DF91CF911F910F91089515
:101160001F93CF93DF9385E50E948608CBEED3E0F3
:101170001C2F185F89910E9486081C13FBCFDF91FA
:10118000CF911F91089590910E07E0910F07F09174
:101190001007F8948181292F2095822381837894E8
:1011A0008DE743E050E0815021F1DA011197F1F72A
:1011B00030813923C1F3F894828182238283818133
:1011C000892B81837894ABE7B7E01197F1F7F89416
:1011D000818128232183A3E1B1E01197F1F7808178
:1011E000982381E009F080E07894E3E6F6E0319717
:1011F000F1F708958F929F92AF92BF920F931F9332
:10120000CF93DF93CDB7DEB7A1970FB6F894DEBFCB
:101210000FBECDBF19A2423008F44AE08E010F5D27
:101220001F4F842E912CA12CB12CA50194010E945A
:10123000831BE62FB901CA0101501109EA3014F4E9
:10124000E05D01C0E95CD801EC93232B242B252B16
:1012500061F7B80183EF93E00E948507A1960FB66E
:10126000F894DEBF0FBECDBFDF91CF911F910F91DC
:10127000BF90AF909F908F900895CF92DF92EF92A2
:10128000FF92CF93DF9397FF19C06B017C018DE232
:101290000E942408EC0166277727CB016C197D0991
:1012A0008E099F094AE00E94FA088C0F9D1FDF916A
:1012B000CF91FF90EF90DF90CF9008954AE0DF91BB
:1012C000CF91FF90EF90DF90CF900C94FA080F939E
:1012D0001F93CF93DF938C01C0E0D0E0F801EC0FB7
:1012E000FD1F6491662371F0E091F303F091F40324
:1012F0000190F081E02D83EF93E00995892B11F0A7
:101300002196ECCFCE01DF91CF911F910F910895DF
:101310004F925F926F927F928F929F92AF92BF9205
:10132000CF92DF92EF92FF926B017C01B42E9B0172
:10133000AC010E94551B882319F062E671E027C0BA
:1013400026013701E89477F82FEF3FEF4FE75FE78B
:10135000C301B2010E94551B81110DC02FEF3FEF59
:101360004FE75FE7C301B2010E943E1918161CF453
:1013700066E671E00CC02FEF3FEF4FE75FE4C70177
:10138000B6010E949D1A181694F46AE671E083EF84
:1013900093E0FF90EF90DF90CF90BF90AF909F9041
:1013A0008F907F906F905F904F900C9485072FEFF8
:1013B0003FEF4FE75FECC701B6010E943E1987FD82
:1013C000E4CF20E030E0A901C701B6010E943E1938
:1013D00087FF09C08DE20E9424084C01F7FAF094BF
:1013E000F7F8F09402C0812C912CA12C60E070E001
:1013F00080E09FE3AB1440F420E030E040E251E4B1
:101400000E944319A394F6CF9B01AC01C701B6011A
:101410000E94D2182B013C010E94BC196B017C0177
:101420000E94EB199B01AC01C301B2010E94D118CB
:101430002B013C014AE0C701B6010E94FA087C0179
:10144000E80CF91CBB2029F08EE20E942408E80E6B
:10145000F91EDB2CDD2021F120E030E040E251E4F8
:10146000C301B2010E94A21A2B013C010E94BC19C7
:101470004B01A12CB12C4AE0C501B4010E94FA082D
:10148000E80EF91EC501B4010E94EB199B01AC01E5
:10149000C301B2010E94D1182B013C01DA94DACFCA
:1014A000C701FF90EF90DF90CF90BF90AF909F90DB
:1014B0008F907F906F905F904F9008952F923F9202
:1014C0004F925F926F927F928F929F92AF92BF9254
:1014D000CF92DF92EF92FF920F931F93CF93DF9300
:1014E000CDB7DEB7A2970FB6F894DEBF0FBECDBF63
:1014F0009AA389A38EE480937C0062E070E080E090
:1015000090E00E94F10380917A00806480937A00D9
:1015100080917A0086FDFCCF80917800209179003F
:1015200030E0322F2227A901330F660B770B9A0187
:10153000AB01282B60E070E381E190E00E94A51BE5
:101540002D8B3E8B4F8B588F0E946C044B015C019E
:1015500069A07AA028E5620E711CA9A1BAA15496CF
:101560008C910E94B503F30191838083BC01990F94
:10157000880B990B0E94ED196B017C012DEC3CEC62
:101580004CE054E40E943E1987FF0BC011E026E6B0
:1015900036E646EE53E4C701B6010E949D1A1816BE
:1015A0000CF010E00E946C04DC01CB018819990951
:1015B000AA09BB09813D9740A105B10510F411238B
:1015C00061F20E946C04698B7A8B8B8B9C8B00E0A0
:1015D00010E01A82198229A13AA1205C3F4F3A8F6C
:1015E000298F49A15AA14C5B5F4F5C874B8789A12A
:1015F0009AA1885B9F4F9C8F8B8FA9A1BAA1A45BF6
:10160000BF4FBE87AD87E9A1FAA1E05BFF4FFE8F18
:10161000ED8F29A13AA12C5A3F4F388B2F8749A132
:101620005AA1465A5F4F5E834D8329A03AA05BE5DD
:10163000250E311C89A19AA1885A9F4F98A38F8F9C
:101640000E946C04DC01CB0129893A894B895C89B1
:10165000821B930BA40BB50B803D9740A105B105F0
:1016600008F4DAC04D895E89BA01550F880B990BD1
:101670000E94ED1920E030E04AE754E40E9443194B
:1016800020E030E040E85AE30E94A21A2B013C011E
:10169000A9A1BAA158962D913D914D915C915B976E
:1016A0000E94A21A4B015C01E981FA81BF0180E02E
:1016B00090E00E94EB196B017C0129A03AA0F4E4B0
:1016C0002F0E311C9B01AC01D1016D917D918D914B
:1016D0009C910E9443190E94151B9B01AC01C501FE
:1016E000B4010E94A21A69837A838B839C83E9A147
:1016F000FAA16487758786879787248D358D468DF7
:10170000578DC301B2010E94A21A2B013C0109A10D
:101710001AA1045B1F4FA7019601D8016D917D911D
:101720008D919C910E9443190E94151B9B01AC0155
:10173000C301B2010E94A21A6D837E838F839887B2
:10174000E9A1FAA1608B718B828B938BA30192012B
:10175000C501B4010E94A21AA9A0BAA0F4E5AF0E77
:10176000B11CD5012D913D914D915C910E94A21A21
:10177000A70196010E9443196B017C01E9A1FAA11E
:1017800060837183828393832D813E814F8158854D
:1017900069817A818B819C810E94A21A9B01AC0194
:1017A000A9A1BAA114966D937D938D939C931797DD
:1017B000C701B6010E944319E9A1FAA160877187A8
:1017C00082879387D1011D921D921D921C921397BF
:1017D000F8011082118212821382D5011D921D928E
:1017E0001D921C921397A2960FB6F894DEBF0FBEFF
:1017F000CDBFDF91CF911F910F91FF90EF90DF90C0
:10180000CF90BF90AF909F908F907F906F905F90A0
:101810004F903F902F900895E981FA813196FA8395
:10182000E983E9A1FAA184A595A5A6A5B7A580A7F6
:1018300091A7A2A7B3A784890E94B503A9A1BAA1C1
:1018400095969C938E93949756968C910E94B5038F
:101850003C01E9A1FAA197A386A324A135A13A8767
:101860002987B901330F880B990B0E94ED196B0181
:101870007C01A9A1BAA1D4968D909D90AD90BC9009
:10188000D797A50194010E94D11820E030E040E8EC
:101890005AE30E94A21A9B01AC01C501B4010E9447
:1018A000D2189B01AC01E9A1FAA164AB75AB86AB80
:1018B00097ABC701B6010E94D1184B015C01A9A1E9
:1018C000BAA19C966D937D938D939C939F97B30142
:1018D000770C880B990B0E94ED196B017C01E9A133
:1018E000FAA140AC51AC62AC73ACA30192010E946E
:1018F000D11820E030E040E85AE30E94A21A9B0190
:10190000AC01C301B2010E94D2189B01AC01A9A194
:10191000BAA1D8966D937D938D939C93DB97C70165
:10192000B6010E94D1186B017C01E9A1FAA160AB5C
:1019300071AB82AB93ABA5019401C501B4010E94C8
:10194000A21A9B01AC01A98DBA8D6D937D938D93E5
:101950009C931397EB85FC856081718182819381D3
:101960000E94D218AB85BC856D937D938D939C931B
:101970001397A7019601C701B6010E94A21A9B0105
:10198000AC01EB8DFC8D6083718382839383AD8585
:10199000BE856D917D918D919C910E94D218ED85AF
:1019A000FE856083718382839383A9A1BAA19896EF
:1019B0004D905D906D907C909B97A3019201C50125
:1019C000B4010E94D118E9A1FAA120A131A142A13C
:1019D00053A10E94A21A9B01AC01C301B2010E9453
:1019E000D218A9A1BAA1DC966D937D938D939C9397
:1019F000DF97A70196010E94A21A9B01AC01ED8D11
:101A0000FE8D6083718382839383AF85B8896D91E6
:101A10007D918D919C910E94D218EF85F889608309
:101A2000718382839383D1018C91ED81FE818083C8
:101A3000AF8DB8A18D919C91E985FA858E179F078E
:101A400024F4E1E0D101EC9302C0D1011C92E981C0
:101A5000FA81319729F4D1018C91ED81FE81808347
:101A6000AD81BE819C91F1018081981711F00F5FCB
:101A70001F4F0E31110508F0F5CDE2CD20919806EB
:101A80003091990635952795009709F03E5F309380
:101A90009906209398062091980630919906211571
:101AA000310551F040919A0650919B064F5F5F4F70
:101AB00050939B0640939A0640919A0650919B063C
:101AC0004A305105CCF120FF2FC0892B69F535959F
:101AD0002795332720958091940690919506AC0127
:101AE0004F5F5F4F4038510514F040E050E0609187
:101AF0009606709197064617570759F0880F991F59
:101B0000FC01EC56FA4F31832083509395064093A5
:101B1000940610929B0610929A06109299061092C3
:101B2000980681E090E0089510929B0610929A0624
:101B3000109299061092980680E090E00895CF9355
:101B4000DF9300D000D000D0CDB7DEB7789484B555
:101B5000826084BD84B5816084BD85B5826085BDA9
:101B600085B5816085BD80916E00816080936E0037
:101B70001092810080918100826080938100809129
:101B800081008160809381008091800081608093DA
:101B900080008091B10084608093B1008091B0009A
:101BA00081608093B00080917A00846080937A0095
:101BB00080917A00826080937A0080917A008160BF
:101BC00080937A0080917A00806880937A001092E6
:101BD000C10099E288E10FB6F894A895809360005F
:101BE0000FBE90936000E0910304F091040482E042
:101BF0008083E091FF03F09100041082E0910104E2
:101C0000F091020480E1808310920B04E0910704BC
:101C1000F091080486E08083E0910504F0910604C9
:101C2000808180618083E0910504F09106048081C9
:101C300088608083E0910504F091060480818068CB
:101C40008083E0910504F091060480818F7D80837C
:101C500080E090E8ACE6B0E08093CF019093D001B3
:101C6000A093D101B093D20182ED80937E0181E0F7
:101C70008093D40164E170E080E090E00E94F10381
:101C800086E495E0909301018093000180916900C2
:101C9000836080936900E89A2A9A229A2A9A84B1EA
:101CA0008C6284B980E58CBD8DB581608DBD6AEA9A
:101CB0008FEA0E9410058FE20E941F058A3AB9F749
:101CC00065E58FEA0E9410058FE20E941F058535A9
:101CD000B9F708E610E0F8018491882341F03196C5
:101CE000649180680E9410050E5F1F4FF4CF6091D1
:101CF0007E0181EB0E941005C090CF01D090D001F1
:101D0000E090D101F090D201B7018827992787E8A8
:101D10000E94100599278F2D7E2D6D2D88E80E9439
:101D200010056C2D89E80E94100584E080938001E5
:101D3000FF24F394F092D301109266021092650290
:101D4000812C912CA3E8AA2EA3E4BA2E80926902DA
:101D500090926A02A0926B02B0926C020AE919E9B1
:101D600029ED3FE3009371021093720220937302F6
:101D70003093740280E090E0A0E0B4E480938502A8
:101D800090938602A0938702B093880241E050E0CE
:101D9000509368024093670240E050E060EA71E4CB
:101DA00040936D0250936E0260936F0270937002C5
:101DB0008093890290938A02A0938B02B0938C0245
:101DC000109208021092070280920B0290920C026D
:101DD000A0920D02B0920E0200931302109314020F
:101DE00020931502309316028093270290932802C5
:101DF000A0932902B0932A0222E030E030930A0235
:101E00002093090240930F02509310026093110235
:101E10007093120280932B0290932C02A0932D02B8
:101E2000B0932E0264E670E080E090E00E94F1033F
:101E300081E290E00E94FF1B8C01DC0113961C9252
:101E40001E92129788EE93E0A0E0B0E0F801848340
:101E50009583A683B78381E191E091838083148A7F
:101E6000138A168A158A108E178A128E118E838D08
:101E70008E7F8D7F838F61E085E00E947903D8019A
:101E80005B966C91669561706F2585E00E942D03CD
:101E9000ECE3F2E0E491D8015096EC93E8E2F2E052
:101EA000E491F0E0EE0FFF1FE357FF4F859194910F
:101EB000F801928B818B60E084E00E947903D80165
:101EC0005B968C9181FD04C061E084E00E942D034B
:101ED00084E0F8018487EBE3F2E0E491D8011D96F9
:101EE000EC93E7E2F2E0E491F0E0EE0FFF1FE75E33
:101EF000FD4F85919491F8019787868788E0848FBC
:101F000080E8858F81E080A310938601009385018E
:101F100082E090E0978F868F128E118E108E178A36
:101F2000168A158A148A138A87E990E020E030E047
:101F3000FC01459155916591749140365940610578
:101F4000710551F54CE0429FC001439F900D112453
:101F5000FC01E556FF4F25913491D80154963C93EE
:101F60002E935397FC01E356FF4F25913491F801CE
:101F7000368B258BFC01E156FF4F25913491589605
:101F80003C932E935797FC01EF55FF4F8591949109
:101F9000F801928F818F07C02F5F3F4F0C962D3035
:101FA000310509F0C5CFD80157968D919C9158976E
:101FB000892B81F080916800846080936800809113
:101FC0006D00806180936D0059968D919C915A9718
:101FD0000E94B10580917001909171018017910765
:101FE00079F0F801838D8E7F838F8FB7F8941092EC
:101FF0006F0110926E0110937101009370018FBFF9
:10200000A8958091040190910501019609F45EC0A4
:10201000A89564E670E080E090E00E94F1031092E1
:1020200093051092920510929105109290051092CE
:10203000970610929606109295061092940680E9E3
:1020400094E090937501809374018BE294E09093F7
:10205000030180930201809169008C608093690084
:10206000E99A1092E5011092E6011092E7011092B0
:10207000E8011092DD011092DE011092DF01109252
:10208000E001A89586E696E6A6EABDE38093B10254
:102090009093B202A093B302B093B4028FE892EC93
:1020A000A5EFBCE38093B9029093BA02A093BB0260
:1020B000B093BC028BEE93E058E0252E280E60E131
:1020C000862E6EE0962EA12CB12CD0C003E010E03D
:1020D00080E1F82E90E4E92E2DEFD22E3DE3C32EC1
:1020E00046E1B42EF982EA82DB82CC82BD82BE0157
:1020F0006F5F7F4F80918501909186010E948507D7
:1021000064E670E080E090E00E94F1030E949A078C
:102110009093050180930401019609F079CF015055
:10212000110901F775CF80919A0690919B06892B32
:1021300009F0B3C010929B0610929A06109299066D
:1021400010929806809192059091930520919005A8
:10215000309191052817390709F0ABC080918001B3
:10216000843009F4CEC1853009F0FCC18091890129
:1021700020917F0190E0049630E0821793070CF0E5
:10218000ECC184E0809380010E9422058091890146
:10219000833408F053C680917C0190917D01892B96
:1021A00009F04CC68091880186FF4BC63091D4015E
:1021B0003F3109F446C6209188012F7181E090E0FB
:1021C000231302C080E090E091958195910990934E
:1021D000500380934F0380914F03909150030196D9
:1021E00009F0C3C18091510390915203A091530310
:1021F000B091540340913F035091400360914103DB
:10220000709142038C019D01041B150B260B370BAB
:10221000B901A801483456426105710508F0B1C101
:10222000209106012111ADC10E946C040091D501DD
:102230001091D6012091D7013091D801DC01CB015A
:10224000801B910BA20BB30B893E9340A105B105F6
:1022500058F00E946C046093D5017093D60180936E
:10226000D7019093D801A8950E944D020E946C045A
:1022700060935103709352038093530390935403DC
:102280000E94CC032091760130917701621B730B81
:10229000603571420CF456CF46CF809198069091EC
:1022A0009906892B09F446CF80E090E00E943E0D0C
:1022B000F4CF9C012F5F3F4F2038310514F020E010
:1022C00030E0880F991FFC01E057FB4F008111811E
:1022D000309393052093920510161106D4F0809147
:1022E0009A0690919B06892B49F410929B061092B6
:1022F0009A06109299061092980619C08091980635
:1023000090919906892B89F380E090E00E943E0D20
:10231000F5CF81E090E00E943E0D0130110539F0CB
:1023200080E090E00E943E0D01501109F6CF8091AF
:10233000960690919706209194063091950628175D
:10234000390709F40BCF9C012F5F3F4F203831052F
:1023500014F020E030E0880F991FFC01EC56FA4F92
:102360008081918130939706209396068F3FAFEF3F
:102370009A0709F4F3CE21E029831A8228E62B83F9
:1023800022E02C832091060730910707232B21F5AB
:10239000909109079093080790910A079093090775
:1023A00090910B0790930A0780930B0744E050E04D
:1023B00068E077E0CE0101960E94311D892B09F07B
:1023C000CDCE109205071092040781E090E0909323
:1023D000070780930607C2CE2091040730910507B6
:1023E0002836310560F4A9014F5F5F4F5093050710
:1023F00040930407F901E456F94F8083AFCE2836A5
:102400003105F9F48330B1F099279F938F938FE4CE
:1024100091E09F938F930E943E1D109205071092AA
:10242000040710920707109206070F900F900F9065
:102430000F9094CE89E690E090930507809304076F
:102440008DCEFE013196AE014B5F5F4F20E03191A2
:10245000230FE417F507D9F7ECE9F6E03191230FE4
:10246000B7E0E430FB07D1F72D5F822790E020E052
:1024700030E0009739F080FF02C02F5F3F4F959505
:102480008795F7CF22303105BCF500910C071091EC
:102490000D07E9ECF6E060E070E0CB01AAE0FA2E6F
:1024A000E1902E2D2F70D22EA4E6B0E09B01AC015E
:1024B0000E94CB1B2B013C014D0C511C611C711C5B
:1024C0004E2D50E064E0559547956A95E1F7F49EEE
:1024D000C001F59E900D1124092E000CAA0BBB0B18
:1024E000BC01CD01640D751D861D971D36E0EE3CC7
:1024F000F307B1F6F8010995109207071092060745
:102500002DCE1092890110927F0160917E018FEF94
:102510009FEF0E942E0590937D0180937C0187E8B8
:1025200091E090937B0180937A0185E08093800114
:1025300088E20E941F05807521F080E00E941F053F
:10254000F7CF60E885EA0E94100580E10E9422052D
:1025500062E08EE90E94100505C080917F018834F9
:1025600008F00FCE8FEF9FEF32CE80914F03909106
:102570005003892B09F036CE8091880187FF64C40F
:1025800031CEA89580933F0390934003A0934103DD
:10259000B093420310920601F12CEE24E394809153
:1025A0001B07811104C00E94C30881112AC0109228
:1025B000190710921B0710921A07F092260368EC75
:1025C00070E080E090E00E94F1038091040190911E
:1025D0000501181619060CF065C090E199839BE57A
:1025E0009A838B83855A8C8386E18D831E82BE01FC
:1025F0006F5F7F4F80918501909186010E948507D2
:1026000062C080EF0E94860801E0D12CC12C11E04D
:102610000E942F088E830E942F089E81913019F40A
:102620008130C1F435C02D2D30E098131DC080914C
:102630001907181738F4F901E25FF84F83818023F6
:1026400049F402C0181731F090E0193060F410938B
:102650001A0709C0ED2DF0E0E25FF84F8381802B6F
:10266000838391E009C0C12EF901E25FF84F238115
:10267000802F809582238383892F0E9454081F5FB7
:10268000000F11F4D39401E087E08D1508F0C0CF5E
:10269000113408F48CCFC0921907C1109BC4E0928A
:1026A0001B0798C480912403909125030B975CF03D
:1026B0000E949A07909305018093040110922503CC
:1026C00010922403A89510922303109222030E94D3
:1026D0006C046B017C010E946C04DC01CB018C1941
:1026E0009D09AE09BF09883E9340A105B10508F0D8
:1026F00051C08091850190918601DC01ED91FC91A2
:102700000084F185E02D0995892B29F380918501BD
:1027100090918601DC01ED91FC910284F385E02D1E
:1027200009952091220330912303A9014F5F5F4F48
:102730005093230340932203F901E254FD4F808319
:102740008091BE02883621F010922303109222035A
:102750008091220390912303039769F48091BF0233
:102760009091C002891303C08093BD0204C01092EF
:102770002303109222038091220390912303833636
:10278000910509F0A8CF109223031092220333245D
:1027900033940AC08091240390912503019690936D
:1027A000250380932403312C68EC70E080E090E0F6
:1027B0000E94F103A89568EC70E080E090E00E9430
:1027C000F10304E610E0412C512C3201C12CD12C34
:1027D000760183E00E94B503092E000CAA0BBB0B07
:1027E000C80ED91EEA1EFB1E84E00E94B503092E06
:1027F000000CAA0BBB0B480E591E6A1E7B1E015013
:10280000110939F7C301B20124E630E040E050E09D
:102810000E94831BB901330F880B990B0E94ED199D
:1028200020E030EC4FE754E40E94431923E333E304
:1028300043E550E40E94A21A2B013C01C701B601F6
:1028400024E630E040E050E00E94831BB901330FE2
:10285000880B990B0E94ED1920E030EC4FE754E40F
:102860000E94431923E333E343E550E40E94A21A94
:1028700020E030E040E05FE30E94D1182091B902EF
:102880003091BA024091BB025091BC020E944319A0
:102890006B017C0120E030E0A9010E943E1987FD18
:1028A00009C0C092B502D092B602E092B702F0928F
:1028B000B80208C01092B5021092B6021092B70288
:1028C0001092B80220E030E040E85EE3C301B201BC
:1028D0000E94D1182091B1023091B2024091B3020E
:1028E0005091B4020E9443196B017C0120E030E05A
:1028F000A9010E943E1987FD09C0C092AD02D09285
:10290000AE02E092AF02F092B00208C01092AD02A7
:102910001092AE021092AF021092B0022DEC3CEC7D
:102920004CEC5EE3C301B2010E943E1987FF08C070
:102930001092AD021092AE021092AF021092B0024D
:10294000A8950AE010E080E00E94B50381E00E94B3
:10295000B50382E00E94B50301501109A1F768ECAC
:1029600070E080E090E00E94F10381E592E00E9437
:102970005E0A6091510270915202809153029091CF
:1029800054020E94B5197093500260934F0283EF76
:1029900091E00E945E0A6091F3017091F4018091D0
:1029A000F5019091F6010E94B5197093F2016093C0
:1029B000F1010E946C042091ED013091EE017B0148
:1029C000E21AF30A0E946C046093ED017093EE0129
:1029D0008093EF019093F001409051025090520289
:1029E000609053027090540220E030E0A901C301CE
:1029F000B2010E949D1A18160CF047C01E141F0445
:102A00000CF043C0B7010F2C000C880B990B0E94EF
:102A1000ED199B01AC01C301B2010E94A21A2FE67D
:102A200032E143E85AE30E94A21A0E94B5190091CC
:102A3000E9011091EA012091EB013091EC01600F66
:102A4000711F821F931FA50194010E94A51B409036
:102A5000E5015090E6016090E7017090E80189017E
:102A60009A01040D151D261D371D0093E5011093D5
:102A7000E6012093E7013093E8016093E901709348
:102A8000EA018093EB019093EC014090F3015090A8
:102A9000F4016090F5017090F60120E030E0A901AA
:102AA000C301B2010E949D1A18160CF046C01E14F4
:102AB0001F040CF042C0B701FF0C880B990B0E9459
:102AC000ED199B01AC01C301B2010E94A21A2FE6CD
:102AD00032E143E85AE30E94A21A0E94B51900911C
:102AE000E1011091E2012091E3013091E401600FD6
:102AF000711F821F931FA50194010E94A51BC09006
:102B0000DD01D090DE01E090DF01F090E00189016D
:102B10009A010C0D1D1D2E1D3F1D0093DD0110930C
:102B2000DE012093DF013093E0016093E1017093B7
:102B3000E2018093E3019093E401A8958091D9018B
:102B40009091DA01A091DB01B091DC010196A11D09
:102B5000B11D8093D9019093DA01A093DB01B0936A
:102B6000DC018FEB91E00E9467096091D9017091BF
:102B7000DA018091DB019091DC014AE00E94FA08C1
:102B800086EB91E00E94670960914F0270915002BC
:102B9000072E000C880B990B0E943D098DEA91E0ED
:102BA0000E9467096091F1017091F201072E000CFB
:102BB000880B990B0E943D0982EA91E00E94670907
:102BC0006091E5017091E6018091E7019091E80143
:102BD0000E943D0987E991E00E9467096091DD014B
:102BE0007091DE018091DF019091E0010E943D092A
:102BF0008DE891E00E9467096091B5027091B6027C
:102C00008091B7029091B80242E050E00E9488099A
:102C100083E891E00E9467096091AD027091AE0275
:102C20008091AF029091B00242E050E00E9488098A
:102C3000F7E34F2EF3E05F2E07E213E0612C712CD7
:102C40008091260390E068167906E4F5D801CD90CE
:102C5000DD90ED90FC9020E030E048E452ECC701BC
:102C6000B6010E949D1A181624F520E030E040EAD3
:102C700052E4C701B6010E943E1987FF1AC080E8DE
:102C800091E00E946709F20160817181072E000CBA
:102C9000880B990B0E943D098EE791E00E9467091D
:102CA000D8016D917D918D919C9142E050E00E9400
:102CB0008809BFEF6B1A7B0AE2E04E0E511C0C5FD5
:102CC0001F4FBECF332009F490C086E791E00E94E9
:102CD00067098091D9026091DA0270E0762F662749
:102CE000680F711D072E000C880B990B0E943D097F
:102CF0008CE691E00E9467098091EB026091EC0202
:102D000070E0762F6627680F711D072E000C880B68
:102D1000990B0E94ED192AE037ED43E25CE30E9433
:102D2000A21A42E050E00E94880980E691E00E94E9
:102D300067098091F1026091F20270E0762F6627B8
:102D4000680F711D072E000C880B990B0E94ED195E
:102D50002AE037ED43E25CE30E94A21A42E050E031
:102D60000E94880985E591E00E9467098091F70239
:102D70006091F80270E0762F6627680F711D072EAC
:102D8000000C880B990B0E94ED192AE037ED43E205
:102D90005CE30E94A21A42E050E00E9488098CE4A1
:102DA00091E00E9467098091FD02A091FE02B0E0CF
:102DB000BA2FAA27A80FB11D24E630E00E94C41B39
:102DC0000E943D098FE391E00E9467098091090309
:102DD00060910A0370E0762F6627680F711D072E39
:102DE000000C880B990B0E943D0980918101909104
:102DF0008201A0918301B0918401181619061A0668
:102E00001B0674F483E391E00E94670960918101DD
:102E10007091820180918301909184010E943D090B
:102E200069E571E083EF93E00E94850764E670E056
:102E300080E090E00E94F103A895F6C981E090E05F
:102E4000C6C980E090E0C3C9809188018F7160900D
:102E50008901873109F07CC00CE0601279C08CE0F8
:102E6000EAE8F1E0A3E4B3E001900D928A95E1F77E
:102E700083EF91E00E9467096091430370914403DE
:102E8000072E000C880B990B0E94ED192DEC3CECE1
:102E90004CEC5DE30E94A21A41E050E00E948809D8
:102EA00087EE91E00E9467096091450370914603A7
:102EB000072E000C880B990B0E94ED192DEC3CECB1
:102EC0004CEC5DE30E94A21A41E050E00E948809A8
:102ED0008AED91E00E946709609147037091480371
:102EE000072E000C880B990B0E94ED192DEC3CEC81
:102EF0004CEC5DE30E94A21A41E050E00E94880978
:102F00008EEC91E00E9467096091490370914A0339
:102F1000072E000C880B990B0E94ED192DEC3CEC50
:102F20004CEC5DE30E94A21A41E050E00E94880947
:102F300084EC91E00E94670960914B0370914C030F
:102F400080914D0390914E034AE00E94FA083BC0E5
:102F5000712CC82ED12CE12CF12C7614A0F5872DE4
:102F600090E0FC01E557FE4F2081FC01E657FE4F43
:102F7000008110E0122B772031F06CE571E083EFD7
:102F800093E00E948507C701B6010E943D096EE5E6
:102F900071E083EF93E00E948507672D70E080E089
:102FA00090E04AE00E94FA0860E671E083EF93E067
:102FB0000E948507B801110F880B990B0E943D09EB
:102FC00073947394CACF69E571E083EF93E00E9434
:102FD000850708C980911107882309F4E8CAA1E18F
:102FE000B7E0EBEEF3E08D91819393E0E33FF907D7
:102FF000D1F7EBEEF3E080E090E0DC012191820F6D
:10300000911DA11DB11D2E12F9CF0F2D10E0F80159
:10301000EE0FFF1FE95CFC4F918380830E94C30881
:103020000E94B00884E40E9486086EEE72E080E0A0
:1030300090E00E94F1030E94C3080E94B0088EEB4A
:103040000E94860838E0632E712CCC24C394D12CC6
:103050000E942F088111DC28CC0C21E0621A710833
:10306000B9F7B8E06B2E712C55245394C12C0E94F3
:103070002F088111C528550C31E0631A7108B9F782
:103080006D2D70E07C29072E000C880B990B0E9497
:10309000ED1920E030E040E85DE30E94A21A000F45
:1030A000111F000F111FF801E95DFC4F6083718350
:1030B00082839383F39473CA1092F6031092F503FC
:1030C00088EE93E0A0E0B0E08093F7039093F803DC
:1030D000A093F903B093FA0383E291E09093F40391
:1030E0008093F30385EC90E0909300048093FF03BA
:1030F00084EC90E0909302048093010480EC90E0D3
:10310000909304048093030481EC90E09093060470
:103110008093050482EC90E0909308048093070468
:1031200086EC90E090930A048093090410920C04BA
:1031300010920D0410920E0410920F0460E083E1CF
:103140000E947903EAE4F2E0E491E0930E07E6E3FB
:10315000F2E0E491F0E0EE0FFF1FE75EFD4F859196
:1031600094919093100780930F0710921907109273
:103170001B0710921A07E9E1F7E0129287E0E131AC
:10318000F807D9F710920507109204071092070765
:10319000109206078AEC92E090930D0780930C073B
:1031A00008955058BB27AA270E94E9180C94631A67
:1031B0000E94551A38F00E945C1A20F039F49F3FA3
:1031C00019F426F40C94521A0EF4E095E7FB0C94D3
:1031D0004C1AE92F0E94741A58F3BA176207730742
:1031E0008407950720F079F4A6F50C94961A0EF44E
:1031F000E0950B2EBA2FA02D0B01B90190010C0107
:10320000CA01A0011124FF27591B99F0593F50F41E
:10321000503E68F11A16F040A22F232F342F442776
:10322000585FF3CF469537952795A795F04053956E
:10323000C9F77EF41F16BA0B620B730B840BBAF03E
:103240009150A1F0FF0FBB1F661F771F881FC2F7A9
:103250000EC0BA0F621F731F841F48F487957795BD
:103260006795B795F7959E3F08F0B0CF9395880F77
:1032700008F09927EE0F9795879508950E94281AD0
:1032800008F481E008950E9457190C94631A0E9473
:103290005C1A58F00E94551A40F029F45F3F29F05B
:1032A0000C944C1A51110C94971A0C94521A0E94B7
:1032B000741A68F39923B1F3552391F3951B550BB9
:1032C000BB27AA2762177307840738F09F5F5F4FF9
:1032D000220F331F441FAA1FA9F335D00E2E3AF038
:1032E000E0E832D091505040E695001CCAF72BD050
:1032F000FE2F29D0660F771F881FBB1F26173707A1
:103300004807AB07B0E809F0BB0B802DBF01FF27D2
:1033100093585F4F3AF09E3F510578F00C944C1A49
:103320000C94971A5F3FE4F3983ED4F38695779513
:103330006795B795F7959F5FC9F7880F911D96958B
:10334000879597F90895E1E0660F771F881FBB1FE7
:10335000621773078407BA0720F0621B730B840B94
:10336000BA0BEE1F88F7E09508950E94BC19689487
:10337000B1110C94971A08950E947C1A88F09F57F7
:1033800098F0B92F9927B751B0F0E1F0660F771F89
:10339000881F991F1AF0BA95C9F714C0B13091F07F
:1033A0000E94961AB1E008950C94961A672F782F10
:1033B0008827B85F39F0B93FCCF386957795679544
:1033C000B395D9F73EF490958095709561957F4FB0
:1033D0008F4F9F4F0895E89409C097FB3EF4909556
:1033E0008095709561957F4F8F4F9F4F9923A9F0DE
:1033F000F92F96E9BB279395F6958795779567956D
:10340000B795F111F8CFFAF4BB0F11F460FF1BC0B0
:103410006F5F7F4F8F4F9F4F16C0882311F096E943
:1034200011C0772321F09EE8872F762F05C06623F1
:1034300071F096E8862F70E060E02AF09A95660FAA
:10344000771F881FDAF7880F9695879597F9089563
:10345000990F0008550FAA0BE0E8FEEF16161706A5
:10346000E807F907C0F012161306E407F50798F00D
:10347000621B730B840B950B39F40A2661F0232B26
:10348000242B252B21F408950A2609F4A140A695A2
:103490008FEF811D811D089597F99F6780E870E087
:1034A00060E008959FEF80EC089500240A941616BA
:1034B000170618060906089500240A941216130622
:1034C000140605060895092E0394000C11F48823B0
:1034D00052F0BB0F40F4BF2B11F460FF04C06F5FCC
:1034E0007F4F8F4F9F4F089557FD9058440F551FA2
:1034F00059F05F3F71F04795880F97FB991F61F076
:103500009F3F79F087950895121613061406551FEC
:10351000F2CF4695F1DF08C0161617061806991F58
:10352000F1CF86957105610508940895E894BB274D
:1035300066277727CB0197F908950E94281A08F487
:103540008FEF08950E94B51A0C94631A0E94551AC1
:1035500038F00E945C1A20F0952311F00C944C1A5C
:103560000C94521A11240C94971A0E94741A70F336
:10357000959FC1F3950F50E0551F629FF001729F18
:10358000BB27F00DB11D639FAA27F00DB11DAA1F27
:10359000649F6627B00DA11D661F829F2227B00D74
:1035A000A11D621F739FB00DA11D621F839FA00DFF
:1035B000611D221F749F3327A00D611D231F849F4F
:1035C000600D211D822F762F6A2F11249F575040A6
:1035D0009AF0F1F088234AF0EE0FFF1FBB1F661F21
:1035E000771F881F91505040A9F79E3F510580F0EA
:1035F0000C944C1A0C94971A5F3FE4F3983ED4F362
:10360000869577956795B795F795E7959F5FC1F78D
:10361000FE2B880F911D9695879597F9089519F4BB
:1036200016F40C94521A0C945A1B0E947C1AB8F38C
:103630009923C9F3B6F39F57550B87FF0E94681B68
:103640000024A0E640EA900180585695979528F40A
:10365000805C660F771F881F20F026173707480702
:1036600030F4621B730B840B202931294A2BA69559
:1036700017940794202531254A2758F7660F771F9E
:10368000881F20F026173707480730F4620B730BAA
:10369000840B200D311D411DA09581F7B901842FA8
:1036A0009158880F9695879508950E94281A880B3F
:1036B000990B08959F3F31F0915020F487957795AD
:1036C0006795B795880F911D9695879597F90895F9
:1036D00091505040660F771F881FD2F7089597FBCF
:1036E000072E16F4009407D077FD09D00E94D61B50
:1036F00007FC05D03EF4909581959F4F08957095F5
:1037000061957F4F0895A1E21A2EAA1BBB1BFD01F4
:103710000DC0AA1FBB1FEE1FFF1FA217B307E407B0
:10372000F50720F0A21BB30BE40BF50B661F771F08
:10373000881F991F1A9469F76095709580959095E8
:103740009B01AC01BD01CF010895052E97FB1EF42E
:1037500000940E94BC1B57FD07D00E94831B07FCEE
:1037600003D04EF40C94BC1B509540953095219598
:103770003F4F4F4F5F4F089590958095709561959D
:103780007F4F8F4F9F4F08950E94F01BB7FF089502
:10379000821B930B08950E94F01BA59F900DB49F70
:1037A000900DA49F800D911D11240895AA1BBB1B91
:1037B00051E107C0AA1FBB1FA617B70710F0A61B31
:1037C000B70B881F991F5A95A9F780959095BC0152
:1037D000CD010895EE0FFF1F0590F491E02D09949F
:1037E000A29FB001B39FC001A39F700D811D112442
:1037F000911DB29F700D811D1124911D0895CF93CD
:10380000DF938230910510F482E090E0E0911E0792
:10381000F0911F0720E030E0C0E0D0E0309711F1D8
:103820004081518148175907C0F04817590761F482
:1038300082819381209719F09B838A832BC0909378
:103840001F0780931E0726C02115310519F0421766
:10385000530718F49A01BE01DF01EF010280F381E2
:10386000E02DDCCF2115310509F1281B390B24305F
:10387000310590F412968D919C9113976115710505
:1038800021F0FB019383828304C090931F078093F0
:103890001E07FD01329644C0FD01E20FF31F819324
:1038A0009193225031092D933C933AC020911C07EB
:1038B00030911D07232B41F42091090130910A0119
:1038C00030931D0720931C072091070130910801B8
:1038D0002115310541F42DB73EB740910B015091B0
:1038E0000C01241B350BE0911C07F0911D07E2171A
:1038F000F307A0F42E1B3F0B2817390778F0AC0113
:103900004E5F5F4F2417350748F04E0F5F1F5093EF
:103910001D0740931C078193919302C0E0E0F0E003
:10392000CF01DF91CF9108950F931F93CF93DF9332
:10393000009709F48CC0FC01329713821282009127
:103940001E0710911F070115110581F42081318197
:10395000820F931F20911C0730911D0728173907EC
:1039600079F5F0931D07E0931C0771C0D80140E082
:1039700050E0AE17BF0750F412962D913C9113976B
:10398000AD012115310509F1D901F3CF9D01DA010E
:103990003383228360817181860F971F821793077B
:1039A00069F4EC0128813981260F371F2E5F3F4FC4
:1039B000318320838A819B8193838283452B29F4E1
:1039C000F0931F07E0931E0742C01396FC93EE93FB
:1039D0001297ED01499159919E01240F351FE2176D
:1039E000F30771F480819181840F951F02961196DF
:1039F0009C938E938281938113969C938E931297BE
:103A0000E0E0F0E0D80112968D919C911397009719
:103A100019F0F8018C01F6CF8D919C9198012E5FE1
:103A20003F4F820F931F20911C0730911D072817CD
:103A3000390769F4309729F410921F0710921E0776
:103A400002C01382128210931D0700931C07DF919E
:103A5000CF911F910F91089581E090E0F8940C941C
:103A60000920FB01DC0104C08D910190801921F433
:103A700041505040C8F7881B990B0895A0E0B0E072
:103A8000E4E4FDE10C94E21FAE014B5F5F4FFA01ED
:103A900061917191AF0180912207909123070E945B
:103AA000541DE2E00C94FE1FACE0B0E0EAE5FDE15D
:103AB0000C94D21F7C016B018A01FC0117821682D3
:103AC000838181FFBDC1CE0101964C01F701938135
:103AD000F60193FD859193FF81916F01882309F48D
:103AE000ABC1853239F493FD859193FF81916F01CC
:103AF000853229F4B70190E00E943C1FE7CF512C9A
:103B0000312C20E02032A0F48B3269F030F4803286
:103B100059F0833269F420612CC08D3239F0803342
:103B200039F4216026C02260246023C0286021C0AF
:103B300027FD27C030ED380F3A3078F426FF06C055
:103B4000FAE05F9E300D1124532E13C08AE0389E98
:103B5000300D1124332E20620CC08E3221F426FD4C
:103B60006BC1206406C08C3611F4206802C0883610
:103B700041F4F60193FD859193FF81916F018111CD
:103B8000C1CF982F9F7D9554933028F40C5F1F4F21
:103B9000FFE3F9830DC0833631F0833771F083354D
:103BA00009F05BC022C0F801808189830E5F1F4F3E
:103BB00044244394512C540115C03801F2E06F0E97
:103BC000711CF801A080B18026FF03C0652D70E054
:103BD00002C06FEF7FEFC5012C870E94311F2C01BF
:103BE00083012C852F77222E17C03801F2E06F0E4B
:103BF000711CF801A080B18026FF03C0652D70E024
:103C000002C06FEF7FEFC5012C870E94261F2C0199
:103C10002C852068222E830123FC1BC0832D90E07D
:103C200048165906B0F4B70180E290E00E943C1FAC
:103C30003A94F4CFF50127FC859127FE81915F012D
:103C4000B70190E00E943C1F31103A94F1E04F1A06
:103C500051084114510471F7E5C0843611F08936DA
:103C600039F5F80127FF07C0608171818281938156
:103C70000C5F1F4F08C060817181072E000C880BFC
:103C8000990B0E5F1F4F2F76722E97FF09C09095EC
:103C90008095709561957F4F8F4F9F4F2068722E52
:103CA0002AE030E0A4010E94741FA82EA81844C086
:103CB000853729F42F7EB22E2AE030E025C0F22F7E
:103CC000F97FBF2E8F36C1F018F4883579F0B4C073
:103CD000803719F0883721F0AFC02F2F2061B22E26
:103CE000B4FE0DC08B2D8460B82E09C024FF0AC01D
:103CF0009F2F9660B92E06C028E030E005C020E175
:103D000030E002C020E132E0F801B7FE07C0608178
:103D10007181828193810C5F1F4F06C06081718128
:103D200080E090E00E5F1F4FA4010E94741FA82E38
:103D3000A818FB2DFF777F2E76FE0BC0372D3E7F18
:103D4000A51450F474FE0AC072FC08C0372D3E7EE4
:103D500005C0BA2C372D03C0BA2C01C0B52C34FFD6
:103D60000DC0FE01EA0DF11D8081803311F4397E12
:103D700009C032FF06C0B394B39404C0832F867881
:103D800009F0B39433FD13C030FF06C05A2CB314AE
:103D900018F4530C5B18B32CB31468F4B70180E229
:103DA00090E03C870E943C1FB3943C85F5CFB31450
:103DB00010F43B1801C0312C34FF12C0B70180E36E
:103DC00090E03C870E943C1F3C8532FF17C031FDCC
:103DD00003C088E790E002C088E590E0B7010CC01E
:103DE000832F867859F031FF02C08BE201C080E258
:103DF00037FD8DE2B70190E00E943C1FA51438F416
:103E0000B70180E390E00E943C1F5A94F7CFAA9438
:103E1000F401EA0DF11D8081B70190E00E943C1F82
:103E2000A110F5CF332009F451CEB70180E290E024
:103E30000E943C1F3A94F6CFF7018681978102C019
:103E40008FEF9FEF2C96E2E10C94EE1FFC010590A2
:103E5000615070400110D8F7809590958E0F9F1F8C
:103E60000895FC016150704001900110D8F78095D1
:103E700090958E0F9F1F08950F931F93CF93DF93FD
:103E8000FB01238121FD03C08FEF9FEF28C022FF9C
:103E900016C046815781248135814217530744F467
:103EA000A081B1819D012F5F3F4F318320838C938F
:103EB000268137812F5F3F4F3783268310C0EB0168
:103EC000092F182F0084F185E02D0995892BE1F643
:103ED0008E819F8101969F838E83812F902FDF910A
:103EE000CF911F910F910895FA01AA27283051F11F
:103EF000203181F1E8946F936E7F6E5F7F4F8F4F1B
:103F00009F4FAF4FB1E03ED0B4E03CD0670F781F79
:103F1000891F9A1FA11D680F791F8A1F911DA11D5E
:103F20006A0F711D811D911DA11D20D009F4689497
:103F30003F912AE0269F11243019305D3193DEF63F
:103F4000CF010895462F4770405D4193B3E00FD0F5
:103F5000C9F7F6CF462F4F70405D4A3318F0495DE0
:103F600031FD4052419302D0A9F7EACFB4E0A695C3
:103F70009795879577956795BA95C9F700976105E5
:103F8000710508959B01AC010A2E0694579547953B
:103F900037952795BA95C9F7620F731F841F951F30
:103FA000A01D08952F923F924F925F926F927F9241
:103FB0008F929F92AF92BF92CF92DF92EF92FF9239
:103FC0000F931F93CF93DF93CDB7DEB7CA1BDB0BE5
:103FD0000FB6F894DEBF0FBECDBF09942A8839888A
:103FE00048885F846E847D848C849B84AA84B98491
:103FF000C884DF80EE80FD800C811B81AA81B9819D
:10400000CE0FD11D0FB6F894DEBF0FBECDBFED01B0
:064010000895F894FFCFB3
:1040160057025702FFFF010000260780000000003C
:1040260000B8055101C7027E028D02A50264020096
:10403600000000E40151017C012B02AD018B019FC0
:104046000100000000D3025101C702C602D302D309
:1040560002D30200000000D3025101C702C6026566
:1040660074783D253032580A000D0A002C005F0096
:0E4076003A006E616E00696E66006F7666003D
:107E0000112484B714BE81FFF0D085E080938100F7
:107E100082E08093C00088E18093C10086E0809377
:107E2000C20080E18093C4008EE0C9D0259A86E02C
:107E300020E33CEF91E0309385002093840096BBD3
:107E4000B09BFECF1D9AA8958150A9F7CC24DD24C4
:107E500088248394B5E0AB2EA1E19A2EF3E0BF2EE7
:107E6000A2D0813461F49FD0082FAFD0023811F036
:107E7000013811F484E001C083E08DD089C08234E0
:107E800011F484E103C0853419F485E0A6D080C0E4
:107E9000853579F488D0E82EFF2485D0082F10E0AE
:107EA000102F00270E291F29000F111F8ED06801E7
:107EB0006FC0863521F484E090D080E0DECF843638
:107EC00009F040C070D06FD0082F6DD080E0C81688
:107ED00080E7D80618F4F601B7BEE895C0E0D1E017
:107EE00062D089930C17E1F7F0E0CF16F0E7DF06D8
:107EF00018F0F601B7BEE89568D007B600FCFDCFD4
:107F0000A601A0E0B1E02C9130E011968C91119780
:107F100090E0982F8827822B932B1296FA010C0160
:107F200087BEE89511244E5F5F4FF1E0A038BF0790
:107F300051F7F601A7BEE89507B600FCFDCF97BE46
:107F4000E89526C08437B1F42ED02DD0F82E2BD052
:107F50003CD0F601EF2C8F010F5F1F4F84911BD097
:107F6000EA94F801C1F70894C11CD11CFA94CF0C13
:107F7000D11C0EC0853739F428D08EE10CD085E9AC
:107F80000AD08FE07ACF813511F488E018D01DD067
:107F900080E101D065CF982F8091C00085FFFCCF94
:107FA0009093C60008958091C00087FFFCCF809118
:107FB000C00084FD01C0A8958091C6000895E0E648
:107FC000F0E098E1908380830895EDDF803219F02E
:107FD00088E0F5DFFFCF84E1DECF1F93182FE3DFCA
:107FE0001150E9F7F2DF1F91089580E0E8DFEE27F6
:047FF000FF270994CA
:027FFE00040479
:0400000300007E007B
:00000001FF
