:100000000C94C3000C9485040C945E040C94EC06D0
:100010000C94C8060C94A4060C9431070C94EB00C5
:100020000C94EB000C94EB000C94EB000C94EB00A4
:100030000C94EB000C94EB000C94EB000C94EB0094
:100040000C9414040C94EB000C9497020C94710221
:100050000C94EB000C94EB000C94EB000C94EB0074
:100060000C94EB000C94EB00010402000302048AE0
:10007000050506C30B2019421E2C25802E902FAAA1
:10008000302D370038003C8F3D106F2000000000FD
:1000900000250028002B0000C20100010011001102
:1000A000000C0000E100000A0025002500210000EE
:1000B0009600001900390039003600127A00001F3E
:1000C000004600460044008070000022004D004DB4
:1000D000004A00004B0000360075007500720040B9
:1000E0003800004A009C009C0099008025000072A6
:1000F00000EC00EC00E900C0120000E900DA01DACF
:1001000001D70160090000D701B603B603B303B0FD
:10011000040000B3036E076E076B07580200006E01
:1001200007DC0EDC0ED80E2C010000DC0EC11DC158
:100130001DBE1D00000000240027002A0000000052
:100140000800020100000304070000000000000096
:100150000000000000230026002900040404040419
:100160000404040202020202020303030303030164
:10017000020408102040800102040810200102043B
:1001800008102000821711241FBECFEFD8E0DEBF79
:10019000CDBF12E0A0E0B1E0E4E5FEE302C00590CF
:1001A0000D92A833B107D9F727E0A8E3B2E001C068
:1001B0001D92AE3FB207E1F710E0C3ECD0E004C0FF
:1001C0002197FE010E94091BC23CD107C9F70E947A
:1001D000400D0C94281F0C940000CF92DF92EF92F8
:1001E000FF920F931F93CF93DF936C017A018B01E2
:1001F000C0E0D0E0CE15DF0589F0D8016D918D010A
:10020000D601ED91FC910190F081E02DC601099598
:10021000892B11F47E0102C02196ECCFC701DF913A
:10022000CF911F910F91FF90EF90DF90CF900895A5
:10023000FC01538D448D252F30E0842F90E0821BEC
:10024000930B541710F0CF96089501970895FC0171
:10025000918D828D981761F0828DDF01A80FB11DFD
:100260005D968C91928D9F5F9F73928F90E0089521
:100270008FEF9FEF0895FC01918D828D981731F0DB
:10028000828DE80FF11D858D90E008958FEF9FEF2F
:100290000895FC01918D228D892F90E0805C9F4F05
:1002A000821B91098F73992708958BEC94E00E942B
:1002B000490121E0892B09F420E0822F0895FC01F7
:1002C000848DDF01A80FB11DA35ABF4F2C91848DDF
:1002D00090E001968F739927848FA689B7892C9314
:1002E000A089B1898C9180648C93938D848D9813AF
:1002F00006C00288F389E02D80818F7D8083089578
:10030000EF92FF920F931F93CF93DF93EC0181E065
:10031000888F9B8D8C8D981305C0E889F989808121
:1003200085FD24C0F62E0B8D10E00F5F1F4F0F735D
:100330001127E02E8C8DE8120CC00FB607FCFACF07
:10034000E889F989808185FFF5CFCE010E945F01A0
:10035000F1CF8B8DFE01E80FF11DE35AFF4FF082C4
:100360000B8FEA89FB898081806207C0EE89FF8953
:100370006083E889F98980818064808381E090E0EE
:10038000DF91CF911F910F91FF90EF900895CF9340
:10039000DF93EC01888D8823C9F0EA89FB8980818D
:1003A00085FD05C0A889B9898C9186FD0FC00FB65F
:1003B00007FCF5CF808185FFF2CFA889B9898C91A0
:1003C00085FFEDCFCE010E945F01E7CFDF91CF9196
:1003D000089580E090E0892B29F00E945501811159
:1003E0000C94000008950895DC015196ED91FC9164
:1003F0005297908150968C9180958923808308959F
:1004000020913A0230913B022817390781F49091EC
:10041000380280913902981751F0E0913802F0E0EB
:10042000E758FB4F8081082E000C990B08958FEF41
:100430009FEF089520913A0230913B022817390727
:1004400039F48FB7F89410923902109238028FBFA6
:10045000089520913A0230913B022817390771F430
:10046000809139022091380290E0805C9F4F821B7E
:10047000910960E470E00E94951A089580E090E090
:10048000089520913A0230913B0228173907B9F4B8
:100490009091380280913902981789F0E0913802E2
:1004A000F0E0E758FB4F80812091380230E02F5F69
:1004B0003F4F2F7333272093380290E008958FEF3A
:1004C0009FEF0895089580E090E0089560934B02B7
:1004D00070934C0280934D0290934E0208950E94B7
:1004E0004B1C1F920F920FB60F9211242F933F9324
:1004F0004F935F936F937F938F939F93AF93BF932C
:10050000EF93FF938BEC94E00E945F01FF91EF91DA
:10051000BF91AF919F918F917F916F915F914F911B
:100520003F912F910F900FBE0F901F9018951F9223
:100530000F920FB60F9211242F938F939F93EF93E7
:10054000FF93E091DB04F091DC048081E091E10411
:10055000F091E20482FD12C090818091E4048F5FEB
:100560008F732091E504821751F0E091E404F0E0EC
:10057000E553FB4F958F8093E40401C08081FF9188
:10058000EF919F918F912F910F900FBE0F901F9021
:10059000189590E0FC01E35CFE4F3491FC01E159B9
:1005A000FE4F2491FC01E55AFE4FE491EE2309F43D
:1005B0003BC0332339F1333091F038F43130A9F0B6
:1005C000323001F584B58F7D12C0373091F038306C
:1005D000A1F03430B9F4809180008F7D03C0809108
:1005E00080008F77809380000DC084B58F7784BDA5
:1005F00009C08091B0008F7703C08091B0008F7DDB
:100600008093B000F0E0EE0FFF1FE357FF4FA5917E
:10061000B4918FB7F894EC91611103C020952E230B
:1006200001C02E2B2C938FBF0895CF93DF9390E0C2
:10063000FC01E159FE4F2491FC01E55AFE4F8491E3
:10064000882361F190E0880F991FFC01ED5CFE4F5B
:10065000C591D491FC01E357FF4FA591B49161116D
:1006600009C09FB7F8948881209582238883EC91F4
:100670002E230BC0623061F49FB7F8943881822F2B
:10068000809583238883EC912E2B2C939FBF06C0EB
:100690008FB7F894E8812E2B28838FBFDF91CF91FD
:1006A00008958E3008F08E508770806480937C00AF
:1006B00080917A00806480937A0080917A0086FD30
:1006C000FCCF809178002091790090E0922B0895E2
:1006D0003FB7F8948091BF049091C004A091C104E9
:1006E000B091C20426B5A89B05C02F3F19F0019612
:1006F000A11DB11D3FBFBA2FA92F982F8827820FA8
:10070000911DA11DB11DBC01CD0142E0660F771FF7
:10071000881F991F4A95D1F708958F929F92AF92A3
:10072000BF92CF92DF92EF92FF926B017C010E9409
:1007300068034B015C01C114D104E104F104F1F040
:100740000E946803DC01CB0188199909AA09BB0939
:10075000883E9340A105B10570F321E0C21AD1088B
:10076000E108F10888EE880E83E0981EA11CB11CF8
:10077000C114D104E104F10419F7DDCFFF90EF902B
:10078000DF90CF90BF90AF909F908F900895CF93C0
:10079000DF93C0913E02D0913F022097B1F10E94B9
:1007A00068032091400230914102AB01421B530B80
:1007B00060934002709341028093420290934302FF
:1007C000CA0180539F4F60EA71E00E94951ADE01D2
:1007D000B3958D919C9111979C012F5F3F4F2038CD
:1007E000310514F020E030E0FE01EE5FFE4F408165
:1007F00051812417350749F0880F991FFE01E80F32
:10080000F91F718360832D933C93DF91CF910895FD
:100810002FB7F8946091BB047091BC048091BD0423
:100820009091BE042FBF08951F920F920FB60F92A2
:1008300011242F933F938F939F93AF93BF938091F6
:10084000BB049091BC04A091BD04B091BE04309152
:10085000BA0423E0230F2D3720F40196A11DB11D0A
:1008600005C026E8230F0296A11DB11D2093BA04EE
:100870008093BB049093BC04A093BD04B093BE04CA
:100880008091BF049091C004A091C104B091C204B2
:100890000196A11DB11D8093BF049093C004A09345
:1008A000C104B093C204BF91AF919F918F913F91CA
:1008B0002F910F900FBE0F901F9018951F920F92BF
:1008C0000FB60F9211242F933F934F935F936F9323
:1008D0007F938F939F93AF93BF93EF93FF93E09199
:1008E0000201F09103010995FF91EF91BF91AF9142
:1008F0009F918F917F916F915F914F913F912F9138
:100900000F900FBE0F901F9018951F920F920FB669
:100910000F9211242F933F934F935F936F937F9385
:100920008F939F93AF93BF93EF93FF93E091000159
:10093000F09101010995FF91EF91BF91AF919F91C6
:100940008F917F916F915F914F913F912F910F9078
:100950000FBE0F901F901895E8982A988EBD0DB481
:1009600007FEFDCF8EB56EBD0DB407FEFDCF8EB573
:100970002A9AE89A089560E00C94AC04CF93C82FAB
:1009800081E00E94BB04837E682F6C2B81E8CF91AD
:100990000C94AC048627682F62956827062E66950E
:1009A00066956025062E669560256770082E892F4E
:1009B000669507946795902D8627069467959025F0
:1009C00086270895CF9380914A02853009F054C05C
:1009D00060E485EA0E94AC0484E20E94BB04809338
:1009E000B9047894C8E488E20E94BB048075D9F306
:1009F0008091490281110FC0E0914402F0914502BB
:100A00008091490291E0980F909349029091480299
:100A1000E80FF11D908380E00E94BB04E091440246
:100A2000F09145029091490221E0290F209349025B
:100A3000E90FF11D8083682F809146029091470253
:100A40000E94CA0490934702809346028091B702A5
:100A5000833410F0C09349028091B702209149027B
:100A600090E0049630E082179307ACF08091490241
:100A7000883408F4B8CF0FC088E20E94BB0483FF1B
:100A80000AC084E080934A020E94BE0460E885EABE
:100A9000CF910C94AC04CF91089520E001972FEFF3
:100AA0008F3F9207D9F70895CF92DF92EF92FF928E
:100AB0000F931F93CF93DF93EC01298D3A8D21156E
:100AC000310529F481E090E09B838A83BEC0062F24
:100AD000EFB6F8948B8D81FDB1C0CE010E94F40178
:100AE000898D9A8D05960E944D0588E090E010E072
:100AF00020E8322F302309F01F5F26950197C9F7B0
:100B00008B8D98E0C92ED12CFF24F39481FF30C047
:100B10008D8D8F15B0F08F2D802321F0CE010E9496
:100B2000F40106C0E989FA8990818889892B80833C
:100B3000898D9A8D0E944D05FF0C81E0C81AD1085D
:100B400039F78E8D9F8D0097D9F45AC08F2D802351
:100B500099F0E989FA8990818889892B8083898D28
:100B60009A8D0E944D05FF0C81E0C81AD10849F307
:100B70008D8D8F1558F7E5CFCE010E94F401EFCF90
:100B80008230910521F48B8D10FF06C008C00197BB
:100B900071F48B8D10FF03C081FD03C008C081FD7F
:100BA00006C0E989FA8990818889892B80838E8D96
:100BB0009F8D8130910521F48B8D10FF06C008C0F8
:100BC000029759F48B8D10FF03C081FD03C005C04F
:100BD00081FD03C0CE010E94F4018E8D9F8D01978F
:100BE00079F410FF0DC08B8D81FD04C0CE010E94F1
:100BF000F40106C0E989FA8990818889892B80836C
:100C0000898D9A8D0E944D0512E08B8D81FF04C065
:100C1000CE010E94F40106C0E989FA899081888991
:100C2000892B8083113011F011E0EFCFEFBE898D59
:100C30009A8D0E944D0521E030E007C0E989FA89CC
:100C400090818889892B80834BCFC901DF91CF9117
:100C50001F910F91FF90EF90DF90CF900895EF924A
:100C6000FF920F931F93CF93DF93C0913A02D091DD
:100C70003B02209709F461C09B8DEE85FF858D8531
:100C800091FF04C09081892329F457C09081892362
:100C900009F053C08B899C890E944D0588E0E82E9D
:100CA000F12C10E001E08D8D8017A0F08D899E89D8
:100CB0000E944D05EE85FF8590818D85892311F079
:100CC000102B03C0802F80951823000F81E0E81AB5
:100CD000F10849F78E8D9F8D892B21F08F89988D92
:100CE0000E944D0500E088A1081730F48F89988D87
:100CF0000E944D050F5FF7CF8B8D81FD1095809180
:100D000039022091380290E001968F73992730E0E4
:100D10008217930779F0E0913902F0E0E758FB4F32
:100D200010838091390290E001968F739927809308
:100D3000390203C08B8D81608B8FDF91CF911F9122
:100D40000F91FF90EF9008951F920F920FB60F92A0
:100D500011242F933F934F935F936F937F938F93C0
:100D60009F93AF93BF93EF93FF930E942F06FF9142
:100D7000EF91BF91AF919F918F917F916F915F9113
:100D80004F913F912F910F900FBE0F901F9018958C
:100D90001F920F920FB60F9211242F933F934F93F0
:100DA0005F936F937F938F939F93AF93BF93EF93D3
:100DB000FF930E942F06FF91EF91BF91AF919F91FA
:100DC0008F917F916F915F914F913F912F910F90F4
:100DD0000FBE0F901F9018951F920F920FB60F9293
:100DE00011242F933F934F935F936F937F938F9330
:100DF0009F93AF93BF93EF93FF930E942F06FF91B2
:100E0000EF91BF91AF919F918F917F916F915F9182
:100E10004F913F912F910F900FBE0F901F901895FB
:100E20000F931F938B019C010E5F1F4F2F4F3F4F5E
:100E3000F801E15BFD4F2081DC01CB010396A11D90
:100E4000B11DFC01E15BFD4F608170E0762F6627EC
:100E5000620F711D072E000C880B990B1F910F91CB
:100E600008951F920F920FB60F9211248F938091C5
:100E700078048F5F809378048F910F900FBE0F904E
:100E80001F9018956115710579F0FB010190002004
:100E9000E9F73197AF01461B570BDC01ED91FC914F
:100EA0000280F381E02D099480E090E008954F9254
:100EB0005F926F927F92BF92CF92DF92EF92FF92FA
:100EC0000F931F93CF93DF9300D000D01F92CDB725
:100ED000DEB7A89500E010E080E1D82E90E4C92E9E
:100EE00026E1B22ED982CA820B8380E4800F8C83E4
:100EF000BD82BE016F5F7F4F8091B3029091B402BB
:100F00000E9442070E9408042B013C01E12CF12CB5
:100F10000E940804DC01CB0184199509A609B709D0
:100F20000A97A105B10508F58091B3029091B4022A
:100F3000DC01ED91FC910084F185E02D0995892B70
:100F400039F38091B3029091B402DC01ED91FC91F0
:100F50000284F385E02D0995E114F10411F4853E36
:100F6000E1F0BFEFEB1AFB0AD3CF0233110549F0D2
:100F70000436110531F00639110519F0083C110548
:100F800009F4A8950F5F1F4F011581E0180709F0BC
:100F9000A9CFA8958FEF9FEF01C0C8010F900F90C8
:100FA0000F900F900F90DF91CF911F910F91FF90B5
:100FB000EF90DF90CF90BF907F906F905F904F90B9
:100FC0000895E091CB04F091CC040190F081E02DE4
:100FD000682F8BEC94E009948091E607E091E70795
:100FE000F091E807F8949181982B91832281982FB2
:100FF000909529232283A7E0B0E01197F1F7218192
:1010000092239183A3E2B0E01197F1F79081789455
:10101000EFECF0E03197F1F7982381E009F480E0FC
:1010200008959091E607E091E707F091E807392FDE
:10103000309580FF13C0F8942281832F822382830E
:101040008181892B8183A3E2B0E01197F1F782813E
:10105000982B9283789487ED90E012C0F8942281C7
:10106000832F822382838181892B8183AFEFB0E03C
:101070001197F1F78281982B928378948FE090E01A
:101080000197F1F708950F931F93CF93DF93082FE4
:10109000C8E0D0E011E081E0912F902309F480E0D6
:1010A0000E941108110F2197B1F7F894E091E7071A
:1010B000F091E80791818091E607809598239183CC
:1010C000E091E707F091E807928189238283789481
:1010D000DF91CF911F910F9108951F93CF93DF93CD
:1010E00085E50E944308C3ECD4E01C2F185F89916A
:1010F0000E9443081C13FBCFDF91CF911F910895ED
:101100009091E607E091E707F091E807F894818174
:10111000292F20958223818378948DE743E050E046
:10112000815021F1DA011197F1F730813923C1F3B0
:10113000F8948281822382838181892B81837894B0
:10114000ABE7B7E01197F1F7F89481812823218369
:10115000A3E1B1E01197F1F78081982381E009F0D4
:1011600080E07894E3E6F6E03197F1F708958F9206
:101170009F92AF92BF920F931F93CF93DF93CDB700
:10118000DEB7A1970FB6F894DEBF0FBECDBF19A290
:10119000423008F44AE08E010F5D1F4F842E912CDF
:1011A000A12CB12CA50194010E94A91AE62FB90126
:1011B000CA0101501109EA3014F4E05D01C0E95C94
:1011C000D801EC93232B242B252B61F7B8018BEC52
:1011D00094E00E944207A1960FB6F894DEBF0FBEBE
:1011E000CDBFDF91CF911F910F91BF90AF909F9096
:1011F0008F900895CF92DF92EF92FF92CF93DF937B
:1012000097FF19C06B017C018DE20E94E107EC01A0
:1012100066277727CB016C197D098E099F094AE063
:101220000E94B7088C0F9D1FDF91CF91FF90EF9028
:10123000DF90CF9008954AE0DF91CF91FF90EF903B
:10124000DF90CF900C94B708BC018BEC94E00C9429
:1012500042074F925F926F927F928F929F92AF92CE
:10126000BF92CF92DF92EF92FF926B017C01B42E7E
:101270009B01AC010E947B1A882319F06BE272E09B
:1012800027C026013701E89477F82FEF3FEF4FE7AB
:101290005FE7C301B2010E947B1A81110DC02FEFDD
:1012A0003FEF4FE75FE7C301B2010E9464181816D1
:1012B0001CF46FE272E00CC02FEF3FEF4FE75FE4EA
:1012C000C701B6010E94C319181694F463E372E0D3
:1012D0008BEC94E0FF90EF90DF90CF90BF90AF90B9
:1012E0009F908F907F906F905F904F900C944207EB
:1012F0002FEF3FEF4FE75FECC701B6010E94641884
:1013000087FDE4CF20E030E0A901C701B6010E94CB
:10131000641887FF09C08DE20E94E1074C01F7FACB
:10132000F094F7F8F09402C0812C912CA12C60E08D
:1013300070E080E09FE3AB1440F420E030E040E256
:1013400051E40E946918A394F6CF9B01AC01C70138
:10135000B6010E94F8172B013C010E94E2186B01B4
:101360007C010E9411199B01AC01C301B2010E94D2
:10137000F7172B013C014AE0C701B6010E94B708EC
:101380007C01E80CF91CBB2029F08EE20E94E107E9
:10139000E80EF91EDB2CDD2021F120E030E040E2F8
:1013A00051E4C301B2010E94C8192B013C010E9403
:1013B000E2184B01A12CB12C4AE0C501B4010E94F6
:1013C000B708E80EF91EC501B4010E9411199B016E
:1013D000AC01C301B2010E94F7172B013C01DA9462
:1013E000DACFC701FF90EF90DF90CF90BF90AF9022
:1013F0009F908F907F906F905F904F9008952F9265
:101400003F924F925F926F927F928F929F92AF9294
:10141000BF92CF92DF92EF92FF920F931F93CF93E1
:10142000DF93CDB7DEB7A2970FB6F894DEBF0FBE3D
:10143000CDBF9AA389A38EE480937C0062E070E024
:1014400080E090E00E948D0380917A008064809318
:101450007A0080917A0086FDFCCF809178002091FF
:10146000790030E0322F2227A901330F660B770B6A
:101470009A01AB01282B60E070E381E190E00E94CB
:10148000CB1A2D8B3E8B4F8B588F0E9408044B013B
:101490005C0169A07AA028E5620E711CA9A1BAA11D
:1014A00054968C910E945103F30191838083BC0177
:1014B000990F880B990B0E9413196B017C012DEC7D
:1014C0003CEC4CE054E40E94641887FF0BC011E030
:1014D00026E636E646EE53E4C701B6010E94C3197C
:1014E00018160CF010E00E940804DC01CB018819EA
:1014F0009909AA09BB09813D9740A105B10510F4DE
:10150000112361F20E940804698B7A8B8B8B9C8B70
:1015100000E010E01A82198229A13AA1205C3F4F15
:101520003A8F298F49A15AA14C5B5F4F5C874B874B
:1015300089A19AA1885B9F4F9C8F8B8FA9A1BAA18B
:10154000A45BBF4FBE87AD87E9A1FAA1E05BFF4F67
:10155000FE8FED8F29A13AA12C5A3F4F388B2F8750
:1015600049A15AA1465A5F4F5E834D8329A03AA0F4
:101570005BE5250E311C89A19AA1885A9F4F98A33B
:101580008F8F0E940804DC01CB0129893A894B899D
:101590005C89821B930BA40BB50B803D9740A10582
:1015A000B10508F4DAC04D895E89BA01550F880B80
:1015B000990B0E94131920E030E04AE754E40E949E
:1015C000691820E030E040E85AE30E94C8192B0176
:1015D0003C01A9A1BAA158962D913D914D915C91E4
:1015E0005B970E94C8194B015C01E981FA81BF0138
:1015F00080E090E00E9411196B017C0129A03AA0C3
:10160000F4E42F0E311C9B01AC01D1016D917D9151
:101610008D919C910E9469180E943B1A9B01AC011C
:10162000C501B4010E94C81969837A838B839C83A6
:10163000E9A1FAA16487758786879787248D358D00
:10164000468D578DC301B2010E94C8192B013C0180
:1016500009A11AA1045B1F4FA7019601D8016D9142
:101660007D918D919C910E9469180E943B1A9B016B
:10167000AC01C301B2010E94C8196D837E838F83C0
:101680009887E9A1FAA1608B718B828B938BA30160
:101690009201C501B4010E94C819A9A0BAA0F4E53D
:1016A000AF0EB11CD5012D913D914D915C910E94E1
:1016B000C819A70196010E9469186B017C01E9A174
:1016C000FAA160837183828393832D813E814F8150
:1016D000588569817A818B819C810E94C8199B0100
:1016E000AC01A9A1BAA114966D937D938D939C939F
:1016F0001797C701B6010E946918E9A1FAA160878E
:10170000718782879387D1011D921D921D921C9231
:101710001397F8011082118212821382D5011D9253
:101720001D921D921C921397A2960FB6F894DEBFDD
:101730000FBECDBFDF91CF911F910F91FF90EF9022
:10174000DF90CF90BF90AF909F908F907F906F90E1
:101750005F904F903F902F900895E981FA813196E4
:10176000FA83E983E9A1FAA184A595A5A6A5B7A561
:1017700080A791A7A2A7B3A784890E945103A9A11A
:10178000BAA195969C938E93949756968C910E94AD
:1017900051033C01E9A1FAA197A386A324A135A195
:1017A0003A872987B901330F880B990B0E941319C7
:1017B0006B017C01A9A1BAA1D4968D909D90AD90AA
:1017C000BC90D797A50194010E94F71720E030E064
:1017D00040E85AE30E94C8199B01AC01C501B4015D
:1017E0000E94F8179B01AC01E9A1FAA164AB75ABAB
:1017F00086AB97ABC701B6010E94F7174B015C019E
:10180000A9A1BAA19C966D937D938D939C939F976C
:10181000B301770C880B990B0E9413196B017C01A3
:10182000E9A1FAA140AC51AC62AC73ACA301920146
:101830000E94F71720E030E040E85AE30E94C81900
:101840009B01AC01C301B2010E94F8179B01AC01DE
:10185000A9A1BAA1D8966D937D938D939C93DB97A4
:10186000C701B6010E94F7176B017C01E9A1FAA13B
:1018700060AB71AB82AB93ABA5019401C501B40120
:101880000E94C8199B01AC01A98DBA8D6D937D93FF
:101890008D939C931397EB85FC8560817181828188
:1018A00093810E94F817AB85BC856D937D938D93D2
:1018B0009C931397A7019601C701B6010E94C8190E
:1018C0009B01AC01EB8DFC8D6083718382839383DC
:1018D000AD85BE856D917D918D919C910E94F8178B
:1018E000ED85FE856083718382839383A9A1BAA16C
:1018F00098964D905D906D907C909B97A30192017E
:10190000C501B4010E94F717E9A1FAA120A131A1F4
:1019100042A153A10E94C8199B01AC01C301B201AD
:101920000E94F817A9A1BAA1DC966D937D938D93BF
:101930009C93DF97A70196010E94C8199B01AC01F7
:10194000ED8DFE8D6083718382839383AF85B8892B
:101950006D917D918D919C910E94F817EF85F8898A
:101960006083718382839383D1018C91ED81FE81A9
:101970008083AF8DB8A18D919C91E985FA858E17F2
:101980009F0724F4E1E0D101EC9302C0D1011C9245
:10199000E981FA81319729F4D1018C91ED81FE81A1
:1019A0008083AD81BE819C91F1018081981711F0F7
:1019B0000F5F1F4F0E31110508F0F5CDE2CD2091DC
:1019C00070073091710735952795009709F03E5FB4
:1019D0003093710720937007209170073091710741
:1019E0002115310551F040917207509173074F5FF7
:1019F0005F4F509373074093720740917207509165
:101A000073074A305105CCF120FF2FC0892B69F5AF
:101A1000359527953327209580916C0790916D0718
:101A2000AC014F5F5F4F4038510514F040E050E08B
:101A300060916E0770916F074617570759F0880F2E
:101A4000991FFC01E459F94F3183208350936D07AE
:101A500040936C07109273071092720710927107EF
:101A60001092700781E090E0089510927307109231
:101A70007207109271071092700780E090E008954D
:101A8000CF93DF93CDB7DEB728970FB6F894DEBFBC
:101A90000FBECDBF789484B5826084BD84B581606B
:101AA00084BD85B5826085BD85B5816085BD809129
:101AB0006E00816080936E001092810080918100A1
:101AC0008260809381008091810081608093810099
:101AD000809180008160809380008091B10084605B
:101AE0008093B1008091B00081608093B0008091BC
:101AF0007A00846080937A0080917A00826080937B
:101B00007A0080917A00816080937A0080917A00D7
:101B1000806880937A001092C10099E288E10FB644
:101B2000F894A895809360000FBE90936000E091B8
:101B3000DB04F091DC0482E08083E091D704F09133
:101B4000D8041082E091D904F091DA0480E1808316
:101B50001092E304E091DF04F091E00486E08083DA
:101B6000E091DD04F091DE04808180618083E0916A
:101B7000DD04F091DE04808188608083E091DD04E3
:101B8000F091DE04808180688083E091DD04F09133
:101B9000DE0480818F7D808380E090E8ACE6B0E059
:101BA0008093FD029093FE02A093FF02B093000386
:101BB00082ED8093480281E080930A0364E170E043
:101BC00080E090E00E948D0382EE94E0909301010A
:101BD0008093000180916900836080936900E89A96
:101BE0002A9A229A2A9A84B18C6284B980E58CBDA3
:101BF0008DB581608DBD6AEA8FEA0E94AC048FE2E8
:101C00000E94BB048A3AB9F765E58FEA0E94AC04EA
:101C10008FE20E94BB048535B9F708E610E0F801B1
:101C20008491882341F03196649180680E94AC04CD
:101C30000E5F1F4FF4CF6091480281EB0E94AC040D
:101C4000C090FD02D090FE02E090FF02F0900003F1
:101C5000B7018827992787E80E94AC0499278F2D20
:101C60007E2D6D2D88E80E94AC046C2D89E80E94C1
:101C7000AC0484E080934A02FF24F394F0920103C1
:101C80001092B2031092B103812C912CF3E8AF2E85
:101C9000F3E4BF2E8092B5039092B603A092B703EF
:101CA000B092B8030AE919E929ED3FE30093BD03B7
:101CB0001093BE032093BF033093C00380E090E0F5
:101CC000A0E0B4E48093D1039093D203A093D30314
:101CD000B093D40341E050E05093B4034093B30376
:101CE00040E050E060EA71E44093B9035093BA03D6
:101CF0006093BB037093BC038093D5039093D6038A
:101D0000A093D703B093D8031092540310925303B7
:101D10008092570390925803A0925903B0925A03AD
:101D200000935F0310936003209361033093620379
:101D30008093730390937403A0937503B093760319
:101D400022E030E0309356032093550340935B0329
:101D500050935C0360935D0370935E0380937703FD
:101D600090937803A0937903B0937A0364E670E0CC
:101D700080E090E00E948D0381E290E00E941E1BB3
:101D80008C01DC0113961C921E92129788EE93E050
:101D9000A0E0B0E0F80184839583A683B78381E156
:101DA00091E091838083148A138A168A158A108E93
:101DB000178A128E118E838D8E7F8D7F838F61E0C7
:101DC00085E00E941503D8015B966C916695617061
:101DD0006F2585E00E94C902E4E7F1E0E491D801B3
:101DE0005096EC93E0E6F1E0E491F0E0EE0FFF1F97
:101DF000E357FF4F85919491F801928B818B60E0BE
:101E000084E00E941503D8015B968C9181FD04C08B
:101E100061E084E00E94C90284E0F8018487E3E77E
:101E2000F1E0E491D8011D96EC93EFE5F1E0E49147
:101E3000F0E0EE0FFF1FEF5AFE4F85919491F801ED
:101E40009787868788E0848F80E8858F81E080A3EC
:101E50001093B4020093B30282E090E0978F868FD4
:101E6000128E118E108E178A168A158A148A138A7A
:101E700087E990E020E030E0FC01459155916591C3
:101E80007491403659406105710551F54CE0429F0F
:101E9000C001439F900D1124FC01E556FF4F259191
:101EA0003491D80154963C932E935397FC01E356FA
:101EB000FF4F25913491F801368B258BFC01E156BB
:101EC000FF4F2591349158963C932E935797FC01E0
:101ED000EF55FF4F85919491F801928F818F07C044
:101EE0002F5F3F4F0C962D30310509F0C5CFD8013B
:101EF00057968D919C915897892B81F0809168001D
:101F000084608093680080916D00806180936D0093
:101F100059968D919C915A970E944D0580913A0255
:101F200090913B028017910779F0F801838D8E7FA5
:101F3000838F8FB7F8941092390210923802109361
:101F40003B0200933A028FBFA895809104019091C3
:101F50000501019609F462C0A89564E670E080E08E
:101F600090E00E948D0310926B0610926A06109208
:101F700069061092680610926F0710926E07109211
:101F80006D0710926C0788E695E090933F0280936E
:101F90003E0287EC93E090930301809302018091CD
:101FA00069008C6080936900E99A10923103109265
:101FB00032031092330310923403109229031092CB
:101FC0002A0310922B0310922C03A89586E696E61E
:101FD000A6EABDE38093060390930703A09308034A
:101FE000B09309038FE892ECA5EFBCE38093020362
:101FF00090930303A0930403B09305031E0105E02F
:10200000200E311C83EC94E018E0180F1F8350E180
:10201000852E5EE0952EA12CB12CD0C003E010E0FF
:1020200080E1F82E90E4E92E2DEFD22E3DE3C32E71
:1020300046E1B42EF982EA82DB82CC82BD82BE0107
:102040006F5F7F4F8091B3029091B4020E9442076C
:1020500064E670E080E090E00E948D030E945707E4
:102060009093050180930401019609F075CF01500A
:10207000110901F771CF8091720790917307892B35
:1020800009F0B3C010927307109272071092710793
:102090001092700780916A0690916B0620916806F5
:1020A000309169062817390709F0ABC080914A02C0
:1020B000843009F4CBC1853009F0F9C18091B702B1
:1020C0002091490290E0049630E0821793070CF0CB
:1020D000E9C184E080934A020E94BE048091B70265
:1020E000833408F0D6C58091460290914702892B2F
:1020F00009F0CFC58091B60286FFCEC530910A03A4
:102100003F3109F4C9C52091B6022F7181E090E0FA
:10211000231302C080E090E09195819591099093FE
:102120002804809327048091270490912804019625
:1021300009F0C0C18091290490912A04A0912B0438
:10214000B0912C0440911704509118046091190427
:1021500070911A048C019D01041B150B260B370B83
:10216000B901A801483456426105710508F0AEC1B5
:10217000209106012111AAC10E94080400911303B5
:10218000109114032091150330911603DC01CB014B
:10219000801B910BA20BB30B893E9340A105B105A7
:1021A00058F00E9408046093130370931403809303
:1021B000150390931603A8950E94E9010E94080454
:1021C0006093290470932A0480932B0490932C0429
:1021D0000E9468032091400230914102621B730B00
:1021E000603571420CF456CF46CF809170079091C4
:1021F0007107892B09F446CF80E090E00E94DF0C44
:10220000F4CF9C012F5F3F4F2038310514F020E0C0
:1022100030E0880F991FFC01E859FA4F00811181C5
:1022200030936B0620936A0610161106D4F0809145
:10223000720790917307892B49F4109273071092DB
:102240007207109271071092700719C08091700781
:1022500090917107892B89F380E090E00E94DF0C58
:10226000F5CF81E090E00E94DF0C0130110539F0DC
:1022700080E090E00E94DF0C01501109F6CF8091C0
:102280006E0790916F0720916C0730916D072817AA
:10229000390709F40BCF9C012F5F3F4F20383105E0
:1022A00014F020E030E0880F991FFC01E459F94F49
:1022B0008081918130936F0720936E078F3FAFEF3E
:1022C0009A0709F4F3CE21E029831A8228E62B83AA
:1022D00022E02C832091DE073091DF07232B21F5AC
:1022E0009091E1079093E0079091E2079093E107C6
:1022F0009091E3079093E2078093E30744E050E076
:1023000060EE77E0CE0101960E94501C892B09F007
:10231000CDCE1092DD071092DC0781E090E0909323
:10232000DF078093DE07C2CE2091DC073091DD0706
:102330002836310560F4A9014F5F5F4F5093DD07E8
:102340004093DC07F901EC58F84F8083AFCE283674
:102350003105F9F48330B1F099279F938F938FE47F
:1023600091E09F938F930E945D1C1092DD07109265
:10237000DC071092DF071092DE070F900F900F908E
:102380000F9094CE89E690E09093DD078093DC0770
:102390008DCEFE01319620E03191230FE215F30539
:1023A000D9F7E4E7F7E03191230FB7E0EC3DFB0705
:1023B000D1F72D5F822790E020E030E0009739F0E0
:1023C00080FF02C02F5F3F4F95958795F7CF223052
:1023D0003105BCF50091E4071091E507E1EAF7E06B
:1023E00060E070E0CB01AAE0FA2EE1902E2D2F7074
:1023F000D22EA4E6B0E09B01AC010E94EA1A2B01A8
:102400003C014D0C511C611C711C4E2D50E064E0D0
:10241000559547956A95E1F7F49EC001F59E900D9C
:102420001124092E000CAA0BBB0BBC01CD01640DBD
:10243000751D861D971D37E0E63AF307B1F6F801E2
:1024400009951092DF071092DE0730CE1092B70286
:1024500010924902609148028FEF9FEF0E94CA04D8
:10246000909347028093460285EB92E09093450259
:102470008093440285E080934A0288E20E94BB0474
:10248000807521F080E00E94BB04F7CF60E885EA08
:102490000E94AC0480E10E94BE0462E08EE90E94CA
:1024A000AC0405C080914902883408F012CE8FEF49
:1024B0009FEF35CE8091270490912804892B09F055
:1024C00039CE8091B60287FFEAC334CEA8958093B7
:1024D000170490931804A0931904B0931A0410924F
:1024E0000601F12CEE24E3948091F307811104C0DE
:1024F0000E94800881112AC01092F1071092F30700
:102500001092F207F092FE0368EC70E080E090E039
:102510000E948D03809104019091050118161906FF
:102520000CF065C090E199839BE59A838B83855A73
:102530008C8386E18D831E82BE016F5F7F4F809109
:10254000B3029091B4020E94420762C080EF0E94E1
:10255000430801E0D12CC12C11E00E94EC078887D0
:102560000E94EC079885913019F48130C9F435C088
:10257000ED2DF0E098131EC08091F107181740F47C
:10258000DF01AA51B84F13968C91802349F402C001
:10259000181731F090E0193060F41093F20709C079
:1025A000ED2DF0E0EA51F84F8381802B838391E099
:1025B00008C0C12EEA51F84F2381802F80958223D5
:1025C0008383892F0E9411081F5F000F11F4D39499
:1025D00001E087E08D1508F0C0CF113408F48CCFEE
:1025E000C092F107C1101BC4E092F30718C4809198
:1025F000FC039091FD030B975CF00E9457079093AA
:102600000501809304011092FD031092FC03A8952C
:102610001092FB031092FA030E9408046B017C01E4
:102620000E940804DC01CB018C199D09AE09BF0989
:10263000883E9340A105B10508F050C08091B302D7
:102640009091B402DC01ED91FC910084F185E02DC4
:102650000995892B29F38091B3029091B402DC0192
:10266000ED91FC910284F385E02D09952091FA0308
:102670003091FB03F901E15BFD4F80832F5F3F4FFA
:102680003093FB032093FA0380914F02883621F0A8
:102690001092FB031092FA038091FA039091FB03CE
:1026A000039769F48091500290915102891303C0FD
:1026B0008093F90304C01092FB031092FA038091F7
:1026C000FA039091FB038336910509F0A9CF10928C
:1026D000FB031092FA0301E00E830AC08091FC0311
:1026E0009091FD0301969093FD038093FC031E825D
:1026F00068EC70E080E090E00E948D03A89568ECA3
:1027000070E080E090E00E948D0304E610E083E03A
:102710000E94510384E00E94510301501109B9F74E
:10272000A8950AE010E080E00E94510381E00E9439
:10273000510382E00E94510301501109A1F768EC96
:1027400070E080E090E00E948D038DE993E00E94AC
:10275000FF0960919D0370919E0380919F0390916A
:10276000A0030E94DB1870939C0360939B038FE38C
:1027700093E00E94FF0960913F03709140038091B4
:102780004103909142030E94DB1870933E036093D3
:102790003D030E9408042091390330913A038B01D4
:1027A000021B130B0E9408046093390370933A03D1
:1027B00080933B0390933C03C0909D03D0909E0375
:1027C000E0909F03F090A00320E030E0A901C70152
:1027D000B6010E94C31918160CF045C01016110658
:1027E0000CF041C0B801012E000C880B990B0E941F
:1027F00013199B01AC01C701B6010E94C8192FE64D
:1028000032E143E85AE30E94C8190E94DB18C090E5
:102810003503D0903603E0903703F09038036C0D09
:102820007D1D8E1D9F1DA50194010E94CB1AC09095
:102830003103D0903203E0903303F0903403C20EA2
:10284000D31EE41EF51EC0923103D0923203E092F3
:102850003303F0923403609335037093360380930F
:10286000370390933803C0903F03D0904003E0902B
:102870004103F090420320E030E0A901C701B60116
:102880000E94C31918160CF046C0101611060CF061
:1028900042C0B801110F880B990B0E9413199B01BC
:1028A000AC01C701B6010E94C8192FE632E143E826
:1028B0005AE30E94C8190E94DB1800912D03109161
:1028C0002E0320912F0330913003600F711F821F60
:1028D000931FA50194010E94CB1AC0902903D090A8
:1028E0002A03E0902B03F0902C0389019A010C0D30
:1028F0001D1D2E1D3F1D0093290310932A032093B5
:102900002B0330932C0360932D0370932E0380933D
:102910002F0390933003A89580912503909126036F
:10292000A0912703B09128030196A11DB11D8093AA
:10293000250390932603A0932703B093280387E9E8
:1029400091E00E94240960912503709126038091F3
:102950002703909128034AE00E94B7088CE991E090
:102960000E94240960919B0370919C03072E000C28
:10297000880B990B0E94FA0885EA91E00E942409CD
:1029800060913D0370913E03072E000C880B990B5C
:102990000E94FA088EEA91E00E94240960913103B6
:1029A0007091320380913303909134030E94FA08AE
:1029B00089EB91E00E9424096091290370912A0318
:1029C00080912B0390912C030E94FA0884EC91E0F3
:1029D0000E94240942E050E060E070E0CB010E94D8
:1029E00029098FEC91E00E94240960E070E0CB019E
:1029F0000E94FA088FE0C82E84E0D82E0FEF13E073
:102A0000E12CF12C8091FE0390E0E816F906E4F544
:102A1000D8014D905D906D907C9020E030E048E4CE
:102A200052ECC301B2010E94C319181624F520E02C
:102A300030E040EA52E4C301B2010E94641887FF0B
:102A40001AC08DED91E00E942409F6016081718128
:102A5000072E000C880B990B0E94FA0883EA91E07C
:102A60000E942409D8016D917D918D919C9142E045
:102A700050E00E942909BFEFEB1AFB0AE2E0CE0EFC
:102A8000D11C0C5F1F4FBECF0E81002309F4E5C09F
:102A900069E170E080E090E00E9410076093170306
:102AA000709318038093190390931A036FE170E0F9
:102AB00080E090E00E94100770931203609311036E
:102AC00065E270E080E090E00E94100770931003D0
:102AD00060930F036BE270E080E090E00E941007CB
:102AE000709324036093230361E370E080E090E03F
:102AF0000E941007709322036093210367E370E044
:102B000080E090E00E9410077093200360931F0301
:102B10006DE370E080E090E00E94100714E6169FDD
:102B20009001179F300D112430931C0320931B0339
:102B300063E470E080E090E00E941007169F90012F
:102B4000179F300D112430930E0320930D0369E479
:102B500070E080E090E00E94100770931E03609385
:102B60001D036FE470E080E090E00E941007709316
:102B70000C0360930B0380EE91E00E9424096091A6
:102B8000230370912403072E000C880B990B0E94DD
:102B900013192AE037ED43E25CE30E94C81942E0D2
:102BA00050E00E9429098AEE91E00E942409609178
:102BB000210370912203072E000C880B990B0E94B1
:102BC00013192AE037ED43E25CE30E94C81942E0A2
:102BD00050E00E94290986EF91E00E94240960914B
:102BE0001F0370912003072E000C880B990B0E9485
:102BF00013192AE037ED43E25CE30E94C81942E072
:102C000050E00E94290981E092E00E94240960912D
:102C10001D0370911E03072E000C880B990B0E9458
:102C2000FA088EE092E00E94240960911B037091E3
:102C30001C03072E000C880B990B0E94FA0887E1F1
:102C400092E00E942409609117037091180380910B
:102C5000190390911A030E94FA088FE192E00E94F2
:102C6000240960914B0270914C0280914D02909129
:102C70004E020E94FA0860E971E08BEC94E00E9439
:102C8000420764E670E080E090E00E948D03A89522
:102C900073CA81E090E043CA80E090E040CA80912E
:102CA000B6028F717090B702873109F07CC00CE0DA
:102CB000701279C08CE0E8EBF2E0ABE1B4E0019097
:102CC0000D928A95E1F789E591E00E9424096091CF
:102CD0001B0470911C04072E000C880B990B0E949A
:102CE00013192DEC3CEC4CEC5DE30E94C81941E05B
:102CF00050E00E94290981E691E00E942409609138
:102D00001D0470911E04072E000C880B990B0E9465
:102D100013192DEC3CEC4CEC5DE30E94C81941E02A
:102D200050E00E9429098DE691E00E9424096091FB
:102D30001F0470912004072E000C880B990B0E9431
:102D400013192DEC3CEC4CEC5DE30E94C81941E0FA
:102D500050E00E9429098AE791E00E9424096091CD
:102D6000210470912204072E000C880B990B0E94FD
:102D700013192DEC3CEC4CEC5DE30E94C81941E0CA
:102D800050E00E94290986E891E00E9424096091A0
:102D900023047091240480912504909126044AE034
:102DA0000E94B70835C0612CC82ED12CE12CF12C23
:102DB000671470F5862D90E0FC01E754FD4F2081EB
:102DC000FC01E854FD4F008110E0122B662021F039
:102DD00083E991E00E942409C701B6010E94FA0824
:102DE00085E991E00E942409662D70E080E090E082
:102DF0004AE00E94B70883EA91E00E942409B801E2
:102E0000110F880B990B0E94FA0863946394D0CF3A
:102E100060E971E08BEC94E00E9442078BC98091DD
:102E2000E907882309F468CBA9EEB7E0E3ECF4E006
:102E30008D91819394E0EB3CF907D1F7E3ECF4E05A
:102E400080E090E0DC012191820F911DA11DB11D58
:102E50000F810E13F8CF0F2D10E0F801EE0FFF1FBA
:102E6000E15FFB4F918380830E9480080E946D0880
:102E700084E40E9443086EEE72E080E090E00E94DD
:102E80008D030E9480080E946D088EEB0E9443080B
:102E900058E0652E712CCC24C394D12C0E94EC07F1
:102EA0008111DC28CC0C21E0621A7108B9F738E0F6
:102EB000632E712C55245394C12C0E94EC07811170
:102EC000C528550C31E0631A7108B9F76D2D70E013
:102ED0007C29072E000C880B990B0E94131920E007
:102EE00030E040E85DE30E94C819000F111F000F99
:102EF000111FF801E150FC4F60837183828393833B
:102F0000F394F2CA1092CE041092CD0488EE93E0AE
:102F1000A0E0B0E08093CF049093D004A093D104BC
:102F2000B093D20483E291E09093CC048093CB04DD
:102F300085EC90E09093D8048093D70484EC90E0E3
:102F40009093DA048093D90480EC90E09093DC04B1
:102F50008093DB0481EC90E09093DE048093DD04A9
:102F600082EC90E09093E0048093DF0486EC90E0A4
:102F70009093E2048093E1041092E4041092E5043B
:102F80001092E6041092E70460E083E10E941503CA
:102F9000E2E8F1E0E491E093E607EEE6F1E0E491A7
:102FA000F0E0EE0FFF1FEF5AFE4F85919491909342
:102FB000E8078093E7071092F1071092F307109249
:102FC000F207E1EFF7E0129287E0E93EF807D9F760
:102FD0001092DD071092DC071092DF071092DE07D7
:102FE00086E692E09093E5078093E40708955058B1
:102FF000BB27AA270E940F180C9489190E947B19DD
:1030000038F00E94821920F039F49F3F19F426F419
:103010000C9478190EF4E095E7FB0C947219E92FE3
:103020000E949A1958F3BA17620773078407950725
:1030300020F079F4A6F50C94BC190EF4E0950B2E53
:10304000BA2FA02D0B01B90190010C01CA01A001FA
:103050001124FF27591B99F0593F50F4503E68F155
:103060001A16F040A22F232F342F4427585FF3CF96
:10307000469537952795A795F0405395C9F77EF467
:103080001F16BA0B620B730B840BBAF09150A1F0B0
:10309000FF0FBB1F661F771F881FC2F70EC0BA0F36
:1030A000621F731F841F48F4879577956795B795BE
:1030B000F7959E3F08F0B0CF9395880F08F09927B9
:1030C000EE0F9795879508950E944E1908F481E0B8
:1030D00008950E947D180C9489190E94821958F055
:1030E0000E947B1940F029F45F3F29F00C9472197B
:1030F00051110C94BD190C9478190E949A1968F317
:103100009923B1F3552391F3951B550BBB27AA27A0
:1031100062177307840738F09F5F5F4F220F331FDA
:10312000441FAA1FA9F335D00E2E3AF0E0E832D0A2
:1031300091505040E695001CCAF72BD0FE2F29D0A5
:10314000660F771F881FBB1F261737074807AB0777
:10315000B0E809F0BB0B802DBF01FF2793585F4FEC
:103160003AF09E3F510578F00C9472190C94BD19F9
:103170005F3FE4F3983ED4F3869577956795B795CE
:10318000F7959F5FC9F7880F911D9695879597F9D9
:103190000895E1E0660F771F881FBB1F6217730752
:1031A0008407BA0720F0621B730B840BBA0BEE1F67
:1031B00088F7E09508950E94E2186894B1110C9484
:1031C000BD1908950E94A21988F09F5798F0B92F51
:1031D0009927B751B0F0E1F0660F771F881F991F4C
:1031E0001AF0BA95C9F714C0B13091F00E94BC1919
:1031F000B1E008950C94BC19672F782F8827B85F29
:1032000039F0B93FCCF3869577956795B395D9F7A3
:103210003EF490958095709561957F4F8F4F9F4FAD
:103220000895E89409C097FB3EF4909580957095B9
:1032300061957F4F8F4F9F4F9923A9F0F92F96E902
:10324000BB279395F695879577956795B795F11177
:10325000F8CFFAF4BB0F11F460FF1BC06F5F7F4F14
:103260008F4F9F4F16C0882311F096E911C0772326
:1032700021F09EE8872F762F05C0662371F096E82F
:10328000862F70E060E02AF09A95660F771F881FFE
:10329000DAF7880F9695879597F90895990F0008A2
:1032A000550FAA0BE0E8FEEF16161706E807F90718
:1032B000C0F012161306E407F50798F0621B730BB3
:1032C000840B950B39F40A2661F0232B242B252B34
:1032D00021F408950A2609F4A140A6958FEF811DD7
:1032E000811D089597F99F6780E870E060E0089578
:1032F0009FEF80EC089500240A941616170618060E
:103300000906089500240A941216130614060506E9
:103310000895092E0394000C11F4882352F0BB0F7A
:1033200040F4BF2B11F460FF04C06F5F7F4F8F4FDD
:103330009F4F089557FD9058440F551F59F05F3F18
:1033400071F04795880F97FB991F61F09F3F79F0C7
:1033500087950895121613061406551FF2CF469549
:10336000F1DF08C0161617061806991FF1CF8695CB
:103370007105610508940895E894BB2766277727AF
:10338000CB0197F908950E944E1908F48FEF089524
:103390000E94DB190C9489190E947B1938F00E9455
:1033A000821920F0952311F00C9472190C9478195D
:1033B00011240C94BD190E949A1970F3959FC1F3C2
:1033C000950F50E0551F629FF001729FBB27F00DD3
:1033D000B11D639FAA27F00DB11DAA1F649F662728
:1033E000B00DA11D661F829F2227B00DA11D621F77
:1033F000739FB00DA11D621F839FA00D611D221F31
:10340000749F3327A00D611D231F849F600D211D14
:10341000822F762F6A2F11249F5750409AF0F1F097
:1034200088234AF0EE0FFF1FBB1F661F771F881F00
:1034300091505040A9F79E3F510580F00C947219AD
:103440000C94BD195F3FE4F3983ED4F386957795CD
:103450006795B795F795E7959F5FC1F7FE2B880FA6
:10346000911D9695879597F9089519F416F40C9483
:1034700078190C94801A0E94A219B8F39923C9F301
:10348000B6F39F57550B87FF0E948E1A0024A0E6C3
:1034900040EA900180585695979528F4805C660F15
:1034A000771F881F20F026173707480730F4621B64
:1034B000730B840B202931294A2BA6951794079466
:1034C000202531254A2758F7660F771F881F20F0DF
:1034D00026173707480730F4620B730B840B200D57
:1034E000311D411DA09581F7B901842F9158880F96
:1034F0009695879508950E944E19880B990B08950B
:103500009F3F31F0915020F4879577956795B79557
:10351000880F911D9695879597F908959150504081
:10352000660F771F881FD2F7089597FB072E16F4B2
:10353000009407D077FD09D00E94F51A07FC05D04A
:103540003EF4909581959F4F0895709561957F4FBA
:103550000895A1E21A2EAA1BBB1BFD010DC0AA1FD4
:10356000BB1FEE1FFF1FA217B307E407F50720F0EC
:10357000A21BB30BE40BF50B661F771F881F991F67
:103580001A9469F760957095809590959B01AC01B0
:10359000BD01CF010895052E97FB1EF400940E94F3
:1035A000E21A57FD07D00E94A91A07FC03D04EF477
:1035B0000C94E21A50954095309521953F4F4F4F0E
:1035C0005F4F089590958095709561957F4F8F4FCF
:1035D0009F4F08950E940F1BA59F900DB49F900DC3
:1035E000A49F800D911D11240895AA1BBB1B51E1BE
:1035F00007C0AA1FBB1FA617B70710F0A61BB70B63
:10360000881F991F5A95A9F780959095BC01CD0107
:103610000895EE0FFF1F0590F491E02D0994A29FED
:10362000B001B39FC001A39F700D811D1124911D96
:10363000B29F700D811D1124911D0895CF93DF93CA
:103640008230910510F482E090E0E091F607F0916D
:10365000F70720E030E0C0E0D0E0309711F1408182
:10366000518148175907C0F04817590761F4828102
:103670009381209719F09B838A832BC09093F7073F
:103680008093F60726C02115310519F0421753071C
:1036900018F49A01BE01DF01EF010280F381E02DF1
:1036A000DCCF2115310509F1281B390B24303105F8
:1036B00090F412968D919C9113976115710521F0EC
:1036C000FB019383828304C09093F7078093F607EE
:1036D000FD01329644C0FD01E20FF31F81939193E7
:1036E000225031092D933C933AC02091F407309138
:1036F000F507232B41F42091090130910A01309301
:10370000F5072093F4072091070130910801211556
:10371000310541F42DB73EB740910B0150910C019A
:10372000241B350BE091F407F091F507E217F3073E
:10373000A0F42E1B3F0B2817390778F0AC014E5F21
:103740005F4F2417350748F04E0F5F1F5093F50762
:103750004093F4078193919302C0E0E0F0E0CF0141
:10376000DF91CF9108950F931F93CF93DF9300972D
:1037700009F48CC0FC013297138212820091F60783
:103780001091F7070115110581F420813181820F15
:10379000931F2091F4073091F5072817390779F521
:1037A000F093F507E093F40771C0D80140E050E0D2
:1037B000AE17BF0750F412962D913C911397AD01AF
:1037C0002115310509F1D901F3CF9D01DA013383C8
:1037D000228360817181860F971F8217930769F496
:1037E000EC0128813981260F371F2E5F3F4F31832F
:1037F00020838A819B8193838283452B29F4F093D4
:10380000F707E093F60742C01396FC93EE931297E6
:10381000ED01499159919E01240F351FE217F307DD
:1038200071F480819181840F951F029611969C936B
:103830008E938281938113969C938E931297E0E0EE
:10384000F0E0D80112968D919C911397009719F092
:10385000F8018C01F6CF8D919C9198012E5F3F4F1E
:10386000820F931F2091F4073091F507281739072D
:1038700069F4309729F41092F7071092F60702C006
:10388000138212821093F5070093F407DF91CF9112
:103890001F910F91089581E090E0F8940C94281FF7
:1038A000FB01DC0104C08D910190801921F441508D
:1038B0005040C8F7881B990B0895A0E0B0E0E3E6FC
:1038C000FCE10C94011FAE014B5F5F4FFA01619167
:1038D0007191AF018091FA079091FB070E94731CD0
:1038E000E2E00C941D1FACE0B0E0E9E7FCE10C94D1
:1038F000F11E7C016B018A01FC0117821682838113
:1039000081FFBDC1CE0101964C01F7019381F60103
:1039100093FD859193FF81916F01882309F4ABC1D9
:10392000853239F493FD859193FF81916F01853242
:1039300029F4B70190E00E945B1EE7CF512C312C97
:1039400020E02032A0F48B3269F030F4803259F05C
:10395000833269F420612CC08D3239F0803339F420
:10396000216026C02260246023C0286021C027FD7A
:1039700027C030ED380F3A3078F426FF06C0FAE061
:103980005F9E300D1124532E13C08AE0389E300DF7
:103990001124332E20620CC08E3221F426FD6BC11F
:1039A000206406C08C3611F4206802C0883641F4C9
:1039B000F60193FD859193FF81916F018111C1CF34
:1039C000982F9F7D9554933028F40C5F1F4FFFE391
:1039D000F9830DC0833631F0833771F0833509F0F8
:1039E0005BC022C0F801808189830E5F1F4F442491
:1039F0004394512C540115C03801F2E06F0E711C34
:103A0000F801A080B18026FF03C0652D70E002C0E0
:103A10006FEF7FEFC5012C870E94501E2C018301A0
:103A20002C852F77222E17C03801F2E06F0E711C03
:103A3000F801A080B18026FF03C0652D70E002C0B0
:103A40006FEF7FEFC5012C870E94451E2C012C854E
:103A50002068222E830123FC1BC0832D90E0481692
:103A60005906B0F4B70180E290E00E945B1E3A94E0
:103A7000F4CFF50127FC859127FE81915F01B70105
:103A800090E00E945B1E31103A94F1E04F1A510809
:103A90004114510471F7E5C0843611F0893639F5C7
:103AA000F80127FF07C060817181828193810C5FDB
:103AB0001F4F08C060817181072E000C880B990B85
:103AC0000E5F1F4F2F76722E97FF09C0909580953D
:103AD000709561957F4F8F4F9F4F2068722E2AE01F
:103AE00030E0A4010E94931EA82EA81844C0853778
:103AF00029F42F7EB22E2AE030E025C0F22FF97F84
:103B0000BF2E8F36C1F018F4883579F0B4C08037F5
:103B100019F0883721F0AFC02F2F2061B22EB4FEEC
:103B20000DC08B2D8460B82E09C024FF0AC09F2FC2
:103B30009660B92E06C028E030E005C020E130E0F4
:103B400002C020E132E0F801B7FE07C06081718158
:103B5000828193810C5F1F4F06C06081718180E07C
:103B600090E00E5F1F4FA4010E94931EA82EA8187C
:103B7000FB2DFF777F2E76FE0BC0372D3E7FA514E1
:103B800050F474FE0AC072FC08C0372D3E7E05C09A
:103B9000BA2C372D03C0BA2C01C0B52C34FF0DC090
:103BA000FE01EA0DF11D8081803311F4397E09C0D8
:103BB00032FF06C0B394B39404C0832F867809F013
:103BC000B39433FD13C030FF06C05A2CB31418F45D
:103BD000530C5B18B32CB31468F4B70180E290E087
:103BE0003C870E945B1EB3943C85F5CFB31410F460
:103BF0003B1801C0312C34FF12C0B70180E390E0C4
:103C00003C870E945B1E3C8532FF17C031FD03C01C
:103C100088E790E002C088E590E0B7010CC0832FF0
:103C2000867859F031FF02C08BE201C080E237FD97
:103C30008DE2B70190E00E945B1EA51438F4B70135
:103C400080E390E00E945B1E5A94F7CFAA94F4019F
:103C5000EA0DF11D8081B70190E00E945B1EA1106A
:103C6000F5CF332009F451CEB70180E290E00E94F5
:103C70005B1E3A94F6CFF7018681978102C08FEFE1
:103C80009FEF2C96E2E10C940D1FFC010590615012
:103C900070400110D8F7809590958E0F9F1F089562
:103CA000FC016150704001900110D8F7809590950B
:103CB0008E0F9F1F08950F931F93CF93DF93FB01E8
:103CC000238121FD03C08FEF9FEF28C022FF16C084
:103CD00046815781248135814217530744F4A081DE
:103CE000B1819D012F5F3F4F318320838C932681CB
:103CF00037812F5F3F4F3783268310C0EB01092F99
:103D0000182F0084F185E02D0995892BE1F68E812D
:103D10009F8101969F838E83812F902FDF91CF917A
:103D20001F910F910895FA01AA27283051F12031EF
:103D300081F1E8946F936E7F6E5F7F4F8F4F9F4F3F
:103D4000AF4FB1E03ED0B4E03CD0670F781F891F81
:103D50009A1FA11D680F791F8A1F911DA11D6A0F4F
:103D6000711D811D911DA11D20D009F468943F9102
:103D70002AE0269F11243019305D3193DEF6CF0101
:103D80000895462F4770405D4193B3E00FD0C9F7C7
:103D9000F6CF462F4F70405D4A3318F0495D31FD34
:103DA0004052419302D0A9F7EACFB4E0A695979587
:103DB000879577956795BA95C9F70097610571055D
:103DC00008959B01AC010A2E0694579547953795A7
:103DD0002795BA95C9F7620F731F841F951FA01D01
:103DE00008952F923F924F925F926F927F928F929F
:103DF0009F92AF92BF92CF92DF92EF92FF920F937A
:103E00001F93CF93DF93CDB7DEB7CA1BDB0B0FB683
:103E1000F894DEBF0FBECDBF09942A883988488840
:103E20005F846E847D848C849B84AA84B984C884D6
:103E3000DF80EE80FD800C811B81AA81B981CE0FCD
:103E4000D11D0FB6F894DEBF0FBECDBFED010895B2
:043E5000F894FFCF14
:103E5400F301F301FFFF010000FE078000000000F2
:103E6400005405ED0063021A022902410200020017
:103E74000000008001ED001801C701490127013B42
:103E840001000000006F02ED00630262026F026F26
:103E9400026F02000000006F02ED0063026202651F
:103EA40074783D253032580A00544874656D703A70
:103EB400002C544865787474656D703A002C54482D
:103EC40068756D69646974793A002C544862617448
:103ED400746572793A002C544870756C73653A00B5
:103EE4000D0A002C005F004D73673A002C4F454DBE
:103EF4006374313A002C4F454D6374323A002C4FB1
:103F0400454D63743157683A002C4F454D63743204
:103F140057683A002C564653666C6F77543A002C17
:103F2400564653666C6F77726174653A002C540080
:103F34002C4B53666C6F77543A002C4B5372657458
:103F440075726E543A002C4B5364656C7461543A28
:103F5400002C4B53666C6F77726174653A002C4B7E
:103F640053686561743A002C4B536B57683A002CC4
:103F740050756C7365495244413A006E616E006934
:083F84006E66006F7666000016
:00000001FF
