:100000000C942D010C94EF040C94C8040C94560726
:100010000C9432070C940E070C947A070C9455013B
:100020000C9455010C9455010C9455010C945501F8
:100030000C9455010C9455010C9455010C945501E8
:100040000C947E040C9455010C9401030C94DB0277
:100050000C9455010C9455010C9455010C945501C8
:100060000C9455010C945501010402000302048A0A
:10007000050506C30B2019421E2C25802E902FAAA1
:10008000302D370038003C8F3D106F2000000000FD
:1000900000250028002B0000C20100010011001102
:1000A000000C0000E100000A0025002500210000EE
:1000B0009600001900390039003600127A00001F3E
:1000C000004600460044008070000022004D004DB4
:1000D000004A00004B0000360075007500720040B9
:1000E0003800004A009C009C0099008025000072A6
:1000F00000EC00EC00E900C0120000E900DA01DACF
:1001000001D70160090000D701B603B603B303B0FD
:10011000040000B3036E076E076B07580200006E01
:1001200007DC0EDC0ED80E2C010000DC0EC11DC158
:100130001DBE1D2C50756C7365495244413A002C0C
:10014000534E58686561743A002C534E58666C6F74
:1001500077726174653A002C534E587265747572EB
:100160006E543A002C534E58666C6F77543A002CFC
:10017000534E58766F6C756D653A002C534E58652A
:100180006E657267793A002C534E586572726F72C1
:10019000733A002C534E587374617475733A003A75
:1001A000002C54002C4F454D63743257683A002C94
:1001B0004F454D63743157683A002C4F454D637479
:1001C000323A002C4F454D6374313A004D73673A13
:1001D000002C544870756C73653A002C5448626169
:1001E00074746572793A002C544868756D69646955
:1001F00074793A002C544865787474656D703A00CF
:10020000544874656D703A00000000002400270017
:100210002A0000000008000201000003040700009B
:10022000000000000000000000002300260029005C
:10023000040404040404040402020202020203038C
:100240000303030301020408102040800102040894
:1002500010200102040810208B1711241FBECFEFBD
:10026000D8E0DEBFCDBF11E0A0E0B1E0E6E6FEE3FE
:1002700002C005900D92A037B107D9F727E0A0E79B
:10028000B1E001C01D92AC3BB207E1F711E0CDE255
:10029000D1E004C02197FE010E94121BCC32D1078D
:1002A000C9F70E94590D0C94311F0C940000CF9295
:1002B000DF92EF92FF920F931F93CF93DF936C0126
:1002C0007A018B01C0E0D0E0CE15DF0589F0D801BE
:1002D0006D918D01D601ED91FC910190F081E02DA1
:1002E000C6010995892B11F47E0102C02196ECCF3D
:1002F000C701DF91CF911F910F91FF90EF90DF9099
:10030000CF900895FC01538D448D252F30E0842F2C
:1003100090E0821B930B541710F0CF96089501972D
:100320000895FC01918D828D981761F0828DDF0117
:10033000A80FB11D5D968C91928D9F5F9F73928FD8
:1003400090E008958FEF9FEF0895FC01918D828DCD
:10035000981731F0828DE80FF11D858D90E008959A
:100360008FEF9FEF0895FC01918D228D892F90E0F2
:10037000805C9F4F821B91098F739927089589E8AC
:1003800094E00E94B30121E0892B09F420E0822F40
:100390000895FC01848DDF01A80FB11DA35ABF4F42
:1003A0002C91848D90E001968F739927848FA68974
:1003B000B7892C93A089B1898C9180648C93938D9B
:1003C000848D981306C00288F389E02D80818F7D8B
:1003D00080830895EF92FF920F931F93CF93DF9343
:1003E000EC0181E0888F9B8D8C8D981305C0E88986
:1003F000F989808185FD24C0F62E0B8D10E00F5FFA
:100400001F4F0F731127E02E8C8DE8120CC00FB612
:1004100007FCFACFE889F989808185FFF5CFCE0105
:100420000E94C901F1CF8B8DFE01E80FF11DE35A47
:10043000FF4FF0820B8FEA89FB898081806207C0C1
:10044000EE89FF896083E889F989808180648083EF
:1004500081E090E0DF91CF911F910F91FF90EF909D
:100460000895CF93DF93EC01888D8823C9F0EA8942
:10047000FB89808185FD05C0A889B9898C9186FD9D
:100480000FC00FB607FCF5CF808185FFF2CFA8899A
:10049000B9898C9185FFEDCFCE010E94C901E7CFCC
:1004A000DF91CF91089580E090E0892B29F00E94A0
:1004B000BF0181110C94000008950895DC0151964C
:1004C000ED91FC915297908150968C918095892363
:1004D00080830895209172013091730128173907A4
:1004E00081F49091700180917101981751F0E09121
:1004F0007001F0E0EB5CFB4F8081082E000C990B43
:1005000008958FEF9FEF089520917201309173014C
:100510002817390739F48FB7F894109271011092A7
:1005200070018FBF089520917201309173012817D7
:10053000390771F4809171012091700190E0805C25
:100540009F4F821B910960E470E00E949E1A0895FB
:1005500080E090E008952091720130917301281796
:100560003907B9F49091700180917101981789F061
:10057000E0917001F0E0EB5CFB4F80812091700115
:1005800030E02F5F3F4F2F7333272093700190E0AF
:1005900008958FEF9FEF0895089580E090E008950B
:1005A0006093830170938401809385019093860109
:1005B00008950E94541C1F920F920FB60F9211249F
:1005C0002F933F934F935F936F937F938F939F935B
:1005D000AF93BF93EF93FF9389E894E00E94C90122
:1005E000FF91EF91BF91AF919F918F917F916F910B
:1005F0005F914F913F912F910F900FBE0F901F90E1
:1006000018951F920F920FB60F9211242F938F936C
:100610009F93EF93FF93E0919904F0919A04808166
:10062000E0919F04F091A00482FD12C0908180911E
:10063000A2048F5F8F732091A304821751F0E09181
:10064000A204F0E0E757FB4F958F8093A20401C00E
:100650008081FF91EF919F918F912F910F900FBE0D
:100660000F901F90189590E0FC01EE5EFD4F3491C5
:10067000FC01EC5BFD4F2491FC01E05DFD4FE4913A
:10068000EE2309F43BC0332339F1333091F038F4D1
:100690003130A9F0323001F584B58F7D12C037308A
:1006A00091F03830A1F03430B9F4809180008F7D22
:1006B00003C0809180008F77809380000DC084B547
:1006C0008F7784BD09C08091B0008F7703C080917F
:1006D000B0008F7D8093B000F0E0EE0FFF1FE35776
:1006E000FF4FA591B4918FB7F894EC91611103C0BD
:1006F00020952E2301C02E2B2C938FBF0895CF93CE
:10070000DF9390E0FC01EC5BFD4F2491FC01E05D88
:10071000FD4F8491882361F190E0880F991FFC01BF
:10072000E85FFD4FC591D491FC01E357FF4FA591C0
:10073000B491611109C09FB7F894888120958223F4
:100740008883EC912E230BC0623061F49FB7F8943C
:100750003881822F809583238883EC912E2B2C93D4
:100760009FBF06C08FB7F894E8812E2B28838FBFD8
:10077000DF91CF9108958E3008F08E50877080649D
:1007800080937C0080917A00806480937A008091CD
:100790007A0086FDFCCF809178002091790090E06E
:1007A000922B08953FB7F89480917B0490917C043C
:1007B000A0917D04B0917E0426B5A89B05C02F3F73
:1007C00019F00196A11DB11D3FBFBA2FA92F982F77
:1007D0008827820F911DA11DB11DBC01CD0142E0F2
:1007E000660F771F881F991F4A95D1F708958F923A
:1007F0009F92AF92BF92CF92DF92EF92FF926B01E6
:100800007C010E94D2034B015C01C114D104E104BC
:10081000F104F1F00E94D203DC01CB01881999099F
:10082000AA09BB09883E9340A105B10570F321E0F8
:10083000C21AD108E108F10888EE880E83E0981EFC
:10084000A11CB11CC114D104E104F10419F7DDCFDE
:10085000FF90EF90DF90CF90BF90AF909F908F90E0
:100860000895CF93DF93C0917601D09177012097BF
:10087000B1F10E94D2032091780130917901AB014E
:10088000421B530B609378017093790180937A0136
:1008900090937B01CA0180539F4F60EA71E00E94F0
:1008A0009E1ADE01B3958D919C9111979C012F5F4B
:1008B0003F4F2038310514F020E030E0FE01EE5FBC
:1008C000FE4F408151812417350749F0880F991F49
:1008D000FE01E80FF91F718360832D933C93DF9134
:1008E000CF9108952FB7F8946091770470917804B0
:1008F0008091790490917A042FBF08951F920F92EE
:100900000FB60F9211242F933F938F939F93AF9322
:10091000BF938091770490917804A0917904B0916D
:100920007A043091760423E0230F2D3720F40196CA
:10093000A11DB11D05C026E8230F0296A11DB11D02
:10094000209376048093770490937804A09379049D
:10095000B0937A0480917B0490917C04A0917D04F3
:10096000B0917E040196A11DB11D80937B049093EC
:100970007C04A0937D04B0937E04BF91AF919F91BE
:100980008F913F912F910F900FBE0F901F90189550
:100990001F920F920FB60F9211242F933F934F93F4
:1009A0005F936F937F938F939F93AF93BF93EF93D7
:1009B000FF93E0910201F09103010995FF91EF91FE
:1009C000BF91AF919F918F917F916F915F914F9167
:1009D0003F912F910F900FBE0F901F9018951F926F
:1009E0000F920FB60F9211242F933F934F935F9363
:1009F0006F937F938F939F93AF93BF93EF93FF93E7
:100A0000E0910001F09101010995FF91EF91BF91F3
:100A1000AF919F918F917F916F915F914F913F9196
:100A20002F910F900FBE0F901F901895E8982A985D
:100A30008EBD0DB407FEFDCF8EB56EBD0DB407FEA5
:100A4000FDCF8EB52A9AE89A089560E00C941605B9
:100A5000CF93C82F81E00E942505837E682F6C2BE1
:100A600081E8CF910C9416058627682F6295682738
:100A7000062E669566956025062E6695602567703C
:100A8000082E892F669507946795902D86270694E2
:100A90006795902586270895CF93809182018530B0
:100AA00009F054C060E485EA0E94160584E20E94C1
:100AB0002505809375047894C8E488E20E94250592
:100AC0008075D9F38091810181110FC0E0917C0183
:100AD000F0917D018091810191E0980F90938101C7
:100AE00090918001E80FF11D908380E00E94250520
:100AF000E0917C01F0917D019091810121E0290F2D
:100B000020938101E90FF11D8083682F80917E0180
:100B100090917F010E94340590937F0180937E0124
:100B200080918901833410F0C09381018091890103
:100B30002091810190E0049630E082179307ACF099
:100B400080918101883408F4B8CF0FC088E20E94F8
:100B5000250583FF0AC084E0809382010E94280556
:100B600060E885EACF910C941605CF91089520E0B6
:100B700001972FEF8F3F9207D9F70895CF92DF9219
:100B8000EF92FF920F931F93CF93DF93EC01298D88
:100B90003A8D2115310529F481E090E09B838A8309
:100BA000BEC0062FEFB6F8948B8D81FDB1C0CE018B
:100BB0000E945E02898D9A8D05960E94B70588E095
:100BC00090E010E020E8322F302309F01F5F2695D7
:100BD0000197C9F78B8D98E0C92ED12CFF24F3948F
:100BE00081FF30C08D8D8F15B0F08F2D802321F0C7
:100BF000CE010E945E0206C0E989FA899081888947
:100C0000892B8083898D9A8D0E94B705FF0C81E026
:100C1000C81AD10839F78E8D9F8D0097D9F45AC024
:100C20008F2D802399F0E989FA8990818889892B11
:100C30008083898D9A8D0E94B705FF0C81E0C81AC8
:100C4000D10849F38D8D8F1558F7E5CFCE010E945D
:100C50005E02EFCF8230910521F48B8D10FF06C02C
:100C600008C0019771F48B8D10FF03C081FD03C094
:100C700008C081FD06C0E989FA8990818889892B9D
:100C800080838E8D9F8D8130910521F48B8D10FF97
:100C900006C008C0029759F48B8D10FF03C081FD78
:100CA00003C005C081FD03C0CE010E945E028E8D8F
:100CB0009F8D019779F410FF0DC08B8D81FD04C0CD
:100CC000CE010E945E0206C0E989FA899081888976
:100CD000892B8083898D9A8D0E94B70512E08B8DB8
:100CE00081FF04C0CE010E945E0206C0E989FA8934
:100CF00090818889892B8083113011F011E0EFCF2A
:100D0000EFBE898D9A8D0E94B70521E030E007C0C3
:100D1000E989FA8990818889892B80834BCFC90121
:100D2000DF91CF911F910F91FF90EF90DF90CF90C7
:100D30000895EF92FF920F931F93CF93DF93C0918B
:100D40007201D0917301209709F461C09B8DEE85EB
:100D5000FF858D8591FF04C09081892329F457C0B8
:100D60009081892309F053C08B899C890E94B70523
:100D700088E0E82EF12C10E001E08D8D8017A0F0C6
:100D80008D899E890E94B705EE85FF8590818D85AE
:100D9000892311F0102B03C0802F80951823000F9A
:100DA00081E0E81AF10849F78E8D9F8D892B21F09B
:100DB0008F89988D0E94B70500E088A1081730F44C
:100DC0008F89988D0E94B7050F5FF7CF8B8D81FDBE
:100DD0001095809171012091700190E001968F73C0
:100DE000992730E08217930779F0E0917101F0E0E4
:100DF000EB5CFB4F10838091710190E001968F7343
:100E000099278093710103C08B8D81608B8FDF9157
:100E1000CF911F910F91FF90EF9008951F920F9225
:100E20000FB60F9211242F933F934F935F936F93BD
:100E30007F938F939F93AF93BF93EF93FF930E9402
:100E40009906FF91EF91BF91AF919F918F917F9103
:100E50006F915F914F913F912F910F900FBE0F9027
:100E60001F9018951F920F920FB60F9211242F9377
:100E70003F934F935F936F937F938F939F93AF9322
:100E8000BF93EF93FF930E949906FF91EF91BF915B
:100E9000AF919F918F917F916F915F914F913F9112
:100EA0002F910F900FBE0F901F9018951F920F92C9
:100EB0000FB60F9211242F933F934F935F936F932D
:100EC0007F938F939F93AF93BF93EF93FF930E9472
:100ED0009906FF91EF91BF91AF919F918F917F9173
:100EE0006F915F914F913F912F910F900FBE0F9097
:100EF0001F9018951F920F920FB60F9211248F9387
:100F0000809134048F5F809334048F910F900FBED3
:100F10000F901F9018956115710579F0FB010190F4
:100F20000020E9F73197AF01461B570BDC01ED912B
:100F3000FC910280F381E02D099480E090E0089517
:100F4000E0918904F0918A040190F081E02D682FEE
:100F500089E894E009948091A407E091A507F091B5
:100F6000A607F8949181982B91832281982F9095D0
:100F700029232283A7E0B0E01197F1F72181922382
:100F80009183A3E2B0E01197F1F790817894EFECB0
:100F9000F0E03197F1F7982381E009F480E00895BB
:100FA0009091A407E091A507F091A607392F3095FD
:100FB00080FF13C0F8942281832F82238283818152
:100FC000892B8183A3E2B0E01197F1F78281982BFE
:100FD0009283789487ED90E012C0F8942281832F59
:100FE000822382838181892B8183AFEFB0E01197C7
:100FF000F1F78281982B928378948FE090E00197AB
:10100000F1F708950F931F93CF93DF93082FC8E054
:10101000D0E011E081E0912F902309F480E00E945C
:10102000D007110F2197B1F7F894E091A507F0913F
:10103000A60791818091A407809598239183E091E0
:10104000A507F091A6079281892382837894DF9186
:10105000CF911F910F9108951F93CF93DF9385E553
:101060000E940208C1E8D4E01C2F185F89910E94F9
:1010700002081C13FBCFDF91CF911F91089590912F
:10108000A407E091A507F091A607F8948181292F84
:1010900020958223818378948DE743E050E081504E
:1010A00021F1DA011197F1F730813923C1F3F89476
:1010B0008281822382838181892B81837894ABE72B
:1010C000B7E01197F1F7F894818128232183A3E1F8
:1010D000B1E01197F1F78081982381E009F080E079
:1010E0007894E3E6F6E03197F1F70895CF93DF9334
:1010F000CDB7DEB72F970FB6F894DEBF0FBECDBFCA
:1011000098E6998327E02A832B839C8393E59D832C
:1011100094E69E8391E59F8391E098879FEF99875E
:1011200098E09A878B87FE0135969E01245F3F4F9A
:1011300080E09191890FE217F307D9F78C8786E158
:101140008D871E86BE016F5F7F4F80917F049091D7
:1011500080040E948B072F960FB6F894DEBF0FBE57
:10116000CDBFDF91CF9108958F929F92AF92BF92A2
:101170000F931F93CF93DF93CDB7DEB7A1970FB631
:10118000F894DEBF0FBECDBF19A2423008F44AE08A
:101190008E010F5D1F4F842E912CA12CB12CA50127
:1011A00094010E94B21AE62FB901CA010150110937
:1011B000EA3014F4E05D01C0E95CD801EC93232B24
:1011C000242B252B61F7B80189E894E00E948B0756
:1011D000A1960FB6F894DEBF0FBECDBFDF91CF91C1
:1011E0001F910F91BF90AF909F908F900895CF92D5
:1011F000DF92EF92FF92CF93DF9397FF19C06B01BD
:101200007C018DE20E94A007EC0166277727CB01C5
:101210006C197D098E099F094AE00E94B4088C0F61
:101220009D1FDF91CF91FF90EF90DF90CF900895B9
:101230004AE0DF91CF91FF90EF90DF90CF900C9438
:10124000B4080F931F93CF93DF938C01C0E0D0E0DD
:10125000F801EC0FFD1F6491662371F0E0918904A1
:10126000F0918A040190F081E02D89E894E00995DD
:10127000892B11F02196ECCFCE01DF91CF911F91F8
:101280000F9108954F925F926F927F928F929F92EB
:10129000AF92BF92CF92DF92EF92FF926B017C01EF
:1012A000B42E9B01AC010E94841A882319F063E6D6
:1012B00071E027C026013701E89477F82FEF3FEF60
:1012C0004FE75FE7C301B2010E94841A81110DC08C
:1012D0002FEF3FEF4FE75FE7C301B2010E946D18A8
:1012E00018161CF467E671E00CC02FEF3FEF4FE7D4
:1012F0005FE4C701B6010E94CC19181694F46BE69E
:1013000071E089E894E0FF90EF90DF90CF90BF907C
:10131000AF909F908F907F906F905F904F900C94C4
:101320008B072FEF3FEF4FE75FECC701B6010E943D
:101330006D1887FDE4CF20E030E0A901C701B601B8
:101340000E946D1887FF09C08DE20E94A0074C0122
:10135000F7FAF094F7F8F09402C0812C912CA12CAC
:1013600060E070E080E09FE3AB1440F420E030E008
:1013700040E251E40E947218A394F6CF9B01AC01A5
:10138000C701B6010E9401182B013C010E94EB1815
:101390006B017C010E941A199B01AC01C301B201CF
:1013A0000E9400182B013C014AE0C701B6010E94CF
:1013B000B4087C01E80CF91CBB2029F08EE20E94E5
:1013C000A007E80EF91EDB2CDD2021F120E030E043
:1013D00040E251E4C301B2010E94D1192B013C014A
:1013E0000E94EB184B01A12CB12C4AE0C501B401BD
:1013F0000E94B408E80EF91EC501B4010E941A1932
:101400009B01AC01C301B2010E9400182B013C01F9
:10141000DA94DACFC701FF90EF90DF90CF90BF90C2
:10142000AF909F908F907F906F905F904F900895B6
:101430002F923F924F925F926F927F928F929F92E4
:10144000AF92BF92CF92DF92EF92FF920F931F93D2
:10145000CF93DF93CDB7DEB7A2970FB6F894DEBF78
:101460000FBECDBF9AA389A38EE480937C0062E077
:1014700070E080E090E00E94F70380917A00806441
:1014800080937A0080917A0086FDFCCF809178006D
:101490002091790030E0322F2227A901330F660B0B
:1014A000770B9A01AB01282B60E070E381E190E0BB
:1014B0000E94D41A2D8B3E8B4F8B588F0E94720442
:1014C0004B015C0169A07AA028E5620E711CA9A1FC
:1014D000BAA154968C910E94BB03F301918380833F
:1014E000BC01990F880B990B0E941C196B017C01A0
:1014F0002DEC3CEC4CE054E40E946D1887FF0BC0CF
:1015000011E026E636E646EE53E4C701B6010E9436
:10151000CC1918160CF010E00E947204DC01CB010B
:1015200088199909AA09BB09813D9740A105B10510
:1015300010F4112361F20E947204698B7A8B8B8BF9
:101540009C8B00E010E01A82198229A13AA1205C4C
:101550003F4F3A8F298F49A15AA14C5B5F4F5C875F
:101560004B8789A19AA1885B9F4F9C8F8B8FA9A1E4
:10157000BAA1A45BBF4FBE87AD87E9A1FAA1E05B2A
:10158000FF4FFE8FED8F29A13AA12C5A3F4F388B88
:101590002F8749A15AA1465A5F4F5E834D8329A0E8
:1015A0003AA05BE5250E311C89A19AA1885A9F4F6C
:1015B00098A38F8F0E947204DC01CB0129893A899C
:1015C0004B895C89821B930BA40BB50B803D974024
:1015D000A105B10508F4DAC04D895E89BA01550F3D
:1015E000880B990B0E941C1920E030E04AE754E474
:1015F0000E94721820E030E040E85AE30E94D119BE
:101600002B013C01A9A1BAA158962D913D914D9174
:101610005C915B970E94D1194B015C01E981FA81D1
:10162000BF0180E090E00E941A196B017C0129A0A3
:101630003AA0F4E42F0E311C9B01AC01D1016D9155
:101640007D918D919C910E9472180E94441A9B0179
:10165000AC01C501B4010E94D11969837A838B83DF
:101660009C83E9A1FAA16487758786879787248D73
:10167000358D468D578DC301B2010E94D1192B01C2
:101680003C0109A11AA1045B1F4FA7019601D801D3
:101690006D917D918D919C910E9472180E94441AC7
:1016A0009B01AC01C301B2010E94D1196D837E83FD
:1016B0008F839887E9A1FAA1608B718B828B938BC2
:1016C000A3019201C501B4010E94D119A9A0BAA039
:1016D000F4E5AF0EB11CD5012D913D914D915C917A
:1016E0000E94D119A70196010E9472186B017C011A
:1016F000E9A1FAA160837183828393832D813E8166
:101700004F81588569817A818B819C810E94D11992
:101710009B01AC01A9A1BAA114966D937D938D9301
:101720009C931797C701B6010E947218E9A1FAA10C
:101730006087718782879387D1011D921D921D92C8
:101740001C921397F8011082118212821382D50124
:101750001D921D921D921C921397A2960FB6F8949B
:10176000DEBF0FBECDBFDF91CF911F910F91FF90D4
:10177000EF90DF90CF90BF90AF909F908F907F9031
:101780006F905F904F903F902F900895E981FA817C
:101790003196FA83E983E9A1FAA184A595A5A6A5C6
:1017A000B7A580A791A7A2A7B3A784890E94BB036E
:1017B000A9A1BAA195969C938E93949756968C91D5
:1017C0000E94BB033C01E9A1FAA197A386A324A12F
:1017D00035A13A872987B901330F880B990B0E94ED
:1017E0001C196B017C01A9A1BAA1D4968D909D9082
:1017F000AD90BC90D797A50194010E94001820E0FD
:1018000030E040E85AE30E94D1199B01AC01C501C8
:10181000B4010E9401189B01AC01E9A1FAA164ABDB
:1018200075AB86AB97ABC701B6010E9400184B01A0
:101830005C01A9A1BAA19C966D937D938D939C9315
:101840009F97B301770C880B990B0E941C196B01B1
:101850007C01E9A1FAA140AC51AC62AC73ACA3012C
:1018600092010E94001820E030E040E85AE30E9414
:10187000D1199B01AC01C301B2010E9401189B0167
:10188000AC01A9A1BAA1D8966D937D938D939C9339
:10189000DB97C701B6010E9400186B017C01E9A12A
:1018A000FAA160AB71AB82AB93ABA5019401C5010A
:1018B000B4010E94D1199B01AC01A98DBA8D6D9321
:1018C0007D938D939C931397EB85FC85608171814B
:1018D000828193810E940118AB85BC856D937D93B5
:1018E0008D939C931397A7019601C701B6010E949F
:1018F000D1199B01AC01EB8DFC8D608371838283D8
:101900009383AD85BE856D917D918D919C910E9453
:101910000118ED85FE856083718382839383A9A17D
:10192000BAA198964D905D906D907C909B97A30185
:101930009201C501B4010E940018E9A1FAA120A1F9
:1019400031A142A153A10E94D1199B01AC01C30155
:10195000B2010E940118A9A1BAA1DC966D937D93F2
:101960008D939C93DF97A70196010E94D1199B014B
:10197000AC01ED8DFE8D6083718382839383AF858F
:10198000B8896D917D918D919C910E940118EF8590
:10199000F8896083718382839383D1018C91ED8177
:1019A000FE818083AF8DB8A18D919C91E985FA85E8
:1019B0008E179F0724F4E1E0D101EC9302C0D1011E
:1019C0001C92E981FA81319729F4D1018C91ED8142
:1019D000FE818083AD81BE819C91F1018081981749
:1019E00011F00F5F1F4F0E31110508F0F5CDE2CD5C
:1019F00020912E0730912F0735952795009709F0F4
:101A00003E5F30932F0720932E0720912E073091B1
:101A10002F072115310551F04091300750913107C2
:101A20004F5F5F4F5093310740933007409130072D
:101A3000509131074A305105CCF120FF2FC0892B3E
:101A400069F5359527953327209580912A07909140
:101A50002B07AC014F5F5F4F4038510514F040E059
:101A600050E060912C0770912D074617570759F0E9
:101A7000880F991FFC01E65DF94F31832083509355
:101A80002B0740932A0710923107109230071092CB
:101A90002F0710922E0781E090E0089510923107F1
:101AA0001092300710922F0710922E0780E090E0DE
:101AB0000895CF93DF93CDB7DEB760970FB6F89454
:101AC000DEBF0FBECDBF789484B5826084BD84B57F
:101AD000816084BD85B5826085BD85B5816085BD29
:101AE00080916E00816080936E00109281008091E1
:101AF0008100826080938100809181008160809369
:101B00008100809180008160809380008091B1008D
:101B100084608093B1008091B00081608093B000B8
:101B200080917A00846080937A0080917A0082604C
:101B300080937A0080917A00816080937A0080910E
:101B40007A00806880937A001092C10099E288E15F
:101B50000FB6F894A895809360000FBE9093600034
:101B6000E0919904F0919A0482E08083E0919504D9
:101B7000F09196041082E0919704F091980480E12E
:101B800080831092A104E0919D04F0919E0486E070
:101B90008083E0919B04F0919C048081806180832C
:101BA000E0919B04F0919C04808188608083E091A7
:101BB0009B04F0919C04808180688083E0919B0469
:101BC000F0919C0480818F7D808380E090E8ACE67A
:101BD000B0E08093CF019093D001A093D101B09356
:101BE000D20182ED8093800181E08093DC0164E189
:101BF00070E080E090E00E94F7038CE495E0909321
:101C000001018093000180916900836080936900E5
:101C1000E89A2A9A229A2A9A84B18C6284B980E539
:101C20008CBD8DB581608DBD6AEA8FEA0E94160574
:101C30008FE20E9425058A3AB9F765E58FEA0E948E
:101C400016058FE20E9425058535B9F708E610E0F4
:101C5000F8018491882341F03196649180680E9454
:101C600016050E5F1F4FF4CF6091800181EB0E943B
:101C70001605C090CF01D090D001E090D101F09036
:101C8000D201B7018827992787E80E94160599276E
:101C90008F2D7E2D6D2D88E80E9416056C2D89E80C
:101CA0000E94160584E080938201FF24F394F09251
:101CB000D30110926E0210926D02812C912C03E8D8
:101CC000A02E03E4B02E8092710290927202A09234
:101CD0007302B09274020AE919E929ED3FE3009317
:101CE000790210937A0220937B0230937C0280E089
:101CF00090E0A0E0B4E480938D0290938E02A093D4
:101D00008F02B093900241E050E0509370024093F4
:101D10006F0240E050E060EA71E440937502509336
:101D20007602609377027093780280939102909389
:101D30009202A0939302B093940210921002109218
:101D40000F028092130290921402A0921502B09298
:101D5000160200931B0210931C0220931D02309365
:101D60001E0280932F0290933002A0933102B09311
:101D7000320222E030E030931202209311024093AD
:101D80001702509318026093190270931A028093FD
:101D9000330290933402A0933502B093360264E686
:101DA00070E080E090E00E94F70381E290E00E9402
:101DB000271B8C01DC0113961C921E92129788EE51
:101DC00093E0A0E0B0E0F80184839583A683B78315
:101DD00082E191E091838083148A138A168A158A9E
:101DE000108E178A128E118E838D8E7F8D7F838F3A
:101DF00061E085E00E947F03D8015B966C91669557
:101E000061706F2585E00E943303E9E4F2E0E4911C
:101E1000D8015096EC93E5E3F2E0E491F0E0EE0FA8
:101E2000FF1FE357FF4F85919491F801928B818BAF
:101E300060E084E00E947F03D8015B968C9181FD75
:101E400004C061E084E00E94330384E0F8018487E9
:101E5000E8E4F2E0E491D8011D96EC93E4E3F2E0CB
:101E6000E491F0E0EE0FFF1FEA5DFD4F8591949144
:101E7000F8019787868788E0848F80E8858F81E0E6
:101E800080A31093800400937F0482E090E0978FFA
:101E9000868F128E118E108E178A168A158A148AD2
:101EA000138A87E990E020E030E0FC0145915591EC
:101EB00065917491403C52416105710551F54CE0CA
:101EC000429FC001439F900D1124FC01E556FF4F36
:101ED00025913491D80154963C932E935397FC014D
:101EE000E356FF4F25913491F801368B258BFC0189
:101EF000E156FF4F2591349158963C932E93579776
:101F0000FC01EF55FF4F85919491F801928F818FDD
:101F100007C02F5F3F4F0C962D30310509F0C5CF1C
:101F2000D80157968D919C915897892B81F080917B
:101F3000680084608093680080916D008061809368
:101F40006D0059968D919C915A970E94B70580918A
:101F50007201909173018017910779F0F801838DD8
:101F60008E7F838F8FB7F894109271011092700159
:101F700010937301009372018FBFA89588E689833F
:101F800096E09A839B838C8383E58D838EEF8E838B
:101F900081E58F8381E088878AE7898784E68A875D
:101FA00081E88B8786E18C871D86BE016F5F7F4F3E
:101FB00080917F04909180040E948B0768EE73E00B
:101FC00080E090E00E94F703809106010E9476086D
:101FD00068EE73E080E090E00E94F703A89564E665
:101FE00070E080E090E00E94F703109229061092C2
:101FF0002806109227061092260610922D0710929E
:102000002C0710922B0710922A0786E295E09093F6
:1020100077018093760181E394E0909303018093AC
:102020000201809169008C6080936900E99A1092A6
:10203000ED011092EE011092EF011092F00110925A
:10204000E5011092E6011092E7011092E801A895CF
:1020500086E696E6A6EABDE38093D8019093D9017F
:10206000A093DA01B093DB018FE892ECA5EFBCE31B
:102070008093D4019093D501A093D601B093D7015A
:102080001E01F5E02F0E311C81E894E008E0080FF6
:102090000F8770E1872E7EE0972EA12CB12C0E9435
:1020A00072046093E5037093E6038093E7039093D3
:1020B000E8030E94D2032091780130917901621BDC
:1020C000730B60357142D4F08091300790913107E5
:1020D000892B49F4109231071092300710922F0784
:1020E00010922E070BC080912E0790912F07892BFD
:1020F00089F380E090E00E94F80CF5CF80912806EB
:102100009091290620912606309127062817390735
:1021100009F424C19C012F5F3F4F2038310514F092
:1021200020E030E0880F991FFC01EA5DFA4F008142
:102130001181309329062093280610161106D4F039
:102140008091300790913107892B49F41092310723
:102150001092300710922F0710922E0719C080910D
:102160002E0790912F07892B89F380E090E00E9441
:10217000F80CF5CF81E090E00E94F80C01301105D9
:1021800039F080E090E00E94F80C01501109F6CF80
:1021900080912C0790912D0720912A0730912B07D1
:1021A0002817390709F4DAC09C012F5F3F4F203808
:1021B000310514F020E030E0880F991FFC01E65D46
:1021C000F94F8081918130932D0720932C078F3F09
:1021D0002FEF920709F4C2C021E029831A8228E672
:1021E0002B8322E02C8320919C0730919D07232B89
:1021F00021F590919F0790939E079091A00790934F
:102200009F079091A1079093A0078093A10744E0B6
:1022100050E06EE977E0CE0101960E94591C892BAF
:1022200009F09CC010929B0710929A0781E090E001
:1022300090939D0780939C0791C020919A073091BD
:102240009B072836310560F4A9014F5F5F4F50931B
:102250009B0740939A07F901EE5CF84F80837EC09C
:1022600028363105F9F48330B1F099279F938F9385
:1022700080E591E09F938F930E94661C10929B07CC
:1022800010929A0710929D0710929C070F900F9042
:102290000F900F9063C089E690E090939B07809326
:1022A0009A075CC0FE01319620E03191230FE215C0
:1022B000F305D9F7E2E3F7E03191230F37E0EA398C
:1022C000F307D1F72D5F822790E020E030E0009700
:1022D00039F080FF02C02F5F3F4F95958795F7CF6C
:1022E00022303105BCF50091A2071091A307EFE55C
:1022F000F7E060E070E0CB012AE0F22EE190AE2D35
:10230000AF70DA2EA4E6B0E09B01AC010E94F31A94
:102310002B013C014D0C511C611C711C4E2D50E0D9
:1023200084E0559547958A95E1F7F49EC001F59EA6
:10233000900D1124092E000CAA0BBB0BBC01CD0182
:10234000640D751D861D971DB7E0E436FB07B1F6D9
:10235000F801099510929D0710929C0780918201C7
:10236000843019F0853069F158C0109289011092BB
:102370008101609180018FEF9FEF0E94340590935F
:102380007F0180937E0187E891E090937D018093A7
:102390007C0185E08093820188E20E94250580759A
:1023A00021F080E00E942505F7CF60E885EA0E94D1
:1023B000160580E10E94280562E08EE90E9416055C
:1023C0002CC0809189012091810190E0049630E039
:1023D0008217930724F0809181018834F0F084E023
:1023E000809382010E94280580918901833408F03E
:1023F000FEC280917E0190917F01892B09F0F7C286
:102400008091880186FF0CC09091DC019F3141F0E2
:10241000809188018F71891719F08FEF9FEF02C0AB
:1024200080E090E09093E4038093E3038091E303E2
:102430009091E403019609F494C08091E303909194
:10244000E403892B09F08DC08091880187FD89C044
:10245000809188018F7170908901873109F0CAC21B
:102460000CE07012C7C28CE0EAE8F1E0A7EDB3E03F
:1024700001900D928A95E1F780E092E00E94210997
:102480006091D7037091D803072E000C880B990B2D
:102490000E941C192DEC3CEC4CEC5DE30E94D11920
:1024A00041E050E00E94420984EF91E00E9421093E
:1024B0006091D9037091DA03072E000C880B990BF9
:1024C0000E941C192DEC3CEC4CEC5DE30E94D119F0
:1024D00041E050E00E94420987EE91E00E9421090C
:1024E0006091DB037091DC03072E000C880B990BC5
:1024F0000E941C192DEC3CEC4CEC5DE30E94D119C0
:1025000041E050E00E9442098BED91E00E942109D8
:102510006091DD037091DE03072E000C880B990B90
:102520000E941C192DEC3CEC4CEC5DE30E94D1198F
:1025300041E050E00E94420981ED91E00E942109B2
:102540006091DF037091E0038091E1039091E203D9
:102550004AE00E94B4086AE571E089E894E00E94CC
:102560008B078091E5039091E603A091E703B0917A
:10257000E8034091D3035091D4036091D503709147
:10258000D6038C019D01041B150B260B370BB901DB
:10259000A801483456426105710528F420910701CD
:1025A000222309F401C2A8958093D3039093D40306
:1025B000A093D503B093D60310920701F12CEE241B
:1025C000E3948091B107811104C00E943F088111FA
:1025D0001AC01092AF071092B1071092B007F09294
:1025E000BA0368EC70E080E090E00E94F70380910D
:1025F00006010E9476081092B9030E9472046B01D2
:102600007C0110E070C080EF0E94020801E0D12C34
:10261000C12C11E00E94AB07888B0E94AB07988900
:10262000913019F48130C9F435C0ED2DF0E09813E4
:102630001EC08091AF07181740F4DF01AC55B84FAA
:1026400013968C91802349F402C0181731F090E062
:10265000193060F41093B00709C0ED2DF0E0EC558F
:10266000F84F8381802B838391E008C0C12EEC5505
:10267000F84F2381802F809582238383892F0E94A6
:10268000D0071F5F000F11F4D39401E087E08D1590
:1026900008F0C0CF113408F49CCFC092AF07C1102E
:1026A000E5C1E092B107E2C180917F04909180047E
:1026B000DC01ED91FC910284F385E02D0995909168
:1026C000B9039923F9F09F5F9093B90380917F0438
:1026D00090918004DC01ED91FC910084F185E02D66
:1026E0000995892B09F70E947204DC01CB018C1932
:1026F0009D09AE09BF09883E9340A105B10508F0C8
:1027000028C2E4CF853EF9F611E0DDCF9F5F9093BC
:10271000B90380917F0490918004DC01ED91FC91DC
:102720000084F185E02D0995892B09F430C2809150
:102730007F0490918004DC01ED91FC910284F3858B
:10274000E02D09959091B903E92FF0E0E654FD4F93
:102750008083992309F42AC22091B90221112EC243
:102760002091B90221113AC22091B90221113FC230
:102770002091B902222351F2209105019213C6CF74
:10278000863121F61092B90301E00E87A89568EC16
:1027900070E080E090E00E94F703A8950AE010E066
:1027A00080E00E94BB0381E00E94BB0382E00E94A4
:1027B000BB0301501109A1F768EC70E080E090E0E4
:1027C0000E94F70389E592E00E94180A609159027D
:1027D00070915A0280915B0290915C020E94E41811
:1027E0007093580260935702A8958BEF91E00E9476
:1027F000180A6091FB017091FC018091FD0190919C
:10280000FE010E94E4187093FA016093F901A89503
:102810000E9472042091F5013091F6018B01021B98
:10282000130B0E9472046093F5017093F60180937C
:10283000F7019093F801C0905902D0905A02E090AD
:102840005B02F0905C0220E030E0A901C701B60114
:102850000E94CC1918160CF4E3C1C090FB01D09073
:10286000FC01E090FD01F090FE0120E030E0A901C4
:10287000C701B6010E94CC1918160CF417C2A8950E
:102880008091E1019091E201A091E301B091E40116
:102890000196A11DB11D8093E1019093E201A093E7
:1028A000E301B093E4018CEC91E00E942109609176
:1028B000E1017091E2018091E3019091E4014AE02D
:1028C0000E94B40883EC91E00E94210960915702B4
:1028D00070915802072E000C880B990B0E94F70884
:1028E0008AEB91E00E9421096091F9017091FA014F
:1028F000072E000C880B990B0E94F7088FEA91E0D5
:102900000E9421096091ED017091EE018091EF012B
:102910009091F0010E94F70884EA91E00E94210959
:102920006091E5017091E6018091E7019091E801E5
:102930000E94F7086BECC62E63E0D62E0BEB13E07B
:10294000E12CF12C8091BA0390E0E816F9060CF422
:10295000F4C10E8501112DC28091830190918401F3
:10296000A0918501B0918601181619061A061B065A
:1029700074F483E391E00E942109609183017091D6
:10298000840180918501909186010E94F7086AE593
:1029900071E089E894E00E948B0764E670E080E0D3
:1029A00090E00E94F703A8950E9472040091DD0157
:1029B0001091DE012091DF013091E001DC01CB01BB
:1029C000801B910BA20BB30B893E9340A105B1056F
:1029D00058F00E9472046093DD017093DE018093D1
:1029E000DF019093E001A8950E94530258CB81E04B
:1029F00090E018CD612CC82ED12CE12CF12C67145D
:102A000008F0A9CD862D90E0FC01E557FE4F20810E
:102A1000FC01E657FE4F008110E0122B662031F0DA
:102A20006DE571E089E894E00E948B07C701B6016B
:102A30000E94F7086FE571E089E894E00E948B0737
:102A4000662D70E080E090E04AE00E94B40861E604
:102A500071E089E894E00E948B07B801110F880BA0
:102A6000990B0E94F70863946394C9CF8091A707DC
:102A7000882309F4AECDA7EAB7E0E1E8F4E08D9150
:102A8000819394E0E938F907D1F7E1E8F4E080E0D8
:102A900090E0DC012191820F911DA11DB11D0F85D8
:102AA0000E13F8CF0F2D10E0F801EE0FFF1FE553C6
:102AB000FC4F918380830E943F080E942C0884E48D
:102AC0000E9402086EEE72E080E090E00E94F70340
:102AD0000E943F080E942C088EEB0E940208B8E07A
:102AE0006B2E712CCC24C394D12C0E94AB07811186
:102AF000DC28CC0C21E0621A7108B9F7F8E06F2EDF
:102B0000712C55245394C12C0E94AB078111C52808
:102B1000550C31E0631A7108B9F76D2D70E07C290E
:102B2000072E000C880B990B0E941C1920E030E046
:102B300040E85DE30E94D119000F111F000F111F23
:102B4000F801E554FC4F6083718382839383F3948F
:102B500038CD112309F459C080E189838BE58A833C
:102B600084E68B838FEB8C8386E18D831E82BE018E
:102B70006F5F7F4F80917F04909180040E948B074C
:102B80001092B9030E9472046B017C0111E00E9453
:102B90007204DC01CB018C199D09AE09BF09883E86
:102BA0009340A105B10508F4B4CD2FC0883609F0D3
:102BB000D3CD1093B9021092B802CECD913059F412
:102BC0008093B70225E0280F2093050124E0280F09
:102BD00020930401C5CD923009F495C1933009F0DA
:102BE000C3CD883609F4C0CD1092B902BDCD309165
:102BF0000401943008F47DC1931708F07AC1209144
:102C0000B802280F2093B80274C18091B502909148
:102C1000B60201969093B6028093B5021E86B6CD99
:102C2000101611060CF019CEB801012E000C880BFD
:102C3000990B0E941C199B01AC01C701B6010E94AF
:102C4000D1192FE632E143E85AE30E94D1190E94DC
:102C5000E418C090F101D090F201E090F301F090FF
:102C6000F4016C0D7D1D8E1D9F1DA50194010E9418
:102C7000D41AC090ED01D090EE01E090EF01F090F9
:102C8000F001C20ED31EE41EF51EC092ED01D092DB
:102C9000EE01E092EF01F092F0016093F101709388
:102CA000F2018093F3019093F401D7CD1016110631
:102CB0000CF0E5CDB801110F880B990B0E941C197F
:102CC0009B01AC01C701B6010E94D1192FE632E188
:102CD00043E85AE30E94D1190E94E4180091E901E7
:102CE0001091EA012091EB013091EC01600F711F0E
:102CF000821F931FA50194010E94D41AC090E50180
:102D0000D090E601E090E701F090E80189019A0196
:102D10000C0D1D1D2E1D3F1D0093E5011093E601B6
:102D20002093E7013093E8016093E9017093EA0191
:102D30008093EB019093EC01A2CDD8014D905D9072
:102D40006D907C9020E030E048E452ECC301B20189
:102D50000E94CC19181624F520E030E040EA52E435
:102D6000C301B2010E946D1887FF1AC081EA91E089
:102D70000E942109F60160817181072E000C880BE9
:102D8000990B0E94F7088FE991E00E942109D80170
:102D90006D917D918D919C9142E050E00E9442099D
:102DA000BFEFEB1AFB0AE2E0CE0ED11C0C5F1F4F07
:102DB000C9CD80910601813009F046C083E991E0D8
:102DC0000E9421096091CA0270E080E090E00E94B8
:102DD000F70887E891E00E9421098091D002609174
:102DE000D10270E0762F6627680F711D072E000C48
:102DF000880B990B0E94F7088BE791E00E9421094C
:102E00008091E0026091E10270E0762F6627680F02
:102E1000711D072E000C880B990B0E94F7088FE696
:102E200091E00E9421098091E6026091E70270E042
:102E3000762F6627680F711D072E000C880B990BE3
:102E40000E94F70883E052C0833009F085CD84E604
:102E500091E00E942109F091CF02E091D0023091DF
:102E6000D1022091D20242E050E06F2F7E2F832FBB
:102E7000922F0E94420987E591E00E942109F0917A
:102E8000D502E091D6023091D7022091D80242E0DB
:102E900050E06F2F7E2F832F922F0E94420989E4EA
:102EA00091E00E9421098091DB026091DC0270E0D8
:102EB000762F6627680F711D072E000C880B990B63
:102EC0000E94F7088FE391E00E9421098091E102BE
:102ED0006091E20270E0762F6627680F711D072E61
:102EE000000C880B990B0E94F70881E08093060183
:102EF00033CD93133DCC2091B802821709F438CC1E
:102F00001092B90235CC2091B702821709F428CC6F
:102F10001092B90225CC10928C0410928B0488EE8A
:102F200093E0A0E0B0E080938D0490938E04A09392
:102F30008F04B093900484E291E090938A0480938C
:102F4000890485EC90E0909396048093950484EC3A
:102F500090E0909398048093970480EC90E0909395
:102F60009A048093990481EC90E090939C04809360
:102F70009B0482EC90E090939E0480939D0486ECE9
:102F800090E09093A00480939F041092A20410926A
:102F9000A3041092A4041092A50460E083E10E94AF
:102FA0007F03E7E5F2E0E491E093A407E3E4F2E0D5
:102FB000E491F0E0EE0FFF1FEA5DFD4F85919491E3
:102FC0009093A6078093A5071092AF071092B107C0
:102FD0001092B007EFEAF7E0129287E0E73AF807BD
:102FE000D9F710929B0710929A0710929D071092A2
:102FF0009C0780ED92E09093A3078093A207089529
:103000005058BB27AA270E9418180C9492190E94A6
:10301000841938F00E948B1920F039F49F3F19F47D
:1030200026F40C9481190EF4E095E7FB0C947B19BF
:10303000E92F0E94A31958F3BA1762077307840790
:10304000950720F079F4A6F50C94C5190EF4E095D7
:103050000B2EBA2FA02D0B01B90190010C01CA0152
:10306000A0011124FF27591B99F0593F50F4503EFD
:1030700068F11A16F040A22F232F342F4427585FEF
:10308000F3CF469537952795A795F0405395C9F707
:103090007EF41F16BA0B620B730B840BBAF09150BF
:1030A000A1F0FF0FBB1F661F771F881FC2F70EC05E
:1030B000BA0F621F731F841F48F487957795679531
:1030C000B795F7959E3F08F0B0CF9395880F08F01D
:1030D0009927EE0F9795879508950E94571908F440
:1030E00081E008950E9486180C9492190E948B1911
:1030F00058F00E94841940F029F45F3F29F00C94A5
:103100007B1951110C94C6190C9481190E94A319B2
:1031100068F39923B1F3552391F3951B550BBB2706
:10312000AA2762177307840738F09F5F5F4F220F4B
:10313000331F441FAA1FA9F335D00E2E3AF0E0E842
:1031400032D091505040E695001CCAF72BD0FE2F8C
:1031500029D0660F771F881FBB1F26173707480720
:10316000AB07B0E809F0BB0B802DBF01FF279358D8
:103170005F4F3AF09E3F510578F00C947B190C9408
:10318000C6195F3FE4F3983ED4F38695779567952B
:10319000B795F7959F5FC9F7880F911D969587950D
:1031A00097F90895E1E0660F771F881FBB1F62172C
:1031B00073078407BA0720F0621B730B840BBA0BEA
:1031C000EE1F88F7E09508950E94EB186894B111FE
:1031D0000C94C61908950E94AB1988F09F5798F077
:1031E000B92F9927B751B0F0E1F0660F771F881F0C
:1031F000991F1AF0BA95C9F714C0B13091F00E9426
:10320000C519B1E008950C94C519672F782F882748
:10321000B85F39F0B93FCCF3869577956795B3954C
:10322000D9F73EF490958095709561957F4F8F4FBB
:103230009F4F0895E89409C097FB3EF490958095C0
:10324000709561957F4F8F4F9F4F9923A9F0F92F6C
:1032500096E9BB279395F695879577956795B795EA
:10326000F111F8CFFAF4BB0F11F460FF1BC06F5FD0
:103270007F4F8F4F9F4F16C0882311F096E911C0E2
:10328000772321F09EE8872F762F05C0662371F003
:1032900096E8862F70E060E02AF09A95660F771F17
:1032A000881FDAF7880F9695879597F90895990FF3
:1032B0000008550FAA0BE0E8FEEF16161706E80700
:1032C000F907C0F012161306E407F50798F0621B21
:1032D000730B840B950B39F40A2661F0232B242BF6
:1032E000252B21F408950A2609F4A140A6958FEF15
:1032F000811D811D089597F99F6780E870E060E067
:1033000008959FEF80EC089500240A94161617067E
:1033100018060906089500240A94121613061406C6
:1033200005060895092E0394000C11F4882352F029
:10333000BB0F40F4BF2B11F460FF04C06F5F7F4FE1
:103340008F4F9F4F089557FD9058440F551F59F0C8
:103350005F3F71F04795880F97FB991F61F09F3F82
:1033600079F087950895121613061406551FF2CFAB
:103370004695F1DF08C0161617061806991FF1CFFB
:1033800086957105610508940895E894BB27662722
:103390007727CB0197F908950E94571908F48FEF0A
:1033A00008950E94E4190C9492190E94841938F02F
:1033B0000E948B1920F0952311F00C947B190C942A
:1033C000811911240C94C6190E94A31970F3959FBA
:1033D000C1F3950F50E0551F629FF001729FBB270C
:1033E000F00DB11D639FAA27F00DB11DAA1F649FA8
:1033F0006627B00DA11D661F829F2227B00DA11D5B
:10340000621F739FB00DA11D621F839FA00D611DE0
:10341000221F749F3327A00D611D231F849F600D01
:10342000211D822F762F6A2F11249F5750409AF02A
:10343000F1F088234AF0EE0FFF1FBB1F661F771FB6
:10344000881F91505040A9F79E3F510580F00C9481
:103450007B190C94C6195F3FE4F3983ED4F386952C
:1034600077956795B795F795E7959F5FC1F7FE2B21
:10347000880F911D9695879597F9089519F416F47C
:103480000C9481190C94891A0E94AB19B8F39923F2
:10349000C9F3B6F39F57550B87FF0E94971A002474
:1034A000A0E640EA900180585695979528F4805CF4
:1034B000660F771F881F20F026173707480730F45C
:1034C000621B730B840B202931294A2BA695179474
:1034D0000794202531254A2758F7660F771F881F44
:1034E00020F026173707480730F4620B730B840B64
:1034F000200D311D411DA09581F7B901842F9158F0
:10350000880F9695879508950E945719880B990BF7
:1035100008959F3F31F0915020F4879577956795F6
:10352000B795880F911D9695879597F908959150B5
:103530005040660F771F881FD2F7089597FB072E1C
:1035400016F4009407D077FD09D00E94FE1A07FCFC
:1035500005D03EF4909581959F4F089570956195A3
:103560007F4F0895A1E21A2EAA1BBB1BFD010DC0BF
:10357000AA1FBB1FEE1FFF1FA217B307E407F50723
:1035800020F0A21BB30BE40BF50B661F771F881FFF
:10359000991F1A9469F760957095809590959B0195
:1035A000AC01BD01CF010895052E97FB1EF40094D8
:1035B0000E94EB1A57FD07D00E94B21A07FC03D0F5
:1035C0004EF40C94EB1A50954095309521953F4F51
:1035D0004F4F5F4F089590958095709561957F4FFF
:1035E0008F4F9F4F08950E94181BA59F900DB49F69
:1035F000900DA49F800D911D11240895AA1BBB1B43
:1036000051E107C0AA1FBB1FA617B70710F0A61BE2
:10361000B70B881F991F5A95A9F780959095BC0103
:10362000CD010895EE0FFF1F0590F491E02D099450
:10363000A29FB001B39FC001A39F700D811D1124F3
:10364000911DB29F700D811D1124911D0895CF937E
:10365000DF938230910510F482E090E0E091B407AE
:10366000F091B50720E030E0C0E0D0E0309711F1F4
:103670004081518148175907C0F04817590761F434
:1036800082819381209719F09B838A832BC090932A
:10369000B5078093B40726C02115310519F04217EC
:1036A000530718F49A01BE01DF01EF010280F38194
:1036B000E02DDCCF2115310509F1281B390B243011
:1036C000310590F412968D919C91139761157105B7
:1036D00021F0FB019383828304C09093B50780930C
:1036E000B407FD01329644C0FD01E20FF31F819340
:1036F0009193225031092D933C933AC02091B20707
:103700003091B307232B41F420910A0130910B0132
:103710003093B3072093B20720910801309109013B
:103720002115310541F42DB73EB740910C01509160
:103730000D01241B350BE091B207F091B307E2179E
:10374000F307A0F42E1B3F0B2817390778F0AC01C4
:103750004E5F5F4F2417350748F04E0F5F1F5093A1
:10376000B3074093B2078193919302C0E0E0F0E089
:10377000CF01DF91CF9108950F931F93CF93DF93E4
:10378000009709F48CC0FC013297138212820091D9
:10379000B4071091B5070115110581F4208131811D
:1037A000820F931F2091B2073091B3072817390772
:1037B00079F5F093B307E093B20771C0D80140E008
:1037C00050E0AE17BF0750F412962D913C9113971D
:1037D000AD012115310509F1D901F3CF9D01DA01C0
:1037E0003383228360817181860F971F821793072D
:1037F00069F4EC0128813981260F371F2E5F3F4F76
:10380000318320838A819B8193838283452B29F492
:10381000F093B507E093B40742C01396FC93EE9380
:103820001297ED01499159919E01240F351FE2171E
:10383000F30771F480819181840F951F0296119690
:103840009C938E938281938113969C938E9312976F
:10385000E0E0F0E0D80112968D919C9113970097CB
:1038600019F0F8018C01F6CF8D919C9198012E5F93
:103870003F4F820F931F2091B2073091B307281753
:10388000390769F4309729F41092B5071092B407FC
:1038900002C0138212821093B3070093B207DF9124
:1038A000CF911F910F91089581E090E0F8940C94CE
:1038B000311FFB01DC0104C08D910190801921F4BE
:1038C00041505040C8F7881B990B0895A0E0B0E024
:1038D000ECE6FCE10C940A1FAE014B5F5F4FFA016E
:1038E00061917191AF018091B8079091B9070E94E1
:1038F0007C1CE2E00C94261FACE0B0E0E2E8FCE1C6
:103900000C94FA1E7C016B018A01FC01178216825D
:10391000838181FFBDC1CE0101964C01F7019381E6
:10392000F60193FD859193FF81916F01882309F43E
:10393000ABC1853239F493FD859193FF81916F017D
:10394000853229F4B70190E00E94641EE7CF512C24
:10395000312C20E02032A0F48B3269F030F4803238
:1039600059F0833269F420612CC08D3239F08033F4
:1039700039F4216026C02260246023C0286021C061
:1039800027FD27C030ED380F3A3078F426FF06C007
:10399000FAE05F9E300D1124532E13C08AE0389E4A
:1039A000300D1124332E20620CC08E3221F426FDFE
:1039B0006BC1206406C08C3611F4206802C08836C2
:1039C00041F4F60193FD859193FF81916F0181117F
:1039D000C1CF982F9F7D9554933028F40C5F1F4FD3
:1039E000FFE3F9830DC0833631F0833771F08335FF
:1039F00009F05BC022C0F801808189830E5F1F4FF0
:103A000044244394512C540115C03801F2E06F0E48
:103A1000711CF801A080B18026FF03C0652D70E005
:103A200002C06FEF7FEFC5012C870E94591E2C0149
:103A300083012C852F77222E17C03801F2E06F0EFC
:103A4000711CF801A080B18026FF03C0652D70E0D5
:103A500002C06FEF7FEFC5012C870E944E1E2C0124
:103A60002C852068222E830123FC1BC0832D90E02F
:103A700048165906B0F4B70180E290E00E94641E37
:103A80003A94F4CFF50127FC859127FE81915F01DF
:103A9000B70190E00E94641E31103A94F1E04F1A91
:103AA00051084114510471F7E5C0843611F089368C
:103AB00039F5F80127FF07C0608171818281938108
:103AC0000C5F1F4F08C060817181072E000C880BAE
:103AD000990B0E5F1F4F2F76722E97FF09C090959E
:103AE0008095709561957F4F8F4F9F4F2068722E04
:103AF0002AE030E0A4010E949C1EA82EA81844C011
:103B0000853729F42F7EB22E2AE030E025C0F22F2F
:103B1000F97FBF2E8F36C1F018F4883579F0B4C024
:103B2000803719F0883721F0AFC02F2F2061B22ED7
:103B3000B4FE0DC08B2D8460B82E09C024FF0AC0CE
:103B40009F2F9660B92E06C028E030E005C020E126
:103B500030E002C020E132E0F801B7FE07C060812A
:103B60007181828193810C5F1F4F06C060817181DA
:103B700080E090E00E5F1F4FA4010E949C1EA82EC3
:103B8000A818FB2DFF777F2E76FE0BC0372D3E7FCA
:103B9000A51450F474FE0AC072FC08C0372D3E7E96
:103BA00005C0BA2C372D03C0BA2C01C0B52C34FF88
:103BB0000DC0FE01EA0DF11D8081803311F4397EC4
:103BC00009C032FF06C0B394B39404C0832F867833
:103BD00009F0B39433FD13C030FF06C05A2CB31460
:103BE00018F4530C5B18B32CB31468F4B70180E2DB
:103BF00090E03C870E94641EB3943C85F5CFB314DB
:103C000010F43B1801C0312C34FF12C0B70180E31F
:103C100090E03C870E94641E3C8532FF17C031FD56
:103C200003C088E790E002C088E590E0B7010CC0CF
:103C3000832F867859F031FF02C08BE201C080E209
:103C400037FD8DE2B70190E00E94641EA51438F4A0
:103C5000B70180E390E00E94641E5A94F7CFAA94C3
:103C6000F401EA0DF11D8081B70190E00E94641E0D
:103C7000A110F5CF332009F451CEB70180E290E0D6
:103C80000E94641E3A94F6CFF7018681978102C0A4
:103C90008FEF9FEF2C96E2E10C94161FFC0105902C
:103CA000615070400110D8F7809590958E0F9F1F3E
:103CB0000895FC016150704001900110D8F7809583
:103CC00090958E0F9F1F08950F931F93CF93DF93AF
:103CD000FB01238121FD03C08FEF9FEF28C022FF4E
:103CE00016C046815781248135814217530744F419
:103CF000A081B1819D012F5F3F4F318320838C9341
:103D0000268137812F5F3F4F3783268310C0EB0119
:103D1000092F182F0084F185E02D0995892BE1F6F4
:103D20008E819F8101969F838E83812F902FDF91BB
:103D3000CF911F910F910895FA01AA27283051F1D0
:103D4000203181F1E8946F936E7F6E5F7F4F8F4FCC
:103D50009F4FAF4FB1E03ED0B4E03CD0670F781F2B
:103D6000891F9A1FA11D680F791F8A1F911DA11D10
:103D70006A0F711D811D911DA11D20D009F4689449
:103D80003F912AE0269F11243019305D3193DEF6F1
:103D9000CF010895462F4770405D4193B3E00FD0A7
:103DA000C9F7F6CF462F4F70405D4A3318F0495D92
:103DB00031FD4052419302D0A9F7EACFB4E0A69575
:103DC0009795879577956795BA95C9F70097610597
:103DD000710508959B01AC010A2E069457954795ED
:103DE00037952795BA95C9F7620F731F841F951FE2
:103DF000A01D08952F923F924F925F926F927F92F3
:103E00008F929F92AF92BF92CF92DF92EF92FF92EA
:103E10000F931F93CF93DF93CDB7DEB7CA1BDB0B96
:103E20000FB6F894DEBF0FBECDBF09942A8839883B
:103E300048885F846E847D848C849B84AA84B98442
:103E4000C884DF80EE80FD800C811B81AA81B9814E
:103E5000CE0FD11D0FB6F894DEBF0FBECDBFED0162
:063E60000895F894FFCF65
:103E66005D025D02FFFF01010000BC07800000004B
:103E76000000BE055701CD0284029302AB026A021E
:103E860000000000EA01570182013102B3019101ED
:103E9600A50100000000D9025701CD02CC02D902CB
:103EA600D902D90200000000D9025701CD02CC0286
:103EB6006574783D253032580A000D0A002C005FE3
:103EC600003A006E616E00696E66006F76660000ED
:00000001FF
