:1000000071C100000C94821C0C94A91C0C94AD19B5
:100010000C94D0190C94F319ADC100008BC10000F1
:1000200089C1000087C1000085C1000083C10000B4
:1000300081C100007FC100007DC100007BC10000C4
:100040000C94DD0C77C100000C94640A0C94960AA1
:1000500071C100006FC100006DC100006BC10000E4
:1000600069C1000067C1000007634236B79BD8A78B
:100070001A39685618AEBAAB558C1D3CB7CC5763CD
:10008000BD6DEDFD753EF6177231BF000000803F7B
:1000900008000000BE922449123EABAAAA2ABECD97
:1000A000CCCC4C3E00000080BEABAAAAAA3E000009
:1000B0000000BF000000803F000000000008417801
:1000C000D3BB4387D1133D190E3CC3BD4282AD2B38
:1000D0003E68EC8276BED98FE1A93E4C80EFFFBE30
:1000E00001C4FF7F3F000000000000000008000284
:1000F00001000003040700000000000000000102EE
:1001000004081020408001020408102001020408A5
:100110001020040404040404040402020202020283
:10012000030303030303000000002300260029004B
:1001300000000000250028002B0000000000240023
:1001400027002A00005EBCE2613FDD83C29C7E2066
:10015000A3FD1F419DC3217FFCA2401E5F01E3BDA3
:100160003E6082DC237D9FC1421CFEA0E1BF5D0397
:1001700080DE3C62BEE0025CDF81633D7C22C09E8B
:100180001D43A1FF4618FAA427799BC584DA386677
:10019000E5BB5907DB856739BAE406581947A5FB63
:1001A0007826C49A653BD987045AB8E6A7F91B4557
:1001B000C6987A24F8A6441A99C7257B3A6486D84B
:1001C0005B05E7B98CD2306EEDB3510F4E10F2AC37
:1001D0002F7193CD114FADF3702ECC92D38D6F3123
:1001E000B2EC0E50AFF1134DCE90722C6D33D18F17
:1001F0000C52B0EE326C8ED0530DEFB1F0AE4C120B
:1002000091CF2D73CA947628ABF517490856B4EAF6
:100210006937D58B5709EBB536688AD495CB2977E2
:10022000F4AA4816E9B7550B88D6346A2B7597C9D6
:100230004A14F6A8742AC896154BA9F7B6E80A54CA
:10024000D7896B3500C201000100110011000C00BC
:1002500000E100000A0025002500210000960000B2
:100260001900390039003600127A00001F004600DC
:10027000460044008070000022004D004D004A00FE
:10028000004B000036007500750072004038000019
:100290004A009C009C009900802500007200EC0040
:1002A000EC00E900C0120000E900DA01DA01D70130
:1002B00060090000D701B603B603B303B004000021
:1002C000B3036E076E076B07580200006E07DC0E63
:1002D000DC0ED80E2C010000DC0EC11DC11DBE1DA0
:1002E0000809C40A11241FBECFEFD8E0DEBFCDBF7E
:1002F00012E0A0E0B1E0E6E8FAE402C005900D9259
:10030000AA30B107D9F727E0AAE0B2E001C01D92F8
:10031000A730B207E1F712E0C4EED2E004C02297A2
:10032000FE010E94501DC03ED107C9F70E94CF0CAC
:100330000C94412565CE6093A4047093A50480932A
:10034000A6049093A70408956115710581F0DB015F
:100350000D900020E9F7AD0141505109461B570BA4
:10036000DC01ED91FC910280F381E02D099480E0A5
:1003700090E008951F920F920FB60F9211242F93C1
:100380003F934F935F936F937F938F939F93AF931D
:10039000BF93EF93FF930E945B1CFF91EF91BF917E
:1003A000AF919F918F917F916F915F914F913F910D
:1003B0002F910F900FBE0F901F9018950F931F93C2
:1003C0008B019C010E5F1F4F2F4F3F4FF801E755E8
:1003D000FB4F2081DC01CB010396A11DB11DFC0167
:1003E000E755FB4F608170E0762F6627620F711D25
:1003F000882777FD8095982F1F910F91089569E1C7
:1004000070E080E090E0DADF60930206709303060C
:1004100080930406909305066BE270E080E090E024
:10042000CDDF7093F9056093F80561E370E080E03B
:1004300090E0C4DF7093FB056093FA0567E370E01A
:1004400080E090E0BBDF7093FD056093FC056DE3F9
:1004500070E080E090E0B2DF44E6469F9001479F65
:10046000300D1124309301062093000669E470E0FA
:1004700080E090E0A3DF7093FF056093FE05089590
:10048000CF93DF9300D000D01F92CDB7DEB790E1BD
:10049000998390E49A838B83805C8C8386E18D833F
:1004A000BE016F5F7F4F80910805909109054CDF79
:1004B0000F900F900F900F900F90DF91CF910895B4
:1004C000CF93DF9300D000D01F92CDB7DEB790E17D
:1004D00099839BE59A838B83855A8C8386E18D83F0
:1004E0001E82BE016F5F7F4F8091080590910905C4
:1004F0002BDF0F900F900F900F900F90DF91CF9107
:100500000895CF93DF9300D000D01F92CDB7DEB710
:1005100080E1898380E48A838DEF8B838DE38C83F4
:1005200086E18D83BE016F5F7F4F809108059091BA
:1005300009050ADF0F900F900F900F900F90DF9139
:10054000CF910895CF92DF92EF92FF921F93CF93B6
:10055000DF9310E0812F94DF0E94270D6B017C0157
:10056000C0E0D0E00E94270D6C197D098E099F091B
:100570006A30710581059105F0F48091080590912C
:100580000905DC01ED91FC910480F581E02D0995D0
:10059000892B41F38091080590910905DC01ED91CB
:1005A000FC910680F781E02D0995209711F4853E96
:1005B00071F02196D7CF123321F0143611F016398D
:1005C00009F4A8951F5F1B3F29F680E001C0812F29
:1005D000DF91CF911F91FF90EF90DF90CF90089522
:1005E000EF92FF920F931F93CF93DF9329E288E15D
:1005F00090E00FB6F894A895809360000FBE20930A
:10060000600026E040E052EC61E070E08AE096E0B5
:10061000F9D68DE095E00E941B171AE9E12E19E941
:10062000F12E09ED1FE320E030E043E853E460E001
:1006300070E08AE895E00E94171120E030E040EA7F
:1006400051E461E070E08AE895E00E94331120E017
:1006500030E043E853E460E070E08EE295E00E9411
:10066000171120E030E040EA51E462E070E08EE2F1
:1006700095E00E94331164E670E080E090E00E9413
:10068000560D81E290E00E94DB0CEC0120E045E099
:1006900064E00E943A1BD0930905C093080525E346
:1006A00033E040E659E060E070E0CE010E946C1B50
:1006B000A89527DF80910C05811103C043DF80934B
:1006C0000C05A89564E670E080E090E00E94560D6D
:1006D00061E070E08AE092E00E94170F10929C04A3
:1006E00010929D0410929E0410929F041092980400
:1006F0001092990410929A0410929B04A89520914C
:10070000130130911401409115015091160160912F
:100710001701709118018091190190911A010E949E
:10072000541D20911B0130911C0140911D015091DD
:100730001E010E94BD1D60939004709391048093EC
:100740009204909393042091070130910801409105
:10075000090150910A0160910B0170910C01809187
:100760000D0190910E010E94541D20910F013091B6
:10077000100140911101509112010E94BD1D609322
:100780008C0470938D0480938E0490938F04DF917A
:10079000CF911F910F91FF90EF9008954F925F922C
:1007A0006F927F928F929F92AF92BF92CF92DF9281
:1007B000EF92FF920F931F93CF930E94270D6093A8
:1007C00000057093010580930205909303058AE06C
:1007D00092E00E94C3108F3F0FEF900729F0682F1F
:1007E0008AE092E00E941710809100059091010527
:1007F000A0910205B09103054091040550910505B3
:1008000060910605709107058C019D01041B150B75
:10081000260B370BB901A801483456426105710512
:1008200028F420910601222309F427C4A895809377
:10083000040590930505A0930605B0930705109253
:10084000060180910C05882311F03ADE0EC08091DC
:100850000A0590910B050B9744F074DE80930C050C
:1008600010920B0510920A05A8951092FB041092A5
:10087000FA040E94270D6B017C01C0E00E94270D45
:100880006C197D098E099F09683E734081059105A9
:1008900008F0A4C48091080590910905DC01ED9150
:1008A000FC910480F581E02D0995892B39F3809125
:1008B000080590910905DC01ED91FC910680F78116
:1008C000E02D09952091FA043091FB04F901E755D8
:1008D000FB4F80832F5F3F4F3093FB042093FA043C
:1008E0008091A904883621F01092FB041092FA043A
:1008F0008091FA049091FB04039709F4DCC3809182
:10090000FA049091FB048035910509F0B7CF10925D
:10091000FB041092FA04C1E0A89568EC70E080E056
:1009200090E00E94560D8DE095E00E94EE1760E089
:100930008DE095E00E94771820E030E048EC52E42A
:100940000E94381F0E94251E7093EB056093EA05F4
:1009500061E08DE095E00E94771820E030E048ECFF
:1009600052E40E94381F0E94251E7093ED0560938B
:10097000EC0562E08DE095E00E94771820E030E021
:1009800048EC52E40E94381F0E94251E7093F10526
:100990006093F00563E08DE095E00E94771820E019
:1009A00030E048EC52E40E94381F0E94251E7093EC
:1009B000EF056093EE0568EC70E080E090E00E9447
:1009C000560D04E610E0412C512C3201C12CD12CE3
:1009D000760183E00E94D30DAA2797FDA095BA2F38
:1009E000C80ED91EEA1EFB1E84E00E94D30DAA2762
:1009F00097FDA095BA2F480E591E6A1E7B1E015006
:100A0000110939F724E6822E912CA12CB12CC301B7
:100A1000B201A50194010E94F71CB901882777FD56
:100A20008095982F0E94581E20E030EC4FE754E448
:100A30000E94BD1D23E333E343E550E40E94381FC9
:100A40002B013C01C701B601A50194010E94F71CCE
:100A5000B901882777FD8095982F0E94581E20E0C5
:100A600030EC4FE754E40E94BD1D23E333E343E53C
:100A700050E40E94381F20910701309108014091F5
:100A8000090150910A010E94541D20918C0430915B
:100A90008D0440918E0450918F040E94BD1D4B0126
:100AA0005C0120E030E0A9010E94B91D87FF03C06E
:100AB000812C912C5401209113013091140140910B
:100AC000150150911601C301B2010E94541D2091DD
:100AD00090043091910440919204509193040E94AB
:100AE000BD1D6B017C0120E030E0A9010E94B91D11
:100AF00087FF03C0C12CD12C76012DEC3CEC4CECD3
:100B00005EE3C301B2010E94B91D87FF03C0C12C7F
:100B1000D12C760120E030E048EC52E4C501B4016C
:100B20000E94381F0E94251E7093F3056093F20502
:100B300020E030E040E752E4C701B6010E94381FD0
:100B40000E94251E7093F5056093F40520E030E0C7
:100B500040E752E4C701B6010E94BD1D20E038EA1B
:100B600042E855E40E94381F6B017C016091EA0560
:100B70007091EB05882777FD8095982F0E94581E6D
:100B80004B015C016091EC057091ED05882777FDC4
:100B90008095982F0E94581E9B01AC01C501B4019D
:100BA0000E94541D2AE037ED43E25CE30E94381FA7
:100BB0009B01AC01C701B6010E94381F0E94251E8F
:100BC0007093F7056093F605A8958091A404909121
:100BD000A504A091A604B091A70480930606909363
:100BE0000706A0930806B0930906809188049091A7
:100BF0008904A0918A04B0918B040196A11DB11DB6
:100C00008093880490938904A0938A04B0938B0402
:100C100064E271E08AE096E022D540918804509128
:100C2000890460918A0470918B042AE030E08AE0A4
:100C300096E0BFD50AE010E080E0B5D781E0B3D7F9
:100C400082E0B1D701501109B9F768EC70E080E09B
:100C500090E02CD740ED57E06EE170E08AE895E037
:100C60000E94691160918A0570918B0580918C05B5
:100C700090918D050E94251E7093E7056093E6050F
:100C800040ED57E06EE170E08EE295E00E94691160
:100C900060912E0570912F0580913005909131055E
:100CA0000E94251E7093E9056093E805D0D6209137
:100CB0009404309195047B01E21AF30AC8D660933C
:100CC0009404709395048093960490939704809075
:100CD0008A0590908B05A0908C05B0908D0520E042
:100CE00030E0A901C501B4010E942D1F18160CF4B3
:100CF000F0C180902E0590902F05A0903005B09007
:100D0000310520E030E0A901C501B4010E942D1F8A
:100D100018160CF421C2A89569E271E08AE096E009
:100D20009ED46091E6057091E7054AE050E08AE0C4
:100D300096E038D562E371E08AE096E090D4609165
:100D4000E8057091E9054AE050E08AE096E02AD58E
:100D50006BE371E08AE096E082D440919C0450916C
:100D60009D0460919E0470919F042AE030E08AE027
:100D700096E01FD566E471E08AE096E070D4409179
:100D800098045091990460919A0470919B042AE010
:100D900030E08AE096E00DD56091EE057091EF05A8
:100DA000882777FD8095982F0E94581E2AE037EDFE
:100DB00043E25CE30E94381F20E030E04EEF52EC4B
:100DC0000E94B91D8823E1F061E571E08AE096E0B8
:100DD00046D46091EE057091EF05882777FD8095E8
:100DE000982F0E94581E2AE037ED43E25CE30E94F0
:100DF000381FAB01BC0122E030E08AE096E0CDD59F
:100E00006091F0057091F105882777FD8095982F06
:100E10000E94581E2AE037ED43E25CE30E94381F2F
:100E200020E030E04EEF52EC0E94B91D8823E1F043
:100E30006DE571E08AE096E012D46091F005709162
:100E4000F105882777FD8095982F0E94581E2AE08B
:100E500037ED43E25CE30E94381FAB01BC0122E0A6
:100E600030E08AE096E099D56091EA057091EB0553
:100E7000882777FD8095982F0E94581E2AE037ED2D
:100E800043E25CE30E94381F20E030E04EEF52EC7A
:100E90000E94B91D8823E1F068E671E08AE096E0DF
:100EA000DED36091EA057091EB05882777FD809588
:100EB000982F0E94581E2AE037ED43E25CE30E941F
:100EC000381FAB01BC0122E030E08AE096E065D536
:100ED0006091EC057091ED05882777FD8095982F3E
:100EE0000E94581E2AE037ED43E25CE30E94381F5F
:100EF00020E030E04EEF52EC0E94B91D8823E1F073
:100F000062E771E08AE096E0AAD36091EC05709107
:100F1000ED05882777FD8095982F0E94581E2AE0BE
:100F200037ED43E25CE30E94381FAB01BC0122E0D5
:100F300030E08AE096E031D5CC2309F483C05FDA53
:100F40006EE771E08AE096E08AD36091F8057091CF
:100F5000F905882777FD8095982F0E94581E2AE072
:100F600037ED43E25CE30E94381FAB01BC0122E095
:100F700030E08AE096E011D568E871E08AE096E01A
:100F80006ED36091FA057091FB05882777FD8095F7
:100F9000982F0E94581E2AE037ED43E25CE30E943E
:100FA000381FAB01BC0122E030E08AE096E0F5D4C6
:100FB00064E971E08AE096E052D36091FC0570919B
:100FC000FD05882777FD8095982F0E94581E2AE0FE
:100FD00037ED43E25CE30E94381FAB01BC0122E025
:100FE00030E08AE096E0D9D46FE971E08AE096E0DB
:100FF00036D36091FE057091FF054AE050E08AE02B
:1010000096E0D0D36CEA71E08AE096E028D3609154
:101010000006709101064AE050E08AE096E0C2D3F3
:1010200065EB71E08AE096E01AD340910206509198
:10103000030660910406709105062AE030E08AE01C
:1010400096E069D36DEB71E08AE096E008D34091B9
:1010500006065091070660910806709109062AE07D
:1010600030E08AE096E057D38AE096E001D364E668
:1010700070E080E090E01AD5A895E9D4C090FC0417
:10108000D090FD04E090FE04F090FF046C197D09FF
:101090008E099F09693E73408105910508F4A8C037
:1010A000D6D46093FC047093FD048093FE04909367
:1010B000FF04A8959DC08091AA049091AB04891368
:1010C00003C08093A8041BCC1092FB041092FA0476
:1010D00016CC1E141F040CF00CCEB701882777FD28
:1010E0008095982F0E94581E9B01AC01C501B40148
:1010F0000E94381F2FE632E143E85AE30E94381F6E
:101100000E94251E2091A2043091A304260F371FB0
:10111000C90160E17EE00E94E41C9C014B01AA240D
:1011200097FCA094BA2C80919C0490919D04A0916E
:101130009E04B0919F04880D991DAA1DBB1D80932C
:101140009C0490939D04A0939E04B0939F043093BD
:10115000A3042093A204CDCD1E141F040CF0DBCDFC
:10116000B701882777FD8095982F0E94581E9B0114
:10117000AC01C501B4010E94381F2FE632E143E8FB
:101180005AE30E94381F0E94251E2091A00430912E
:10119000A104260F371FC90160E17EE00E94E41C14
:1011A0006B01EE24D7FCE094FE2C40919804509102
:1011B000990460919A0470919B044C0D5D1D6E1D05
:1011C0007F1D409398045093990460939A04709300
:1011D0009B049093A1048093A0049DCD80910A0567
:1011E00090910B05019690930B0580930A0594CB83
:1011F000CF911F910F91FF90EF90DF90CF90BF9014
:10120000AF909F908F907F906F905F904F900895D8
:1012100063E180E295E00E945C1560E275E08DE09C
:1012200095E00E94221610927F0410927E04109284
:101230008104109280048BE991E09093870480935D
:1012400086040895FC01818D228D90E0805C9F4F83
:10125000821B91098F7399270895FC01918D828DCE
:10126000981731F0828DE80FF11D858D90E008957B
:101270008FEF9FEF0895FC01918D828D981761F09B
:10128000828DDF01A80FB11D5D968C91928D9F5FBD
:101290009F73928F90E008958FEF9FEF08958BEBEF
:1012A0009AE0892B41F080E090E0892B21F063D116
:1012B00081110C9400000895FC01848DDF01A80FBA
:1012C000B11DA35ABF4F2C91848D90E001968F736E
:1012D0009927848FA689B7892C93A089B1898C918D
:1012E00080648C93938D848D981306C00288F38953
:1012F000E02D80818F7D80830895CF93DF93EC0173
:10130000888D8823C1F0EA89FB89808185FD05C02D
:10131000A889B9898C9186FD0EC00FB607FCF5CF60
:10132000808185FFF2CFA889B9898C9185FFEDCFA7
:10133000CE01C2DFE8CFDF91CF910895CF92DF9247
:10134000FF920F931F93CF93DF931F92CDB7DEB71A
:101350006C0181E0D60158968C9358975B969C91CE
:101360005B975C968C915C97981307C05096ED91B3
:10137000FC915197808185FD2DC0F601038D10E011
:101380000F5F1F4F0F731127F02EF601848DF81297
:1013900010C00FB607FCF9CFD6015096ED91FC9125
:1013A0005197808185FFF1CFC601698385DF69810F
:1013B000ECCF838DE80FF11DE35AFF4F6083D60118
:1013C0005B960C935B975296ED91FC9153978081BD
:1013D00080620CC0D6015696ED91FC9157976083C0
:1013E0005096ED91FC91519780818064808381E0DB
:1013F00090E00F90DF91CF911F910F91FF90DF90C0
:10140000CF900895BF92CF92DF92EF92FF92CF9349
:10141000DF93EC016A017B01B22EE889F98982E051
:101420008083411581EE580761057105A1F060E0E8
:1014300079E08DE390E0A70196010E94F71C21500E
:101440003109410951095695479537952795211539
:1014500080E1380798F0E889F989108260E874E83B
:101460008EE190E0A70196010E94F71C21503109FE
:10147000410951095695479537952795EC85FD8586
:101480003083EE85FF852083188EEC89FD89B0823C
:10149000EA89FB89808180618083EA89FB89808178
:1014A00088608083EA89FB89808180688083EA89FB
:1014B000FB8980818F7D8083DF91CF91FF90EF90BA
:1014C000DF90CF90BF9008951F920F920FB60F92AA
:1014D00011242F938F939F93EF93FF93E0911A061C
:1014E000F0911B068081E0912006F091210682FD9B
:1014F00012C09081809123068F5F8F732091240604
:10150000821751F0E0912306F0E0E65FF94F958FE6
:101510008093230601C08081FF91EF919F918F916D
:101520002F910F900FBE0F901F9018951F920F9242
:101530000FB60F9211242F933F934F935F936F93A6
:101540007F938F939F93AF93BF93EF93FF938AE023
:1015500096E0B2DEFF91EF91BF91AF919F918F9195
:101560007F916F915F914F913F912F910F900FBE9F
:101570000F901F9018958AE096E064DE21E0892B99
:1015800009F420E0822F089510920D0610920C06A7
:1015900088EE93E0A0E0B0E080930E0690930F06F3
:1015A000A0931006B09311068DEC91E090930B067A
:1015B00080930A0685EC90E09093170680931606B8
:1015C00084EC90E0909319068093180680EC90E0EC
:1015D00090931B0680931A0681EC90E090931D0671
:1015E00080931C0682EC90E090931F0680931E0669
:1015F00086EC90E0909321068093200610922306BB
:101600001092240610922506109226060895CF9275
:10161000DF92EF92FF920F931F93CF93DF937C01A2
:101620006A01EB0100E010E00C151D0571F06991F5
:10163000D701ED91FC910190F081E02DC701099552
:10164000892B19F00F5F1F4FEFCFC801DF91CF91AA
:101650001F910F91FF90EF90DF90CF9008950C9421
:10166000A401DC01ED91FC910190F081E02D099441
:1016700069ED71E00C94A4018F929F92AF92BF929A
:10168000DF92EF92FF920F931F93CF93DF93CDB72B
:10169000DEB7A1970FB6F894DEBF0FBECDBF7C01B9
:1016A000F42FD52ECB0119A2223008F42AE08E01A6
:1016B0000F5D1F4F822E912CA12CB12C6F2F7D2DF1
:1016C000A50194010E94F71CF22FD32ECA010150EC
:1016D00011096A3014F4E0E301C0E7E3E60FD80132
:1016E000EC93232B242B252B49F7B801C7010E942B
:1016F000A401A1960FB6F894DEBF0FBECDBFDF9157
:10170000CF911F910F91FF90EF90DF90BF90AF901E
:101710009F908F900895CF92DF92EF92FF920F9358
:101720001F93CF93DF93EC016A017B0121153105F3
:1017300079F4E881F9810190F081E02D642FDF9147
:10174000CF911F910F91FF90EF90DF90CF90099470
:101750002A303105D9F477FF18C06DE282DF8C01A1
:1017600044275527BA014C195D096E097F092AE003
:10177000CE0182DF800F911FDF91CF911F910F91DA
:10178000FF90EF90DF90CF9008952AE0B701A60177
:10179000CE01DF91CF911F910F91FF90EF90DF90DD
:1017A000CF906ACF9A01AB01662757FD6095762FDF
:1017B000B2CF2115310541F4DC01ED91FC9101908E
:1017C000F081E02D642F099457CF4F925F926F9272
:1017D0007F928F929F92AF92BF92CF92DF92EF92C1
:1017E000FF920F931F93CF93DF93EC016A017B016C
:1017F000B22E9A01AB01C701B6010E94492088238D
:1018000019F06CED71E027C026013701E89477F8F4
:101810002FEF3FEF4FE75FE7C301B2010E9449207E
:1018200081110DC02FEF3FEF4FE75FE7C301B2011A
:101830000E94B91D18161CF460EE71E00CC02FEF69
:101840003FEF4FE75FE4C701B6010E942D1F181656
:10185000ACF464EE71E0CE01DF91CF911F910F9156
:10186000FF90EF90DF90CF90BF90AF909F908F90C0
:101870007F906F905F904F900C94A4012FEF3FEFFB
:101880004FE75FECC701B6010E94B91D87FDE1CFAC
:1018900020E030E0A901C701B6010E94B91D87FF11
:1018A00009C06DE2CE01DDDE8C01F7FAF094F7F8A5
:1018B000F09402C000E010E0A12C60E070E080E055
:1018C0009FE3AB1441F020E030E040E251E40E949D
:1018D000BD1DA394F6CF9B01AC01C701B6010E94C8
:1018E000551D6B017C010E942A1E2B013C010E94A8
:1018F000561E9B01AC01C701B6010E94541D6B012D
:101900007C012AE0B301A201CE01B6DE080F191F47
:10191000BB2039F068EE71E0CE010E94A401080FEF
:10192000191F7B2C772039F120E030E040E251E4B0
:10193000C701B6010E94381F6B017C010E94251E61
:101940004B01AA2497FCA094BA2C2AE030E0B50100
:10195000A401CE01E0DE080F191FC501B4010E94E9
:10196000581E9B01AC01C701B6010E94541D6B01BA
:101970007C017A94D7CFC801DF91CF911F910F914D
:10198000FF90EF90DF90CF90BF90AF909F908F909F
:101990007F906F905F904F90089517CF0895C8D0B3
:1019A000FDDF0E94F002CFE4D9E00E94CE03209731
:1019B000E1F375DCFACF0C945C211F920F920FB605
:1019C0000F9211242F933F938F939F93AF93BF93C5
:1019D0008091A8069091A906A091AA06B091AB06A5
:1019E0003091A70623E0230F2D3720F40196A11D87
:1019F000B11D05C026E8230F0296A11DB11D20933D
:101A0000A7068093A8069093A906A093AA06B09370
:101A1000AB068091AC069091AD06A091AE06B09158
:101A2000AF060196A11DB11D8093AC069093AD0643
:101A3000A093AE06B093AF06BF91AF919F918F91E7
:101A40003F912F910F900FBE0F901F9018952FB7B9
:101A5000F8946091A8067091A9068091AA069091C9
:101A6000AB062FBF08953FB7F8948091AC069091D4
:101A7000AD06A091AE06B091AF0626B5A89B05C0F5
:101A80002F3F19F00196A11DB11D3FBF6627782F8A
:101A9000892F9A2F620F711D811D911D42E0660FE3
:101AA000771F881F991F4A95D1F708958F929F92AB
:101AB000AF92BF92CF92DF92EF92FF926B017C01C7
:101AC000D2DF4B015C01C114D104E104F104E1F067
:101AD0001ED1C9DF681979098A099B09683E7340DC
:101AE0008105910580F321E0C21AD108E108F108CF
:101AF00088EE880E83E0981EA11CB11CC114D1048D
:101B0000E104F10431F7DFCFFF90EF90DF90CF9049
:101B1000BF90AF909F908F9008958230910538F0DC
:101B2000880F991F880F991F05970197F1F708955E
:101B3000789484B5826084BD84B5816084BD85B5A8
:101B4000826085BD85B5816085BDEEE6F0E080816F
:101B500081608083E1E8F0E0108280818260808390
:101B6000808181608083E0E8F0E080818160808313
:101B7000E1EBF0E0808184608083E0EBF0E0808145
:101B800081608083EAE7F0E08081846080838081E7
:101B9000826080838081816080838081806880838F
:101BA0001092C10008958E3008F08E5087702091F9
:101BB0001F0190E4299F90011124822B80937C00C7
:101BC00080917A00806480937A0080917A0086FD0B
:101BD000FCCF809178002091790090E0922B0895BD
:101BE000833081F028F4813099F08230A1F008959B
:101BF0008730A9F08830B9F08430D1F4809180002A
:101C00008F7D03C0809180008F778093800008953E
:101C100084B58F7702C084B58F7D84BD089580918F
:101C2000B0008F7703C08091B0008F7D8093B000AB
:101C30000895CF93DF9390E0FC01E250FF4F249191
:101C4000FC01EE5EFE4F8491882349F190E0880FFD
:101C5000991FFC01E65CFE4FA591B491805D9E4FFB
:101C6000FC01C591D4919FB7611108C0F8948C9183
:101C7000209582238C93888182230AC0623051F49C
:101C8000F8948C91322F309583238C938881822B0A
:101C9000888304C0F8948C91822B8C939FBFDF9132
:101CA000CF9108950F931F93CF93DF931F92CDB7DA
:101CB000DEB7282F30E0F901E651FF4F8491F9019A
:101CC000E250FF4F1491F901EE5EFE4F04910023A4
:101CD000C1F0882319F0698383DF6981E02FF0E088
:101CE000EE0FFF1FE05DFE4FA591B4919FB7F894F2
:101CF0008C91611103C01095812301C0812B8C93BD
:101D00009FBF0F90DF91CF911F910F91089508957C
:101D1000BF92CF92DF92EF92FF920F931F93CF93D8
:101D2000DF93EC018B01FC0160E070E0CB015AE035
:101D3000B52E9F012C1B3D0B2017310714F5F19098
:101D4000A4E6B0E09B01AC010E94441D2F2D2F7032
:101D5000620F711D811D911D2F2D30E044E03595DE
:101D600027954A95E1F7B29E6001B39ED00C1124ED
:101D7000EE24D7FCE094FE2C6C0D7D1D8E1D9F1D66
:101D8000D8CFDF91CF911F910F91FF90EF90DF900F
:101D9000CF90BF900895CF93DF93EC0164DE209144
:101DA000B4063091B506AB01421B530B6093B406E9
:101DB0007093B5068093B6069093B706CA01805318
:101DC0009F4F60EA71E00E94E41CDE01B3954D91E3
:101DD0005C9111979A012F5F3F4F2038310514F025
:101DE00020E030E0CE018E5F9E4FFC01808191812A
:101DF0002817390749F0FA01EE0FFF1FEC0FFD1FFE
:101E0000718360832D933C93DF91CF9108958091EE
:101E1000B0069091B106009709F0BDCF089580916A
:101E2000B2069091B306009709F0B5CF0895FC0172
:101E3000EE5FFE4F11821082329711821082EA5FAC
:101E4000FE4F11821082329711821082FB01EE0F39
:101E5000FF1FE055F94F918380836115710521F0D3
:101E60006130710539F0089543E050E067E07FE0AC
:101E700080E005C043E050E06FE07FE081E00C943B
:101E8000621CEF92FF920F931F93CF93DF93FC019D
:101E9000E85FFD4F208131813595279561157105EA
:101EA00009F03E5F3183208320813181DC01A65F10
:101EB000BD4F2115310541F04D915C9111974F5F58
:101EC0005F4F11965C934E934D915C9111974A3000
:101ED0005105B4F120FF30C0672B71F5359527957A
:101EE00033272095BC016C5F7D4FEB01E880F980C2
:101EF000A7014F5F5F4F4038510514F040E050E0BC
:101F00008C010C5F1E4F8A5F9D4FEC018881998187
:101F10004817590751F0E701CC0FDD1FC00FD11F43
:101F200039832883EB01598348831D921C921182C7
:101F3000108281E090E006C01D921C9211821082F6
:101F400080E090E0DF91CF911F910F91FF90EF9093
:101F50000895EF92FF920F931F93CF93DF93EC01BD
:101F60008C01065F1D4FF801808191819E01285FE1
:101F70003D4F7901892B69F4F80111821082F70134
:101F800011821082DF91CF911F910F91FF90EF90FE
:101F90000895F70180819181892B71F360E070E0F1
:101FA000CE016FDFF6CF0F931F93CF93DF938C019A
:101FB000EB011C161D062CF0DF91CF911F910F91A4
:101FC000C8CF61E070E05DDFC130D10531F060E085
:101FD00070E0C80156DF2197F7CFDF91CF911F91B5
:101FE0000F910895642770E020E030E061157105DD
:101FF00039F060FF02C02F5F3F4F75956795F6CFB0
:1020000081E090E02230310514F080E090E0089506
:10201000CF93DF93EC0165E070E0875C9D4F78DE45
:10202000C458DD4FE881F981DF91CF910994CF92B7
:10203000DF92EF92FF920F931F93CF93DF9300D025
:1020400000D0CDB7DEB78C01462F19821A821B82D1
:102050001C8281E0898382E08C8388E68B8378010F
:102060008AE8E81A8DEFF80AF70180819181892BBF
:1020700011F5D801A758BD4F8C91B80168587D4F14
:10208000FB018083329620812C9312962C91208321
:102090004C9344E050E0CE0101960E948322892BAC
:1020A00009F064C0F801EC58FD4F1182108281E004
:1020B00090E0F70132C06801FCE8CF1AFDEFDF0ABB
:1020C000F601808191818836910560F49C012F5F33
:1020D0003F4F31832083080F191FF801E45FFD4F44
:1020E000608344C088369105D9F4633099F01F921B
:1020F0006F938AEE91E09F938F930E949022F60156
:1021000011821082F701118210820F900F900F90B0
:102110000F902CC089E690E0F6019183808326C061
:10212000FE013196CE01059650E02191520FE8173D
:10213000F907D9F7F801E45FFD4F20E030E0819125
:1021400090E0850F911D582F2F5F3F4F28363105A6
:10215000B1F7BC0177276D5F7F4FC80143DF892B43
:1021600011F0C80155DFF701118210820F900F9016
:102170000F900F90DF91CF911F910F91FF90EF90F3
:10218000DF90CF900895CF93DF93EC016CDC20912A
:10219000B4063091B506621B730B6035714214F0C2
:1021A000CE01D7DE9E012E5F3E4FD901ED91FC910D
:1021B000CE019395DC018D919C918E179F0719F4A8
:1021C0008FEF9FEF31C0CF0101968038910514F059
:1021D00080E090E0EE0FFF1FEC0FFD1F608171812A
:1021E000F90191838083CE01DEDEFE01EA5FFD4FBF
:1021F00080819181DE01AC5FBD4F2D913C9128170C
:102200003907F1F29C012F5F3F4F2038310514F060
:1022100020E030E0CC5FDE4F880F991FC80FD91F38
:102220008881998131832083DF91CF910895EF9246
:10223000FF920F931F93FC01758B648B208F318F5E
:10224000428F538FE0A2F1A202A313A340E050E01B
:1022500060E074E444AB55AB66AB77AB1F910F9174
:10226000FF90EF900895FC01778B668B248F358F5C
:10227000468F578F40E050E060E074E440AF51AFCC
:1022800062AF73AF08958EE480937C0062E070E0EB
:1022900080E090E00BDC80917A00806480937A008B
:1022A00080917A0086FDFCCF8091780020917900A2
:1022B00030E0322F2227442737FD4095542F282B1A
:1022C00060E070E381E190E00E94191DCA01B9014C
:1022D00008952F923F924F925F926F927F928F92CA
:1022E0009F92AF92BF92CF92DF92EF92FF920F93A5
:1022F0001F93CF93DF93CDB7DEB7A8970FB6F894AF
:10230000DEBF0FBECDBF98A78FA37E8F6D8F8A01D2
:10231000BADF6D8B7E8B8F8B988F99DB4B015C01C5
:102320006FA078A428E5620E711CC801A0E0B0E09F
:10233000898B9A8BAB8BBC8BAFA1B8A554968C9133
:1023400032DCF30191838083BC01882777FD80957F
:10235000982F0E94581E6B017C012DEC3CEC4CE048
:1023600054E40E94B91D87FF0BC011E026E636E653
:1023700046EE53E4C701B6010E942D1F18160CF05B
:1023800010E065DB681979098A099B0929893A896E
:102390004B895C89261737074807590708F03FC063
:1023A00056DB698F7A8F8B8F9C8F00E010E01A824A
:1023B00019824FA158A5405C5F4F58A34F8F8FA142
:1023C00098A58C5B9F4F9C878B87AFA1B8A5A85B16
:1023D000BF4FBAA3A9A3EFA1F8A5E45BFF4FFE8707
:1023E000ED872FA138A5205B3F4F3CA32BA34FA126
:1023F00058A54C5A5F4F588B4F878FA198A5865A86
:102400009F4F9E838D832FA038A49BE5290E311CFE
:10241000AFA1B8A5A85ABF4FBEA3ADA341C1112318
:1024200009F48ACFBDCF13DB298D3A8D4B8D5C8D9E
:10243000621B730B840B950B29893A894B895C8944
:10244000621773078407950708F032C10F5F1F4FAB
:10245000EFA1F8A584A595A5A6A5B7A580A791A7E6
:10246000A2A7B3A784899FDBAFA1B8A595969C933B
:102470008E93949756968C9196DB3C01EFA1F8A52C
:1024800097A386A324A135A13A872987B901882774
:1024900077FD8095982F0E94581E6B017C01AFA19B
:1024A000B8A5D4968D909D90AD90BC90D797A5017E
:1024B00094010E94541D20E030E040E85AE30E945D
:1024C000381F9B01AC01C501B4010E94551D9B0141
:1024D000AC01EFA1F8A564AB75AB86AB97ABC701B8
:1024E000B6010E94541D4B015C01AFA1B8A59C969A
:1024F0006D937D938D939C939F97B301882777FD70
:102500008095982F0E94581E6B017C01EFA1F8A5C1
:1025100040AC51AC62AC73ACA30192010E94541D5B
:1025200020E030E040E85AE30E94381F9B01AC01F4
:10253000C301B2010E94551D9B01AC01AFA1B8A51A
:10254000D8966D937D938D939C93DB97C701B601CD
:102550000E94541D6B017C01EFA1F8A560AB71AB2B
:1025600082AB93ABA5019401C501B4010E94381F51
:102570009B01AC01AF8DB8A16D937D938D939C931E
:102580001397EB85FC8560817181828193810E9424
:10259000551DAB85BC856D937D938D939C9313974F
:1025A000A7019601C701B6010E94381F9B01AC012B
:1025B000E9A1FAA16083718382839383AD85BE858F
:1025C0006D917D918D919C910E94551DED85FE85AB
:1025D0006083718382839383AFA1B8A598964D9051
:1025E0005D906D907C909B97A3019201C501B40111
:1025F0000E94541DEFA1F8A520A131A142A153A131
:102600000E94381F9B01AC01C301B2010E94551DFD
:10261000AFA1B8A5DC966D937D938D939C93DF97C6
:10262000A70196010E94381F9B01AC01EBA1FCA100
:102630006083718382839383AF85B8896D917D9127
:102640008D919C910E94551DEF85F889608371835F
:1026500082839383D1018C91ED81FE818083ADA132
:10266000BEA18D919C91E985FA858E179F070CF08C
:10267000F6C021E0F10120830130110529F4F101B8
:102680008081AD81BE818C93ED81FE819081D101ED
:102690008C91981729F0E981FA813196FA83E983C0
:1026A00029813A814D8D5E8D2417350708F4BBCE04
:1026B000AD89BE89BD01882777FD8095982F0E943E
:1026C000581E20E030E04AE754E40E94BD1D20E09F
:1026D00030E040E85AE30E94381F2B013C01EFA193
:1026E000F8A5208D318D428D538D0E94381F4B01EE
:1026F0005C01B80180E090E00E94561E6B017C01F5
:102700002FA038A4F4E42F0E311C9B01AC01D101A1
:102710006D917D918D919C910E94BD1D0E940B2019
:102720009B01AC01C501B4010E94381F69837A8303
:102730008B839C83EFA1F8A564877587868797872D
:10274000248D358D468D578DC301B2010E94381FEF
:102750002B013C010FA118A5045B1F4FA701960197
:10276000D8016D917D918D919C910E94BD1D0E941B
:102770000B209B01AC01C301B2010E94381F6D8385
:102780007E838F839887EFA1F8A5608B718B828BF6
:10279000938BA3019201C501B4010E94381FAFA021
:1027A000B8A4F4E5AF0EB11CD5012D913D914D912A
:1027B0005C910E94381FA70196010E94BD1D6B010C
:1027C0007C01EFA1F8A560837183828393832D81BF
:1027D0003E814F81588569817A818B819C810E94DD
:1027E000381F9B01AC01AFA1B8A514966D937D93E2
:1027F0008D939C931797C701B6010E94BD1DEFA151
:10280000F8A56087718782879387D1011D921D92F9
:102810001D921C921397F80110821182128213826A
:10282000D5011D921D921D921C921397A8960FB66A
:10283000F894DEBF0FBECDBFDF91CF911F910F91F6
:10284000FF90EF90DF90CF90BF90AF909F908F90D0
:102850007F906F905F904F903F902F900895D1019F
:102860001C920ACFFF920F931F93CF93DF93FC012B
:102870000081C181D281F8948981F02EF0948F215A
:10288000898378941DE7115009F182E090E045D9E1
:1028900088818023C1F3F8948A818F218A8389817A
:1028A000802B8983789480EE91E037D9F8948981E0
:1028B0008F21898386E490E030D98881802311E0DC
:1028C00009F010E078948AE991E027D9812FDF910F
:1028D000CF911F910F91FF9008951F93CF93DF9396
:1028E000FC011081C181D281912F909560FF11C0B0
:1028F000F8948A8189238A838981812B89838AE05C
:1029000090E00BD98A81812B8A83789487E390E0C9
:1029100010C0F8948A8189238A838981812B8983D5
:1029200081E490E0FAD88A81812B8A83789485E0CB
:1029300090E0DF91CF911F91F0C80F931F93CF9339
:10294000DF93FC011081C181D281F8948981812BB0
:1029500089838A81012F009580238A8383E090E018
:10296000DCD88981802389838AE090E0D6D8C88129
:10297000789485E390E0D1D81C2381E009F480E0CD
:10298000DF91CF911F910F910895CF92DF92EF9237
:10299000FF920F931F93CF93DF931F92CDB7DEB7B4
:1029A0006C01E62E08E010E0FF24F39461E09F2D17
:1029B0009E2109F460E0C60149838FDFFF0C0150BE
:1029C000110949810115110589F7411115C0F894C4
:1029D000D6011196ED91FC91129791818C91809581
:1029E000892381831196ED91FC91129792818C91AC
:1029F00080958923828378940F90DF91CF911F91E6
:102A00000F91FF90EF90DF90CF900895EF92FF929B
:102A10000F931F93CF93DF938C01C8E0D0E0F12C8C
:102A2000EE24E394C80189DF8111FE28EE0C219782
:102A3000C9F78F2DDF91CF911F910F91FF90EF90EC
:102A40000895CF92DF92FF920F931F93CF93DF935E
:102A50001F92CDB7DEB78C01F62E40E065E5798395
:102A600094DFCF2C7981D72E88E0F82EF601619182
:102A70006F0140E0C80189DFFA94C1F70F90DF9140
:102A8000CF911F910F91FF90DF90CF90089540E07C
:102A90006CEC7BCFFC0113861586148627E030E0B2
:102AA000DF01A20FB31F13961C922115310519F0F7
:102AB00021503109F5CF08951F93CF93DF93EC0197
:102AC000162F60E0812FB5D8612F70E0FB01E25036
:102AD000FF4FE491E883FB01EE5EFE4FE491F0E0EE
:102AE000EE0FFF1FEA5DFE4F859194919A838983D3
:102AF000CE01DF91CF911F91CDCFAF92BF92CF92F8
:102B0000DF92EF92FF920F931F93CF93DF931F9269
:102B1000CDB7DEB75C01D62EE72EFC01858581118D
:102B20005FC0C50149839EDE4981811105C0F50161
:102B30001386158614866DC0442319F040E060EFBB
:102B400002C040E06CEEC50120DF01E0F12CC12C99
:102B500011E0C501F2DE682FC5016983EEDE6981EF
:102B6000613019F48130B9F432C02F2D30E0681390
:102B70001BC0F5018385181730F4E20FF31F838122
:102B8000802349F402C0181731F060E0193058F47E
:102B9000F501148708C0F501EF0DF11D8381802B2D
:102BA000838361E009C0C12EF501E20FF31F838129
:102BB000902F909589238383C5018FDE1F5F000FBF
:102BC00011F4F39401E0F7E0FF1508F0C2CF1134DF
:102BD00038F0F501C386C11009C081E0858706C0C1
:102BE000F50113861586148680E013C0F5018381F4
:102BF0008823B1F3ED2DFE2D80E090E0D501A80FE4
:102C0000B91F13962C912193019688309105B1F745
:102C100081E00F90DF91CF911F910F91FF90EF9086
:102C2000DF90CF90BF90AF900895DC0180E06150BD
:102C300038F0ED91E827F0E0EC5BFE4F8491F7CFA0
:102C400008950895FC0181E296E1928B818B768351
:102C500065831482108289E0818381E0828383838B
:102C60000895CF93DF93EB0167E0CE01DEDF91E0C3
:102C70002F81821390E0892FDF91CF910895EF92F9
:102C8000FF920F931F93CF93DF93EC018B01E42E00
:102C90008D819E81FFDEF12C41E0B8018D819E8106
:102CA0002CDF882351F0FE1005C0B801CE01D9DF1A
:102CB000811104C0F394EF1478F780E0DF91CF9195
:102CC0001F910F91FF90EF900895CF92DF92EF92B6
:102CD000FF920F931F93CF93DF9300D0CDB7DEB752
:102CE0006C01F42EE52EFC018581968169837A833F
:102CF000B9DD69817A818823F1F0F60185819681B9
:102D0000A0DE40E06EEBF601858196813EDE0F2D60
:102D10001E2D89E0F82EF6018581968177DEF80177
:102D200081938F01FA94B9F7F601858196819ADD36
:102D300091E0813009F090E0892F0F900F90DF91A2
:102D4000CF911F910F91FF90EF90DF90CF9008955A
:102D5000CF93DF93EA01B9DF882349F068E0CE0121
:102D600064DF91E02885821390E0892F01C080E024
:102D7000DF91CF910895EF92FF921F93CF93DF934E
:102D800000D0CDB7DEB77C01FC01858196816983D7
:102D90007A8368DD69817A81F7018581968151DEC8
:102DA00040E064EBF70185819681EFDDF7018581D5
:102DB0009681C3DD182FF7018581968153DD81E06F
:102DC000111180E00F900F90DF91CF911F91FF9034
:102DD000EF900895CF93DF93CDB7DEB729970FB665
:102DE000F894DEBF0FBECDBFFB0120812031C9F0BA
:102DF000AE014F5F5F4FACDF882379F08D818F3359
:102E000051F020F48F3149F489E00CC08F3539F04E
:102E10008F3739F002C08AE005C080E003C08BE044
:102E200001C08CE029960FB6F894DEBF0FBECDBF6F
:102E3000DF91CF910895FF920F931F93CF93DF936C
:102E4000CDB7DEB728970FB6F894DEBF0FBECDBF63
:102E50008C01FC01858196811DDEF801148241E020
:102E6000BE016F5F7F4FF8018581968146DE882322
:102E700069F1BE016F5F7F4FC801F3DE882379F3EC
:102E8000F8018081811107C0BE016F5F7F4FC801CB
:102E900072DF811117C0F801F180BE016F5F7F4FB3
:102EA000C80198DF8F1518F4F801818105C0BE01B3
:102EB0006F5F7F4FC8018EDFF801818384818F5F50
:102EC0008483CDCF81E0F8018083E5CF28960FB6CB
:102ED000F894DEBF0FBECDBFDF91CF911F910F9150
:102EE000FF900895CF93DF93CDB7DEB729970FB644
:102EF000F894DEBF0FBECDBFAE014F5F5F4FE5DE82
:102F000081E09981911101C080E029960FB6F89473
:102F1000DEBF0FBECDBFDF91CF9108958F929F92FC
:102F2000AF92BF92CF92DF92EF92FF920F931F93D7
:102F3000CF93DF93EC018A016950633048F4E62FA8
:102F4000F0E0EE0FFF1FEC50FE4F8080918004C038
:102F50009EEE892E92E0992E01151105F9F08B81D4
:102F60008823E1F08881811119C00E94270D6B012F
:102F70007C01AA2497FCA094BA2CB801CE01B2DF40
:102F800081111FC00E94270D681979098A099B09C0
:102F90006C157D058E059F05A0F4EFCFB401882741
:102FA00077FD8095982FDF91CF911F910F91FF9022
:102FB000EF90DF90CF90BF90AF909F908F900C9448
:102FC000560DDF91CF911F910F91FF90EF90DF9001
:102FD000CF90BF90AF909F908F900895CF93DF9345
:102FE000EC018D819E813EDC8D819E8150DD48818A
:102FF00064E48D819E81C9DC8A81882339F040E0B8
:1030000050E06981CE01DF91CF9188CFDF91CF91E0
:103010000895FA01208148E0249F900111248181C4
:1030200090E0982F8827990F990F990F282B392B0B
:10303000DB018C918031B9F4678170E08681AB014E
:10304000481B5109CA019695982F8827979587950F
:10305000BBD460517109207F53E0220F331F5A9572
:10306000E1F7260F371FC9010895EF92FF920F93E2
:103070001F93CF93DF93CDB7DEB729970FB6F894A0
:10308000DEBF0FBECDBF8C017B01AE014F5F5F4F36
:103090005FDE882339F0AE014F5F5F4FB701C80193
:1030A000B8DF02C080E894EE29960FB6F894DEBF30
:1030B0000FBECDBFDF91CF911F910F91FF90EF9089
:1030C0000895813824EE92075CF0BC01882777FDD3
:1030D0008095982FEDD520E030E040E05CE3C8C655
:1030E00060E070E08EEF92EC0895BFDFEACF0F93BF
:1030F0001F93CF93DF93CDB7DEB728970FB6F89421
:10310000DEBF0FBECDBF8C01462FBE016F5F7F4F6C
:10311000B6DD882331F0BE016F5F7F4FC801E5DF68
:1031200004C060E070E08EEF92EC28960FB6F89441
:10313000DEBF0FBECDBFDF91CF911F910F910895DC
:103140002091FA063091FB0628173907B9F49091BF
:10315000B8068091B906981789F0E091B806F0E0BA
:10316000E654F94F80812091B80630E02F5F3F4F41
:103170002F7333272093B80690E008958FEF9FEFC9
:1031800008952091FA063091FB062817390781F43B
:103190009091B8068091B906981751F0E091B80661
:1031A000F0E0E654F94F8081992787FD90950895C6
:1031B0008FEF9FEF08952091FA063091FB062817B4
:1031C000390761F48091B9062091B80690E0805CDF
:1031D0009F4F821B910960E470E0F6C380E090E0AD
:1031E00008952091FA063091FB062817390739F423
:1031F0008FB7F8941092B9061092B8068FBF089551
:10320000DC015196ED91FC915297208150968C9162
:10321000809582238083089520E001972FEF8F3FD0
:103220009207D9F708952091FA063091FB062817E6
:10323000390789F0FC01238D2E7F238F2FB7F89457
:103240001092B9061092B8069093FB068093FA0686
:103250002FBF81E0089580E00895EF92FF920F93D1
:103260001F93CF93DF93EC018B8DEE85FF859D85BA
:1032700081FF04C08081892329F452C08081892381
:1032800009F04EC08B899C89C7DF08E010E0EE246E
:10329000E394F12C8D8D8E1590F08D899E89BCDF85
:1032A000EE85FF8580819D85892311F0FE2803C06E
:1032B0008E2D8095F822EE0C0150110959F78E8D54
:1032C0009F8D892B19F08F89988DA6DF10E088A13A
:1032D000181728F48F89988D9FDF1F5FF8CF8B8D8B
:1032E00081FDF0948091B9062091B80690E0019696
:1032F0008F73992730E08217930779F0E091B90630
:10330000F0E0E654F94FF0828091B90690E0019622
:103310008F7399278093B90603C08B8D81608B8F43
:10332000DF91CF911F910F91FF90EF900895611160
:1033300001C066CFDC015196ED91FC91529720813E
:1033400050968C91282B208308958091FA069091B5
:10335000FB06009709F081CF08951F920F920FB6D8
:103360000F9211242F933F934F935F936F937F930B
:103370008F939F93AF93BF93EF93FF93E6DFFF91FC
:10338000EF91BF91AF919F918F917F916F915F91DD
:103390004F913F912F910F900FBE0F901F90189556
:1033A0001F920F920FB60F9211242F933F934F93BA
:1033B0005F936F937F938F939F93AF93BF93EF939D
:1033C000FF93C3DFFF91EF91BF91AF919F918F91D9
:1033D0007F916F915F914F913F912F910F900FBE11
:1033E0000F901F9018951F920F920FB60F921124F5
:1033F0002F933F934F935F936F937F938F939F93FD
:10340000AF93BF93EF93FF93A0DFFF91EF91BF9135
:10341000AF919F918F917F916F915F914F913F916C
:103420002F910F900FBE0F901F9018951F93CF9361
:10343000DF93EC01162F61E0812F0E94190E6B8D36
:103440006695617081E06827812F0E94520E812F5E
:1034500090E0FC01E250FF4FE491E88BFC01EE5E4E
:10346000FE4FE491F0E0EE0FFF1FE05DFE4F85910F
:1034700094919A8B898BDF91CF911F9108951F931F
:10348000CF93DF93EC01162F60E0812F0E94190E7D
:103490008B8D81FD04C061E0812F0E94520E1C873C
:1034A000812F90E0FC01E250FF4FE491ED87FC0199
:1034B000EE5EFE4FE491F0E0EE0FFF1FEA5DFE4F7F
:1034C000859194919F878E87DF91CF911F91089569
:1034D0000F931F93CF93DF93EC011A8E198E188EE2
:1034E0001F8A1E8A1D8AA4E4B2E080E090E0FD01FC
:1034F0000591159125913491041715072607370773
:1035000009F031C02CE0289FF001299FF00D112413
:10351000E85BFD4F259134913C8B2B8B2CE0289F51
:10352000F001299FF00D1124E65BFD4F25913491A8
:103530003E8B2D8B2CE0289FF001299FF00D11244C
:10354000E45BFD4F25913491388F2F8B2CE0289F21
:10355000F001299FF00D1124E25BFD4F85919491BC
:103560009A8F898F08C001961C968D30910509F0BD
:10357000BECF1C8A1B8A8F89988D892B09F442C083
:103580008C858631E0F520916800883050F091E01C
:103590008E3008F490E081E001C0880F9A95EAF738
:1035A00001C084E0822B809368002C85283038F09D
:1035B0002E3040F0263148F0E0E0F0E008C0EDE6C3
:1035C000F0E005C0EBE6F0E002C0ECE6F0E03081B0
:1035D000283030F481E001C0880F2A95EAF70DC049
:1035E000822F90E02E3010F4089701C00E9791E0E2
:1035F00001C0990F8A95EAF7892F832B8083898DE3
:103600009A8D0ADECE01DF91CF911F910F910BCEE3
:10361000EF92FF920F931F93CF93DF93EC018B01F7
:10362000CB0164E670E0BCD17C016C8F77276150E0
:103630007109882777FD8095982F3AD39B01AC01BB
:1036400060E070E080E090E476D4C1D403D36D8F65
:103650002AE030E0C701B901A3D17F8F6E8FC80186
:10366000B9019ED188A3DF91CF911F910F91FF9057
:10367000EF900895FF920F931F93CF93DF93EC0188
:10368000F62E522F1B821A8208EE13E020E030E063
:103690000C831D832E833F838EEF91E09983888373
:1036A0001C8A1B8A1E8A1D8A188E1F8A1A8E198EE2
:1036B0008B8D8E7F50FB81F98B8F642FCE01B6DE10
:1036C0006F2DCE01DCDE61E273E0CE01DF91CF91A0
:1036D0001F910F91FF909CCFCF92DF92EF92FF92BC
:1036E000CF93DF93EC016A017B01B90191DFB70150
:1036F000A601CE01DF91CF91FF90EF90DF90CF90A8
:10370000E7CE1F93CF93DF93EC01162F8E8D9F8D05
:10371000009709F43DC08230910521F48B8D60FF44
:1037200006C008C0019759F48B8D60FF03C081FD6E
:1037300003C005C081FD03C061E0CE01F8DD8E8DC0
:103740009F8D8130910521F48B8D10FF06C008C03C
:10375000029751F48B8D10FF03C081FD03C004C09C
:1037600081FD02C0CE014CDD8E8D9F8D019781F4CD
:1037700010FF0EC08B8D81FD05C0CE01DF91CF9172
:103780001F913ECD61E0CE01DF91CF911F91CFCD52
:10379000DF91CF911F910895CF93DF93EC018B8D33
:1037A00081FD04C061E0CE01C2DD02C0CE0128DD92
:1037B0008B8D81FF04C0CE01DF91CF9121CD61E0DF
:1037C000CE01DF91CF91B3CD28E030E090E880E0EA
:1037D000492F462309F08F5F969521503109C1F793
:1037E0000895CF92DF92EF92FF920F931F93CF93A2
:1037F000DF93EC01E62E898D9A8D892B39F481E0D7
:1038000090E09B838A8380E090E04CC0DFB6F89420
:103810006B8D66956170CE018ADD898D9A8D0596D6
:10382000FBDC6E2DCE01D0DFC82E8B8D08E010E0C2
:10383000FF24F39481FF2FC08D8D8F1580F08F2D85
:103840008E2119F0CE01DCDC03C061E0CE016FDD1A
:10385000898D9A8DE1DCFF0C0150110969F76C2DFF
:10386000CE014FDF898D9A8DD7DCCE0195DFDFBE8B
:10387000898D9A8DD1DC81E090E014C08F2D8E214E
:1038800071F061E0CE0153DD898D9A8DC5DCFF0CAE
:103890000150110921F38D8D8F1580F7E0CFCE01F6
:1038A000AFDCF2CFDF91CF911F910F91FF90EF909E
:1038B000DF90CF9008958091FC068F5F8093FC0687
:1038C000089508958230E8F4E82FF0E0EE0FFF1F2E
:1038D000E05EFE4F71836083813041F0809169002A
:1038E0008C7F842B80936900E89A08958091690009
:1038F000440F551F440F551F837F842B809369000D
:10390000E99A08951F920F920FB60F9211242F93E8
:103910003F934F935F936F937F938F939F93AF9357
:10392000BF93EF93FF93E0912001F091210109955E
:10393000FF91EF91BF91AF919F918F917F916F9187
:103940005F914F913F912F910F900FBE0F901F905D
:1039500018951F920F920FB60F9211242F933F9339
:103960004F935F936F937F938F939F93AF93BF9387
:10397000EF93FF93E0912201F09123010995FF91CC
:10398000EF91BF91AF919F918F917F916F915F91D7
:103990004F913F912F910F900FBE0F901F90189550
:1039A000AA1BBB1B51E107C0AA1FBB1FA617B70765
:1039B00010F0A61BB70B881F991F5A95A9F7809581
:1039C0009095BC01CD01089597FB072E16F4009445
:1039D00006D077FD08D0E4DF07FC05D03EF49095D3
:1039E00081959F4F0895709561957F4F0895A1E24D
:1039F0001A2EAA1BBB1BFD010DC0AA1FBB1FEE1F69
:103A0000FF1FA217B307E407F50720F0A21BB30BB3
:103A1000E40BF50B661F771F881F991F1A9469F72F
:103A200060957095809590959B01AC01BD01CF018B
:103A30000895052E97FB16F400940FD057FD05D07E
:103A4000D6DF07FC02D046F408C05095409530956B
:103A500021953F4F4F4F5F4F0895909580957095FA
:103A600061957F4F8F4F9F4F0895A29FB001B39FE5
:103A7000C001A39F700D811D1124911DB29F700D77
:103A8000811D1124911D0895F0DFA59F900DB49F15
:103A9000900DA49F800D911D11240895EE0FFF1F1E
:103AA0000590F491E02D09945058BB27AA270ED019
:103AB0009AC18BD130F090D120F031F49F3F11F4B6
:103AC0001EF45BC10EF4E095E7FB51C1E92F9CD1D8
:103AD00080F3BA17620773078407950718F071F42B
:103AE0009EF5B4C10EF4E0950B2EBA2FA02D0B015C
:103AF000B90190010C01CA01A0011124FF27591B33
:103B000099F0593F50F4503E68F11A16F040A22F38
:103B1000232F342F4427585FF3CF469537952795A9
:103B2000A795F0405395C9F77EF41F16BA0B620BA8
:103B3000730B840BBAF09150A1F0FF0FBB1F661FEF
:103B4000771F881FC2F70EC0BA0F621F731F841F32
:103B500048F4879577956795B795F7959E3F08F058
:103B6000B3CF9395880F08F09927EE0F9795879517
:103B70000895D9D008F481E008950CD034C12CD137
:103B800040F023D130F021F45F3F19F0F0C0511123
:103B90005EC1F3C039D198F39923C9F35523B1F32A
:103BA000951B550BBB27AA2762177307840738F0AC
:103BB0009F5F5F4F220F331F441FAA1FA9F333D00B
:103BC0000E2E3AF0E0E830D091505040E695001CBF
:103BD000CAF729D0FE2F27D0660F771F881FBB1F7B
:103BE000261737074807AB07B0E809F0BB0B802D55
:103BF000BF01FF2793585F4F2AF09E3F510568F0A1
:103C0000B6C025C15F3FECF3983EDCF3869577950F
:103C10006795B795F7959F5FC9F7880F911D9695A2
:103C2000879597F90895E1E0660F771F881FBB1FFE
:103C3000621773078407BA0720F0621B730B840BAB
:103C4000BA0BEE1F88F7E095089504D06894B1117F
:103C5000FEC00895E1D088F09F5790F0B92F9927C2
:103C6000B751A0F0D1F0660F771F881F991F1AF087
:103C7000BA95C9F712C0B13081F0E8D0B1E008952B
:103C8000E5C0672F782F8827B85F39F0B93FCCF3AC
:103C9000869577956795B395D9F73EF4909580957D
:103CA000709561957F4F8F4F9F4F0895E89409C09D
:103CB00097FB3EF490958095709561957F4F8F4F5F
:103CC0009F4F9923A9F0F92F96E9BB279395F69575
:103CD000879577956795B795F111F8CFFAF4BB0FF3
:103CE00011F460FF1BC06F5F7F4F8F4F9F4F16C057
:103CF000882311F096E911C0772321F09EE8872FE1
:103D0000762F05C0662371F096E8862F70E060E09C
:103D10002AF09A95660F771F881FDAF7880F969515
:103D2000879597F90895990F0008550FAA0BE0E8B9
:103D3000FEEF16161706E807F907C0F0121613066D
:103D4000E407F50798F0621B730B840B950B39F4AD
:103D50000A2661F0232B242B252B21F408950A2613
:103D600009F4A140A6958FEF811D811D089597F953
:103D70009F6780E870E060E008959FEF80EC089511
:103D8000DF93CF931F930F93FF92EF92DF927B010C
:103D90008C01689405C0DA2EEF0176D0FE01E8941C
:103DA000A5912591359145915591AEF3EF018EDEA8
:103DB000FE019701A801DA9479F7DF90EF90FF9068
:103DC0000F911F91CF91DF91089500240A94161648
:103DD000170618060906089500240A9412161306F9
:103DE000140605060895092E0394000C11F4882387
:103DF00052F0BB0F40F4BF2B11F460FF04C06F5FA3
:103E00007F4F8F4F9F4F089557FD9058440F551F78
:103E100059F05F3F71F04795880F97FB991F61F04C
:103E20009F3F79F087950895121613061406551FC3
:103E3000F2CF4695F1DF08C0161617061806991F2F
:103E4000F1CF86957105610508940895E894BB2724
:103E500066277727CB0197F9089565DF08F48FEF80
:103E600008959B01AC0160E070E080E89FE385CE9F
:103E70000BD0B9CFAADF28F0AFDF18F0952309F0F7
:103E800076CF7BCF1124E3CFBFDFA0F3959FD1F393
:103E9000950F50E0551F629FF001729FBB27F00DF8
:103EA000B11D639FAA27F00DB11DAA1F649F66274D
:103EB000B00DA11D661F829F2227B00DA11D621F9C
:103EC000739FB00DA11D621F839FA00D611D221F56
:103ED000749F3327A00D611D231F849F600D211D3A
:103EE000822F762F6A2F11249F5750408AF0E1F0DD
:103EF00088234AF0EE0FFF1FBB1F661F771F881F26
:103F000091505040A9F79E3F510570F030CF9FCFA0
:103F10005F3FECF3983EDCF3869577956795B79510
:103F2000F795E7959F5FC1F7FE2B880F911D96953A
:103F3000879597F90895FA01EE0FFF1F3096210536
:103F4000310599F16115710561F48038BFE39B0774
:103F500049F168949038810561F08038BFEF9B0784
:103F600041F0992342F5FF3FE1053105210511F1AB
:103F7000E8940894E795D901AA2329F4AB2FBE2F22
:103F8000F85FD0F310C0FF5F70F4A695E0F7F73943
:103F900050F019F0FF3A38F49F779F930CD00F90B0
:103FA00007FC905808953EF0E8CE60E070E080E8AD
:103FB0009FE308954FE79F775F934F933F932F932E
:103FC00008D12F913F914F915F9152DF6BC024DF59
:103FD000E0F09E37D8F09639B8F49E3848F4672F51
:103FE000782F8827985FF9CF869577956795939571
:103FF0009539D0F3B62FB1706B0F711D811D20F470
:10400000879577956795939579C093C020CF11F4E4
:104010000EF4B3CE8EC000DFD0F39923D9F3CEF3E4
:104020009F57550B87FF93D00024A0E640EA9001EC
:1040300080585695979528F4805C660F771F881FE7
:1040400020F026173707480730F4621B730B840BE8
:10405000202931294A2BA69517940794202531252C
:104060004A2758F7660F771F881F20F02617370753
:10407000480730F4620B730B840B200D311D411D7A
:10408000A09581F7B901842F9158880F969587954F
:10409000089549DE880B990B089519F40EF067CE48
:1040A000D5CE6BCEB9DEC8F39638C0F707F80F92BD
:1040B000E8942BE33AEA48EB5FE7E8DE0F920F92D1
:1040C0000F924DB75EB70F92C4D0E8E6F0E058DE2D
:1040D0004F915F91EF91FF91E595EE1FFF1F49F022
:1040E000FE57E0684427EE0F441FFA95E1F741952B
:1040F000550B36D00F9007FEB4CE0895882371F487
:10410000772321F09850872B762F07C0662311F470
:1041100099270DC09051862B70E060E02AF09A95A7
:10412000660F771F881FDAF7880F9695879597F99E
:1041300008959F3F31F0915020F4879577956795CA
:10414000B795880F911D9695879597F90895915089
:104150005040660F771F881FD2F7089508CEE9CF29
:104160005BDEE8F39923D9F3940F511DBBF3915013
:10417000504094F059F0882332F0660F771F881F63
:1041800091505040C1F79E3F510544F7880F911D53
:104190009695879597F908955F3FACF0983E9CF00F
:1041A000BB27869577956795B79508F4B160939589
:1041B000C1F7BB0F58F711F460FFE8CF6F5F7F4F77
:1041C0008F4F9F4FE3CF43CE0EF0B3CFD6CD689441
:1041D000CECD22DEC8F39923D1F3C6F3DF93CF937C
:1041E0001F930F93FF92C92FDD2788232AF0219771
:1041F000660F771F881FDAF720E030E040E85FEBBA
:104200009FE3883920F0803E30F021968F774DDC97
:10421000E0E9F0E003C049DCEDEBF0E0B1DD8B015B
:10422000BE01EC01FB2E6F5771097595771F880B46
:10423000990B3EDD28E132E741E35FE325DEAF2D58
:104240009801AE01FF900F911F91CF91DF913EDC5D
:10425000CACDFA01DC01AA0FBB1F9B01AC01BF57FD
:1042600028F422273327442750781FC0B75188F4F9
:10427000AB2F0024469537952795011CA395D2F3C3
:10428000002069F0220F331F441FB395DAF30DD0DD
:104290000BCC61307105A0E88A07B94630F49B0168
:1042A000AC016627772788279078309621F0208305
:1042B0003183428353830895CF93DF9382309105F6
:1042C00010F482E090E0E091FF06F091000720E01A
:1042D00030E0A0E0B0E0309739F1408151814817DB
:1042E0005907B8F04817590771F4828193811097E4
:1042F00029F013969C938E9312972CC090930007ED
:104300008093FF0627C02115310531F0421753076E
:1043100018F0A901DB0101C0EF019A01BD01DF0125
:104320000280F381E02DD7CF21153105F9F0281B4C
:10433000390B2430310580F48A819B816115710528
:1043400021F0FB019383828304C090930007809344
:10435000FF06FE01329644C0FE01E20FF31F819377
:10436000919322503109398328833AC02091FD0668
:104370003091FE06232B41F420910201309103017C
:104380003093FE062093FD0620910001309101013B
:104390002115310541F42DB73EB7409104015091EC
:1043A0000501241B350BE091FD06F091FE06E21796
:1043B000F307A0F42E1B3F0B2817390778F0AC0148
:1043C0004E5F5F4F2417350748F04E0F5F1F509325
:1043D000FE064093FD068193919302C0E0E0F0E079
:1043E000CF01DF91CF910895CF93DF93009709F428
:1043F00087C0FC01329713821282C091FF06D091D0
:104400000007209781F420813181280F391F809186
:10441000FD069091FE068217930779F5F093FE064C
:10442000E093FD066DC0DE0120E030E0AE17BF076F
:1044300050F412964D915C9113979D0141155105D1
:1044400009F1DA01F3CFB383A28340815181840F54
:10445000951F8A179B0771F48D919C911197840F7A
:10446000951F02969183808312968D919C9113974C
:10447000938382832115310529F4F0930007E0939B
:10448000FF063EC0D9011396FC93EE9312974D910F
:104490005D91A40FB51FEA17FB0779F48081918124
:1044A000840F951F0296D90111969C938E93828159
:1044B000938113969C938E931297E0E0F0E08A81AB
:1044C0009B81009719F0FE01EC01F9CFCE01029615
:1044D00028813981820F931F2091FD063091FE06BD
:1044E0002817390769F4309729F4109200071092C1
:1044F000FF0602C013821282D093FE06C093FD060F
:10450000DF91CF910895FB01DC0104C08D910190F2
:10451000801921F441505040C8F7881B990B089529
:10452000A0E0B0E0E5E9F2E285C2FE0135966191D6
:104530007191AF01809103079091040702D0E2E0EE
:1045400095C2ACE0B0E0E6EAF2E264C27C016B0145
:104550008A01FC0117821682838181FFB0C1CE01DE
:1045600001964C01F7019381F60193FD859193FF2C
:1045700081916F01882309F49EC1853239F493FD3E
:10458000859193FF81916F01853221F4B70190E00D
:10459000B1D1E8CF512C312C20E02032A0F48B3265
:1045A00069F030F4803259F0833269F420612CC014
:1045B0008D3239F0803339F4216026C022602460C6
:1045C00023C0286021C027FD27C030ED380F3A30C6
:1045D00078F426FF06C0FAE05F9E300D1124532EBA
:1045E00013C08AE0389E300D1124332E20620CC097
:1045F0008E3221F426FD5FC1206406C08C3611F492
:10460000206802C0883641F4F60193FD859193FF3E
:1046100081916F018111C1CF982F9F7D9554933067
:1046200028F40C5F1F4FFFE3F9830DC0833631F090
:10463000833771F0833509F057C021C0F8018081BC
:1046400089830E5F1F4F44244394512C540114C09E
:104650003801F2E06F0E711CF801A080B18026FFD6
:1046600003C0652D70E002C06FEF7FEFC5012C879E
:1046700036D12C0183012C852F77222E16C03801CC
:10468000F2E06F0E711CF801A080B18026FF03C01C
:10469000652D70E002C06FEF7FEFC5012C8714D14C
:1046A0002C012C852068222E830123FC19C0832D28
:1046B00090E048165906A0F4B70180E290E01AD1C4
:1046C0003A94F5CFF50127FC859127FE81915F0192
:1046D000B70190E00FD131103A94F1E04F1A510830
:1046E0004114510479F7DEC0843611F0893631F572
:1046F000F80127FF07C060817181828193810C5F7F
:104700001F4F08C060817181882777FD8095982FA1
:104710000E5F1F4F2F76B22E97FF09C090958095A0
:10472000709561957F4F8F4F9F4F2068B22E2AE082
:1047300030E0A40111D1A82EA81843C0853729F470
:104740002F7EB22E2AE030E025C0F22FF97FBF2E57
:104750008F36C1F018F4883579F0ADC0803719F084
:10476000883721F0A8C02F2F2061B22EB4FE0DC0D3
:104770008B2D8460B82E09C024FF0AC09F2F96603D
:10478000B92E06C028E030E005C020E130E002C0CC
:1047900020E132E0F801B7FE07C0608171818281BB
:1047A00093810C5F1F4F06C06081718180E090E0B3
:1047B0000E5F1F4FA401D0D0A82EA818FB2DFF77A5
:1047C000BF2EB6FE0BC02B2D2E7FA51450F4B4FEC9
:1047D0000AC0B2FC08C02B2D2E7E05C07A2C2B2DD2
:1047E00003C07A2C01C0752C24FF0DC0FE01EA0D18
:1047F000F11D8081803311F4297E09C022FF06C09B
:104800007394739404C0822F867809F0739423FD07
:1048100012C020FF06C05A2C731418F4530C5718FA
:10482000732C731460F4B70180E290E02C8762D09F
:1048300073942C85F6CF731410F4371801C0312C03
:1048400024FF11C0B70180E390E02C8753D02C8562
:1048500022FF16C021FF03C088E590E002C088E770
:1048600090E0B7010CC0822F867851F021FD02C084
:1048700080E201C08BE227FD8DE2B70190E03AD0E3
:10488000A51430F4B70180E390E034D05A94F8CF07
:10489000AA94F401EA0DF11D8081B70190E02AD0BD
:1048A000A110F6CF332009F45DCEB70180E290E08D
:1048B00021D03A94F7CFF7018681978102C08FEF1C
:1048C0009FEF2C96E2E1C2C0FC0105906150704060
:1048D0000110D8F7809590958E0F9F1F0895FC01C9
:1048E0006150704001900110D8F7809590958E0F1F
:1048F0009F1F08950F931F93CF93DF93182F092FB6
:10490000EB018B8181FD03C08FEF9FEF20C082FF01
:1049100010C04E815F812C813D81421753077CF48A
:10492000E881F9819F012F5F3F4F398328831083EE
:1049300006C0E885F985812F0995892B29F72E81F5
:104940003F812F5F3F4F3F832E83812F902FDF9139
:10495000CF911F910F910895FA01AA27283051F1A4
:10496000203181F1E8946F936E7F6E5F7F4F8F4FA0
:104970009F4FAF4FB1E03ED0B4E03CD0670F781FFF
:10498000891F9A1FA11D680F791F8A1F911DA11DE4
:104990006A0F711D811D911DA11D20D009F468941D
:1049A0003F912AE0269F11243019305D3193DEF6C5
:1049B000CF010895462F4770405D4193B3E00FD07B
:1049C000C9F7F6CF462F4F70405D4A3318F0495D66
:1049D00031FD4052419302D0A9F7EACFB4E0A69549
:1049E0009795879577956795BA95C9F7009761056B
:1049F000710508959B01AC010A2E069457954795C1
:104A000037952795BA95C9F7620F731F841F951FB5
:104A1000A01D08952F923F924F925F926F927F92C6
:104A20008F929F92AF92BF92CF92DF92EF92FF92BE
:104A30000F931F93CF93DF93CDB7DEB7CA1BDB0B6A
:104A40000FB6F894DEBF0FBECDBF09942A8839880F
:104A500048885F846E847D848C849B84AA84B98416
:104A6000C884DF80EE80FD800C811B81AA81B98122
:104A7000CE0FD11D0FB6F894DEBF0FBECDBFED0136
:064A80000895F894FFCF39
:104A8600000007078000010000003F0000604000B2
:104A960000C8420000803E00006040000020420145
:104AA600611C611C4D73673A002C4F454D63743190
:104AB6003A002C4F454D6374323A002C4F454D63F6
:104AC600743157683A002C4F454D63743257683A33
:104AD600002C44536169726F7574543A002C445328
:104AE600616972696E543A002C4453666C6F775450
:104AF6003A002C445372657475726E543A002C4B0E
:104B060053666C6F77543A002C4B5372657475720A
:104B16006E543A002C4B5364656C7461543A002C05
:104B26004B53666C6F77726174653A002C4B536811
:104B36006561743A002C4B536B57683A002C5075DC
:104B46006C7365495244413A00000000009E090713
:104B56000B22093B092D097D090D0A006E616E00C5
:104B6600696E66006F7666002E006574783D2530A6
:104B760032580A005E00BC00770100000000F11BFD
:0A4B8600070BDB18A018C118F11886
:00000001FF
