:1000000034C0000059C0000057C0000055C00000B7
:1000100053C0000051C000004FC000004DC00000A0
:100020004BC0000049C0000047C0000045C00000B0
:1000300043C0000041C000003FC000003DC00000C0
:1000400046C5000039C0000094C30000C4C30000CE
:1000500033C0000031C000002FC000002DC00000E0
:100060002BC0000029C00000190411241FBECFEFCF
:10007000D8E0DEBFCDBF11E0A0E0B1E0E4E8F8E1F8
:1000800002C005900D92A835B107D9F722E0A8E586
:10009000B1E001C01D92A63DB207E1F710E0CAE64B
:1000A000D0E004C02297FE010E94CA09C836D107D9
:1000B000C9F703D50C94400CA3CFEF92FF920F9396
:1000C0001F9326E040E052EC61E070E080E392E0B4
:1000D000F0D262E071E080E392E037D41AE9E12ED9
:1000E00019E9F12E09ED1FE320E030E043E853E485
:1000F00060E070E084ED91E0F3D52DEC3CEC45EB55
:1001000052E461E070E084ED91E006D620E030E05A
:1001100043E853E460E070E088E791E0E1D52DEC3E
:100120003CEC45EB52E462E070E088E791E0F4D506
:1001300064E670E080E090E043D510926401109294
:100140006501109266011092670110926001109291
:100150006101109262011092630129E288E190E04E
:100160000FB6F894A895809360000FBE20936000AE
:10017000A8951F910F91FF90EF9008954F925F9275
:100180006F927F928F929F92AF92BF92CF92DF92A7
:10019000EF92FF92CF93DF93E4D46093700170935A
:1001A00071018093720190937301C0907401D0909B
:1001B0007501E0907601F09077019B01AC012C195C
:1001C0003D094E095F0969017A0138E4C31636E238
:1001D000D306E104F10428F420910001222309F45C
:1001E0005DC1A89560937401709375018093760149
:1001F0009093770110920001CAE0D0E080E052D5E0
:1002000081E050D582E04ED52197C1F768EC70E0CF
:1002100080E090E0D5D440ED57E06EE170E084EDF1
:1002200091E0AFD5A8956091D4017091D5018091EE
:10023000D6019091D7010E949F0A4B015C0140EDCD
:1002400057E06EE170E088E791E09BD5A89560915A
:1002500078017091790180917A0190917B010E94DF
:100260009F0A6B017C017DD4209158013091590186
:10027000EB01C21BD30B75D46093580170935901E5
:1002800080935A0190935B014090D4015090D50126
:100290006090D6017090D70120E030E0A901C30141
:1002A000B2010E94820B18160CF03FC01C161D06EE
:1002B000E4F5BE01882777FD8095982F0E94D20A29
:1002C0009B01AC01C301B2010E94860B2FE632E113
:1002D00043E85AE30E94860B0E949F0A20916A011C
:1002E00030916B01260F371FC90160E17EE0EBD72B
:1002F0002B01662457FC6094762C40916401509148
:1003000065016091660170916701440D551D661D80
:10031000771D40936401509365016093660170936B
:10032000670190936B0180936A014090780150902F
:10033000790160907A0170907B0120E030E0A901A2
:10034000C301B2010E94820B18160CF03FC01C16AC
:100350001D06E4F5BE01882777FD8095982F0E9441
:10036000D20A9B01AC01C301B2010E94860B2FE6A9
:1003700032E143E85AE30E94860B0E949F0A2091D3
:10038000680130916901260F371FC90160E17EE0E5
:100390009AD72B01662457FC6094762C409160011B
:1003A000509161016091620170916301440D551D8E
:1003B000661D771D40936001509361016093620157
:1003C000709363019093690180936801A89580916F
:1003D0005C0190915D01A0915E01B0915F01019679
:1003E000A11DB11D80935C0190935D01A0935E01FE
:1003F000B0935F016AE071E080E392E09BD24091AC
:100400005C0150915D0160915E0170915F012AE095
:1004100030E080E392E044D36FE071E080E392E06B
:1004200089D24AE050E0B40180E392E032D368E13F
:1004300071E080E392E07ED24AE050E0B60180E3D2
:1004400092E027D361E271E080E392E073D24091C1
:1004500064015091650160916601709167012AE025
:1004600030E080E392E01CD36CE271E080E392E044
:1004700061D240916001509161016091620170917F
:1004800063012AE030E080E392E00AD380E392E067
:1004900059D268EC70E080E090E092D362D3C090D3
:1004A0006C01D0906D01E0906E01F0906F016C19BD
:1004B0007D098E099F09693E73408105910550F0C1
:1004C00050D360936C0170936D0180936E01909393
:1004D0006F01A895DF91CF91FF90EF90DF90CF90C3
:1004E000BF90AF909F908F907F906F905F904F9054
:1004F0000895FC01818D228D90E0805C9F4F821BCE
:1005000091098F7399270895FC01918D828D981719
:1005100031F0828DE80FF11D858D90E008958FEF09
:100520009FEF0895FC01918D828D981761F0828D67
:10053000DF01A80FB11D5D968C91928D9F5F9F7317
:10054000928F90E008958FEF9FEF089580E194E0FF
:10055000892B41F080E090E0892B21F061D181115D
:100560000C9400000895FC01848DDF01A80FB11DDB
:10057000A35ABF4F2C91848D90E001968F739927D9
:10058000848FA689B7892C93A089B1898C918064C6
:100590008C93938D848D981306C00288F389E02D87
:1005A00080818F7D80830895CF93DF93EC01888DC8
:1005B0008823C1F0EA89FB89808185FD05C0A8896F
:1005C000B9898C9186FD0EC00FB607FCF5CF8081EE
:1005D00085FFF2CFA889B9898C9185FFEDCFCE0137
:1005E000C2DFE8CFDF91CF910895CF92DF92FF92E3
:1005F0000F931F93CF93DF931F92CDB7DEB76C019C
:1006000081E0D60158968C9358975B969C915B97A6
:100610005C968C915C97981307C05096ED91FC9175
:100620005197808185FD2DC0F601038D10E00F5F8D
:100630001F4F0F731127F02EF601848DF81210C092
:100640000FB607FCF9CFD6015096ED91FC9151976A
:10065000808185FFF1CFC601698385DF6981ECCF99
:10066000838DE80FF11DE35AFF4F6083D6015B963F
:100670000C935B975296ED91FC9153978081806229
:100680000CC0D6015696ED91FC9157976083509619
:10069000ED91FC91519780818064808381E090E0AE
:1006A0000F90DF91CF911F910F91FF90DF90CF902E
:1006B0000895BF92CF92DF92EF92FF92CF93DF9394
:1006C000EC016A017B01B22EE889F98982E080831E
:1006D000411581EE58076105710599F060E079E0F8
:1006E0008DE390E0A701960101D62150310941091F
:1006F00051095695479537952795211580E138077B
:1007000090F0E889F989108260E874E88EE190E061
:10071000A7019601EBD521503109410951095695A0
:10072000479537952795EC85FD853083EE85FF85C8
:100730002083188EEC89FD89B082EA89FB8980814B
:1007400080618083EA89FB89808188608083EA896F
:10075000FB89808180688083EA89FB8980818F7D25
:100760008083DF91CF91FF90EF90DF90CF90BF908B
:1007700008951F920F920FB60F9211242F938F930B
:100780009F93EF93FF93E0914002F09141028081AB
:10079000E0914602F091470282FD12C09081809163
:1007A00049028F5F8F7320914A02821751F0E091C6
:1007B0004902F0E0E05DFD4F958F8093490201C052
:1007C0008081FF91EF919F918F912F910F900FBE9C
:1007D0000F901F9018951F920F920FB60F92112431
:1007E0002F933F934F935F936F937F938F939F9339
:1007F000AF93BF93EF93FF9380E392E0B4DEFF915A
:10080000EF91BF91AF919F918F917F916F915F9188
:100810004F913F912F910F900FBE0F901F90189501
:1008200080E392E066DE21E0892B09F420E0822F4C
:100830000895109233021092320288EE93E0A0E005
:10084000B0E08093340290933502A0933602B093C7
:1008500037028BE391E0909331028093300285EC74
:1008600090E090933D0280933C0284EC90E0909362
:100870003F0280933E0280EC90E09093410280938F
:10088000400281EC90E0909343028093420282EC1C
:1008900090E0909345028093440286EC90E0909320
:1008A0004702809346021092490210924A02109227
:1008B0004B0210924C020895CF92DF92EF92FF927A
:1008C0000F931F93CF93DF937C016A01EB0100E04C
:1008D00010E00C151D0571F06991D701ED91FC91A7
:1008E0000190F081E02DC7010995892B19F00F5F68
:1008F0001F4FEFCFC801DF91CF911F910F91FF9054
:10090000EF90DF90CF9008956115710581F0DB01C4
:100910000D900020E9F7AD0141505109461B570BDE
:10092000DC01ED91FC910280F381E02D099480E0DF
:1009300090E00895E9CFDC01ED91FC910190F08108
:10094000E02D099467E471E0DFCF0F931F93CF93FD
:10095000DF93EC01D9DF8C01CE01F4DF800F911F12
:10096000DF91CF911F910F9108958F929F92AF9237
:10097000BF92DF92EF92FF920F931F93CF93DF937B
:10098000CDB7DEB7A1970FB6F894DEBF0FBECDBFCF
:100990007C01F42FD52ECB0119A2223008F42AE0D5
:1009A0008E010F5D1F4F822E912CA12CB12C6F2F29
:1009B0007D2DA50194019AD4F22FD32ECA010150A6
:1009C00011096A3014F4E0E301C0E7E3E60FD8014F
:1009D000EC93232B242B252B51F7B801C70194DF6F
:1009E000A1960FB6F894DEBF0FBECDBFDF91CF91B9
:1009F0001F910F91FF90EF90DF90BF90AF909F906D
:100A00008F900895CF92DF92EF92FF920F931F93F2
:100A1000CF93DF93EC016A017B012115310579F455
:100A2000E881F9810190F081E02D642FDF91CF9171
:100A30001F910F91FF90EF90DF90CF9009942A3093
:100A40003105D9F477FF18C06DE275DF8C014427BA
:100A50005527BA014C195D096E097F092AE0CE01BC
:100A600084DF800F911FDF91CF911F910F91FF9035
:100A7000EF90DF90CF9008952AE0B701A601CE0154
:100A8000DF91CF911F910F91FF90EF90DF90CF906A
:100A90006CCF9A01AB01662757FD6095762FB2CFD8
:100AA0002115310541F4DC01ED91FC910190F081BB
:100AB000E02D642F099459CF0895B9D0FDDFFDDAF8
:100AC000C6EAD2E05BDB2097E9F340DDFBCF1F9263
:100AD0000F920FB60F9211242F933F938F939F93F2
:100AE000AF93BF938091CE029091CF02A091D0029C
:100AF000B091D1023091CD0223E0230F2D3720F4A5
:100B00000196A11DB11D05C026E8230F0296A11D67
:100B1000B11D2093CD028093CE029093CF02A0937B
:100B2000D002B093D1028091D2029091D302A091D1
:100B3000D402B091D5020196A11DB11D8093D202BD
:100B40009093D302A093D402B093D502BF91AF91FA
:100B50009F918F913F912F910F900FBE0F901F90FB
:100B600018952FB7F8946091CE027091CF028091C2
:100B7000D0029091D1022FBF08953FB7F894809191
:100B8000D2029091D302A091D402B091D50226B5A1
:100B9000A89B05C02F3F19F00196A11DB11D3FBFB5
:100BA0006627782F892F9A2F620F711D811D911D45
:100BB00042E0660F771F881F991F4A95D1F7089565
:100BC0008F929F92AF92BF92CF92DF92EF92FF925D
:100BD0006B017C01D2DF4B015C01C114D104E10443
:100BE000F104E1F07CD0C9DF681979098A099B0911
:100BF000683E73408105910580F321E0C21AD10857
:100C0000E108F10888EE880E83E0981EA11CB11C53
:100C1000C114D104E104F10431F7DFCFFF90EF906C
:100C2000DF90CF90BF90AF909F908F900895789471
:100C300084B5826084BD84B5816084BD85B58260E1
:100C400085BD85B5816085BDEEE6F0E0808181607F
:100C50008083E1E8F0E0108280818260808380817F
:100C600081608083E0E8F0E0808181608083E1EB57
:100C7000F0E0808184608083E0EBF0E0808181603F
:100C80008083EAE7F0E080818460808380818260F5
:100C900080838081816080838081806880831092DE
:100CA000C10008958E3008F08E50877020910101A8
:100CB00090E4299F90011124822B80937C008091E5
:100CC0007A00806480937A0080917A0086FDFCCF60
:100CD000809178002091790090E0922B08950895FA
:100CE000EF92FF920F931F93FC01758B648B208F03
:100CF000318F428F538FE0A2F1A202A313A340E0F1
:100D000050E060E074E444AB55AB66AB77AB1F9149
:100D10000F91FF90EF900895FC01778B668B248FE5
:100D2000358F468F578F40E050E060E074E440AF6D
:100D300051AF62AF73AF08958EE480937C0062E0A0
:100D400070E080E090E03CDF80917A0080648093E6
:100D50007A0080917A0086FDFCCF80917800209106
:100D6000790030E0322F2227442737FD4095542F59
:100D7000282B60E070E381E190E0DAD2CA01B9018A
:100D800008952F923F924F925F926F927F928F922F
:100D90009F92AF92BF92CF92DF92EF92FF920F930A
:100DA0001F93CF93DF93CDB7DEB7A8970FB6F89414
:100DB000DEBF0FBECDBF98A78FA37E8F6D8F8A0138
:100DC000BBDF6D8B7E8B8F8B988FCBDE4B015C01F5
:100DD0006FA078A428E5620E711CC801A0E0B0E005
:100DE000898B9A8BAB8BBC8BAFA1B8A554968C9199
:100DF00059DFF30191838083BC01882777FD8095BB
:100E0000982FD0D36B017C012DEC3CEC4CE054E4EA
:100E10002AD387FF0AC011E026E636E646EE53E401
:100E2000C701B6016FD418160CF010E09ADE6819ED
:100E300079098A099B0929893A894B895C8926178E
:100E400037074807590708F03FC08BDE698F7A8F54
:100E50008B8F9C8F00E010E01A8219824FA158A559
:100E6000405C5F4F58A34F8F8FA198A58C5B9F4F1D
:100E70009C878B87AFA1B8A5A85BBF4FBAA3A9A3D6
:100E8000EFA1F8A5E45BFF4FFE87ED872FA138A502
:100E9000205B3F4F3CA32BA34FA158A54C5A5F4F5B
:100EA000588B4F878FA198A5865A9F4F9E838D831D
:100EB0002FA038A49BE5290E311CAFA1B8A5A85AD4
:100EC000BF4FBEA3ADA32EC1112309F48DCFBDCF5B
:100ED00048DE298D3A8D4B8D5C8D621B730B840B24
:100EE000950B29893A894B895C89621773078407B6
:100EF000950708F01FC10F5F1F4FEFA1F8A584A54C
:100F000095A5A6A5B7A580A791A7A2A7B3A78489F1
:100F1000C9DEAFA1B8A595969C938E9394975696EB
:100F20008C91C0DE3C01EFA1F8A597A386A324A174
:100F300035A13A872987B901882777FD8095982FB1
:100F400031D36B017C01AFA1B8A5D4968D909D9053
:100F5000AD90BC90D797A501940120D220E030E05D
:100F600040E85AE3D3D39B01AC01C501B40117D2C9
:100F70009B01AC01EFA1F8A564AB75AB86AB97AB59
:100F8000C701B6010BD24B015C01AFA1B8A59C967D
:100F90006D937D938D939C939F97B301882777FDE5
:100FA0008095982FFFD26B017C01EFA1F8A540AC92
:100FB00051AC62AC73ACA3019201F0D120E030E0FF
:100FC00040E85AE3A3D39B01AC01C301B201E7D1CE
:100FD0009B01AC01AFA1B8A5D8966D937D938D937D
:100FE0009C93DB97C701B601D9D16B017C01EFA1BE
:100FF000F8A560AB71AB82AB93ABA5019401C501C1
:10100000B40184D39B01AC01AF8DB8A16D937D93E6
:101010008D939C931397EB85FC8560817181828110
:101020009381BDD1AB85BC856D937D938D939C934E
:101030001397A7019601C701B60168D39B01AC01C4
:10104000E9A1FAA16083718382839383AD85BE8514
:101050006D917D918D919C91A2D1ED85FE856083EE
:10106000718382839383AFA1B8A598964D905D90CC
:101070006D907C909B97A3019201C501B4018ED124
:10108000EFA1F8A520A131A142A153A13FD39B011B
:10109000AC01C301B20183D1AFA1B8A5DC966D93B9
:1010A0007D938D939C93DF97A70196012FD39B018E
:1010B000AC01EBA1FCA16083718382839383AF8534
:1010C000B8896D917D918D919C9169D1EF85F88959
:1010D0006083718382839383D1018C91ED81FE8142
:1010E0008083ADA1BEA18D919C91E985FA858E1773
:1010F0009F070CF0E5C021E0F101208301301105CC
:1011000029F4F1018081AD81BE818C93ED81FE8156
:101110009081D1018C91981729F0E981FA8131965B
:10112000FA83E98329813A814D8D5E8D2417350735
:1011300008F4CECEAD89BE89BD01882777FD8095A4
:10114000982F30D220E030E04AE754E490D120E0FC
:1011500030E040E85AE3DAD22B013C01EFA1F8A5D8
:10116000208D318D428D538DD1D24B015C01B80160
:1011700080E090E015D26B017C012FA038A4F4E44C
:101180002F0E311C9B01AC01D1016D917D918D9190
:101190009C916DD122D39B01AC01C501B401B6D2A3
:1011A00069837A838B839C83EFA1F8A56487758715
:1011B00086879787248D358D468D578DC301B20163
:1011C000A5D22B013C010FA118A5045B1F4FA7015D
:1011D0009601D8016D917D918D919C9148D1FDD260
:1011E0009B01AC01C301B20191D26D837E838F83D9
:1011F0009887EFA1F8A5608B718B828B938BA301ED
:101200009201C501B40182D2AFA0B8A4F4E5AF0E3B
:10121000B11CD5012D913D914D915C9177D2A701E3
:10122000960125D16B017C01EFA1F8A56083718344
:10123000828393832D813E814F81588569817A8194
:101240008B819C8163D29B01AC01AFA1B8A51496A0
:101250006D937D938D939C931797C701B60107D12A
:10126000EFA1F8A56087718782879387D1011D92CE
:101270001D921D921C921397F80110821182128206
:101280001382D5011D921D921D921C921397A89650
:101290000FB6F894DEBF0FBECDBFDF91CF911F9187
:1012A0000F91FF90EF90DF90CF90BF90AF909F9005
:1012B0008F907F906F905F904F903F902F90089508
:1012C000D1011C921BCF97FB072E16F4009406D079
:1012D00077FD08D049D007FC05D03EF49095819564
:1012E0009F4F0895709561957F4F0895A1E21A2E42
:1012F000AA1BBB1BFD010DC0AA1FBB1FEE1FFF1FBA
:10130000A217B307E407F50720F0A21BB30BE40B09
:10131000F50B661F771F881F991F1A9469F7609550
:101320007095809590959B01AC01BD01CF0108950A
:10133000052E97FB16F400940FD057FD05D0D6DF8D
:1013400007FC02D046F408C0509540953095219591
:101350003F4F4F4F5F4F08959095809570956195E1
:101360007F4F8F4F9F4F0895AA1BBB1B51E107C0B2
:10137000AA1FBB1FA617B70710F0A61BB70B881F25
:10138000991F5A95A9F780959095BC01CD010895B4
:10139000EE0FFF1F0590F491E02D09945058BB27E4
:1013A000AA270ED075C166D130F06BD120F031F490
:1013B0009F3F11F41EF45BC10EF4E095E7FB51C1B1
:1013C000E92F77D180F3BA1762077307840795076F
:1013D00018F071F49EF58FC10EF4E0950B2EBA2F24
:1013E000A02D0B01B90190010C01CA01A00111242B
:1013F000FF27591B99F0593F50F4503E68F11A16D7
:10140000F040A22F232F342F4427585FF3CF469567
:1014100037952795A795F0405395C9F77EF41F1689
:10142000BA0B620B730B840BBAF09150A1F0FF0F53
:10143000BB1F661F771F881FC2F70EC0BA0F621F3F
:10144000731F841F48F4879577956795B795F7952F
:101450009E3F08F0B3CF9395880F08F09927EE0FC1
:10146000979587950895D9D008F481E008950CD018
:101470000FC107D140F0FED030F021F45F3F19F0EA
:10148000F0C0511139C1F3C014D198F39923C9F3B5
:101490005523B1F3951B550BBB27AA27621773077A
:1014A000840738F09F5F5F4F220F331F441FAA1F2E
:1014B000A9F333D00E2E3AF0E0E830D091505040EE
:1014C000E695001CCAF729D0FE2F27D0660F771F9C
:1014D000881FBB1F261737074807AB07B0E809F07E
:1014E000BB0B802DBF01FF2793585F4F2AF09E3F13
:1014F000510568F0B6C000C15F3FECF3983EDCF3E5
:10150000869577956795B795F7959F5FC9F7880F8B
:10151000911D9695879597F90895E1E0660F771FDD
:10152000881FBB1F621773078407BA0720F0621B6E
:10153000730B840BBA0BEE1F88F7E095089504D067
:101540006894B111D9C00895BCD088F09F5790F02D
:10155000B92F9927B751A0F0D1F0660F771F881FD8
:10156000991F1AF0BA95C9F712C0B13081F0C3D0F3
:10157000B1E00895C0C0672F782F8827B85F39F091
:10158000B93FCCF3869577956795B395D9F73EF437
:1015900090958095709561957F4F8F4F9F4F0895DF
:1015A000E89409C097FB3EF49095809570956195FD
:1015B0007F4F8F4F9F4F9923A9F0F92F96E9BB27B3
:1015C0009395F695879577956795B795F111F8CF2F
:1015D000FAF4BB0F11F460FF1BC06F5F7F4F8F4F9A
:1015E0009F4F16C0882311F096E911C0772321F090
:1015F0009EE8872F762F05C0662371F096E8862F28
:1016000070E060E02AF09A95660F771F881FDAF77E
:10161000880F9695879597F90895990F0008550FAB
:10162000AA0BE0E8FEEF16161706E807F907C0F068
:1016300012161306E407F50798F0621B730B840B70
:10164000950B39F40A2661F0232B242B252B21F44A
:1016500008950A2609F4A140A6958FEF811D811DEA
:10166000089597F99F6780E870E060E008959FEF24
:1016700080EC089500240A94161617061806090629
:10168000089500240A9412161306140605060895F8
:10169000092E0394000C11F4882352F0BB0F40F480
:1016A000BF2B11F460FF04C06F5F7F4F8F4F9F4FC0
:1016B000089557FD9058440F551F59F05F3F71F042
:1016C0004795880F97FB991F61F09F3F79F08795A9
:1016D0000895121613061406551FF2CF4695F1DF32
:1016E00008C0161617061806991FF1CF86957105C2
:1016F000610508940895E894BB2766277727CB01F6
:1017000097F908958ADF08F48FEF08950BD0C0CFC2
:10171000B1DF28F0B6DF18F0952309F0A2CFA7CFEC
:101720001124EACFC6DFA0F3959FD1F3950F50E0C7
:10173000551F629FF001729FBB27F00DB11D639F83
:10174000AA27F00DB11DAA1F649F6627B00DA11D29
:10175000661F829F2227B00DA11D621F739FB00DCF
:10176000A11D621F839FA00D611D221F749F33273F
:10177000A00D611D231F849F600D211D822F762FD8
:101780006A2F11249F5750408AF0E1F088234AF0D5
:10179000EE0FFF1FBB1F661F771F881F9150504021
:1017A000A9F79E3F510570F05CCFA6CF5F3FECF3E9
:1017B000983EDCF3869577956795B795F795E7950D
:1017C0009F5FC1F7FE2B880F911D9695879597F91E
:1017D000089511F40EF44BCF3EC073DFD0F399237C
:1017E000D9F3CEF39F57550B87FF43D00024A0E6D3
:1017F00040EA900180585695979528F4805C660FD2
:10180000771F881F20F026173707480730F4621B20
:10181000730B840B202931294A2BA6951794079422
:10182000202531254A2758F7660F771F881F20F09B
:1018300026173707480730F4620B730B840B200D13
:10184000311D411DA09581F7B901842F9158880F52
:101850009695879508959F3F31F0915020F4879594
:1018600077956795B795880F911D9695879597F908
:10187000089591505040660F771F881FD2F7089542
:04188000F894FFCF0A
:10188400010153746172747570004D73673A002CD2
:101894004F454D6374313A002C4F454D6374323AD1
:1018A400002C4F454D63743157683A002C4F454D19
:1018B40063743257683A0000000000F5025C047952
:1018C4000292028402D4020D0A006E616E00696EF7
:0818D40066006F7666002E002D
:00000001FF
